{
	"KindActionTokens.sol": {
		"ColdHouseToken": {
			"abi": [
				{
					"inputs": [],
					"stateMutability": "nonpayable",
					"type": "constructor"
				},
				{
					"anonymous": false,
					"inputs": [
						{
							"indexed": true,
							"internalType": "address",
							"name": "user",
							"type": "address"
						},
						{
							"indexed": false,
							"internalType": "uint256",
							"name": "actionIndex",
							"type": "uint256"
						}
					],
					"name": "ActionVerified",
					"type": "event"
				},
				{
					"anonymous": false,
					"inputs": [
						{
							"indexed": true,
							"internalType": "address",
							"name": "user",
							"type": "address"
						},
						{
							"indexed": false,
							"internalType": "string",
							"name": "actionType",
							"type": "string"
						},
						{
							"indexed": false,
							"internalType": "uint256",
							"name": "rewardAmount",
							"type": "uint256"
						}
					],
					"name": "KindActionRecorded",
					"type": "event"
				},
				{
					"anonymous": false,
					"inputs": [
						{
							"indexed": true,
							"internalType": "address",
							"name": "from",
							"type": "address"
						},
						{
							"indexed": true,
							"internalType": "address",
							"name": "to",
							"type": "address"
						},
						{
							"indexed": false,
							"internalType": "uint256",
							"name": "value",
							"type": "uint256"
						}
					],
					"name": "Transfer",
					"type": "event"
				},
				{
					"inputs": [
						{
							"internalType": "address",
							"name": "",
							"type": "address"
						},
						{
							"internalType": "uint256",
							"name": "",
							"type": "uint256"
						}
					],
					"name": "actionHistory",
					"outputs": [
						{
							"internalType": "string",
							"name": "actionType",
							"type": "string"
						},
						{
							"internalType": "string",
							"name": "description",
							"type": "string"
						},
						{
							"internalType": "uint256",
							"name": "timestamp",
							"type": "uint256"
						},
						{
							"internalType": "uint256",
							"name": "rewardAmount",
							"type": "uint256"
						},
						{
							"internalType": "bool",
							"name": "verified",
							"type": "bool"
						}
					],
					"stateMutability": "view",
					"type": "function"
				},
				{
					"inputs": [
						{
							"internalType": "address",
							"name": "",
							"type": "address"
						}
					],
					"name": "balanceOf",
					"outputs": [
						{
							"internalType": "uint256",
							"name": "",
							"type": "uint256"
						}
					],
					"stateMutability": "view",
					"type": "function"
				},
				{
					"inputs": [],
					"name": "decimals",
					"outputs": [
						{
							"internalType": "uint8",
							"name": "",
							"type": "uint8"
						}
					],
					"stateMutability": "view",
					"type": "function"
				},
				{
					"inputs": [],
					"name": "name",
					"outputs": [
						{
							"internalType": "string",
							"name": "",
							"type": "string"
						}
					],
					"stateMutability": "view",
					"type": "function"
				},
				{
					"inputs": [
						{
							"internalType": "string",
							"name": "actionType",
							"type": "string"
						},
						{
							"internalType": "string",
							"name": "description",
							"type": "string"
						}
					],
					"name": "recordKindAction",
					"outputs": [],
					"stateMutability": "nonpayable",
					"type": "function"
				},
				{
					"inputs": [],
					"name": "symbol",
					"outputs": [
						{
							"internalType": "string",
							"name": "",
							"type": "string"
						}
					],
					"stateMutability": "view",
					"type": "function"
				},
				{
					"inputs": [],
					"name": "totalSupply",
					"outputs": [
						{
							"internalType": "uint256",
							"name": "",
							"type": "uint256"
						}
					],
					"stateMutability": "view",
					"type": "function"
				},
				{
					"inputs": [
						{
							"internalType": "address",
							"name": "to",
							"type": "address"
						},
						{
							"internalType": "uint256",
							"name": "amount",
							"type": "uint256"
						}
					],
					"name": "transfer",
					"outputs": [
						{
							"internalType": "bool",
							"name": "",
							"type": "bool"
						}
					],
					"stateMutability": "nonpayable",
					"type": "function"
				},
				{
					"inputs": [
						{
							"internalType": "address",
							"name": "user",
							"type": "address"
						},
						{
							"internalType": "uint256",
							"name": "actionIndex",
							"type": "uint256"
						}
					],
					"name": "verifyAction",
					"outputs": [],
					"stateMutability": "nonpayable",
					"type": "function"
				}
			],
			"devdoc": {
				"kind": "dev",
				"methods": {},
				"version": 1
			},
			"evm": {
				"assembly": "    /* \"KindActionTokens.sol\":3174:4040  contract ColdHouseToken is KindActionToken {... */\n  mstore(0x40, 0x80)\n    /* \"KindActionTokens.sol\":3223:3281  constructor() KindActionToken(\"ColdHouse Token\", \"CHC\") {} */\n  callvalue\n  dup1\n  iszero\n  tag_1\n  jumpi\n  0x00\n  dup1\n  revert\ntag_1:\n  pop\n    /* \"KindActionTokens.sol\":1154:1319  constructor(string memory _name, string memory _symbol) {... */\n  mload(0x40)\n  dup1\n  0x40\n  add\n  0x40\n  mstore\n  dup1\n  0x0f\n  dup2\n  mstore\n  0x20\n  add\n  0x436f6c64486f75736520546f6b656e0000000000000000000000000000000000\n  dup2\n  mstore\n  pop\n  mload(0x40)\n  dup1\n  0x40\n  add\n  0x40\n  mstore\n  dup1\n  0x03\n  dup2\n  mstore\n  0x20\n  add\n  0x4348430000000000000000000000000000000000000000000000000000000000\n  dup2\n  mstore\n  pop\n    /* \"KindActionTokens.sol\":1227:1232  _name */\n  dup2\n    /* \"KindActionTokens.sol\":1220:1224  name */\n  0x00\n    /* \"KindActionTokens.sol\":1220:1232  name = _name */\n  swap1\n  dup2\n  tag_5\n  swap2\n  swap1\n  tag_6\n  jump\t// in\ntag_5:\n  pop\n    /* \"KindActionTokens.sol\":1251:1258  _symbol */\n  dup1\n    /* \"KindActionTokens.sol\":1242:1248  symbol */\n  0x01\n    /* \"KindActionTokens.sol\":1242:1258  symbol = _symbol */\n  swap1\n  dup2\n  tag_7\n  swap2\n  swap1\n  tag_6\n  jump\t// in\ntag_7:\n  pop\n    /* \"KindActionTokens.sol\":1279:1281  18 */\n  0x12\n    /* \"KindActionTokens.sol\":1268:1276  decimals */\n  0x02\n  0x00\n    /* \"KindActionTokens.sol\":1268:1281  decimals = 18 */\n  0x0100\n  exp\n  dup2\n  sload\n  dup2\n  0xff\n  mul\n  not\n  and\n  swap1\n  dup4\n  0xff\n  and\n  mul\n  or\n  swap1\n  sstore\n  pop\n    /* \"KindActionTokens.sol\":1154:1319  constructor(string memory _name, string memory _symbol) {... */\n  pop\n  pop\n    /* \"KindActionTokens.sol\":3174:4040  contract ColdHouseToken is KindActionToken {... */\n  jump(tag_9)\n    /* \"#utility.yul\":7:106   */\ntag_10:\n    /* \"#utility.yul\":59:65   */\n  0x00\n    /* \"#utility.yul\":93:98   */\n  dup2\n    /* \"#utility.yul\":87:99   */\n  mload\n    /* \"#utility.yul\":77:99   */\n  swap1\n  pop\n    /* \"#utility.yul\":7:106   */\n  swap2\n  swap1\n  pop\n  jump\t// out\n    /* \"#utility.yul\":112:292   */\ntag_11:\n    /* \"#utility.yul\":160:237   */\n  0x4e487b7100000000000000000000000000000000000000000000000000000000\n    /* \"#utility.yul\":157:158   */\n  0x00\n    /* \"#utility.yul\":150:238   */\n  mstore\n    /* \"#utility.yul\":257:261   */\n  0x41\n    /* \"#utility.yul\":254:255   */\n  0x04\n    /* \"#utility.yul\":247:262   */\n  mstore\n    /* \"#utility.yul\":281:285   */\n  0x24\n    /* \"#utility.yul\":278:279   */\n  0x00\n    /* \"#utility.yul\":271:286   */\n  revert\n    /* \"#utility.yul\":298:478   */\ntag_12:\n    /* \"#utility.yul\":346:423   */\n  0x4e487b7100000000000000000000000000000000000000000000000000000000\n    /* \"#utility.yul\":343:344   */\n  0x00\n    /* \"#utility.yul\":336:424   */\n  mstore\n    /* \"#utility.yul\":443:447   */\n  0x22\n    /* \"#utility.yul\":440:441   */\n  0x04\n    /* \"#utility.yul\":433:448   */\n  mstore\n    /* \"#utility.yul\":467:471   */\n  0x24\n    /* \"#utility.yul\":464:465   */\n  0x00\n    /* \"#utility.yul\":457:472   */\n  revert\n    /* \"#utility.yul\":484:804   */\ntag_13:\n    /* \"#utility.yul\":528:534   */\n  0x00\n    /* \"#utility.yul\":565:566   */\n  0x02\n    /* \"#utility.yul\":559:563   */\n  dup3\n    /* \"#utility.yul\":555:567   */\n  div\n    /* \"#utility.yul\":545:567   */\n  swap1\n  pop\n    /* \"#utility.yul\":612:613   */\n  0x01\n    /* \"#utility.yul\":606:610   */\n  dup3\n    /* \"#utility.yul\":602:614   */\n  and\n    /* \"#utility.yul\":633:651   */\n  dup1\n    /* \"#utility.yul\":623:704   */\n  tag_35\n  jumpi\n    /* \"#utility.yul\":689:693   */\n  0x7f\n    /* \"#utility.yul\":681:687   */\n  dup3\n    /* \"#utility.yul\":677:694   */\n  and\n    /* \"#utility.yul\":667:694   */\n  swap2\n  pop\n    /* \"#utility.yul\":623:704   */\ntag_35:\n    /* \"#utility.yul\":751:753   */\n  0x20\n    /* \"#utility.yul\":743:749   */\n  dup3\n    /* \"#utility.yul\":740:754   */\n  lt\n    /* \"#utility.yul\":720:738   */\n  dup2\n    /* \"#utility.yul\":717:755   */\n  sub\n    /* \"#utility.yul\":714:798   */\n  tag_36\n  jumpi\n    /* \"#utility.yul\":770:788   */\n  tag_37\n  tag_12\n  jump\t// in\ntag_37:\n    /* \"#utility.yul\":714:798   */\ntag_36:\n    /* \"#utility.yul\":535:804   */\n  pop\n    /* \"#utility.yul\":484:804   */\n  swap2\n  swap1\n  pop\n  jump\t// out\n    /* \"#utility.yul\":810:951   */\ntag_14:\n    /* \"#utility.yul\":859:863   */\n  0x00\n    /* \"#utility.yul\":882:885   */\n  dup2\n    /* \"#utility.yul\":874:885   */\n  swap1\n  pop\n    /* \"#utility.yul\":905:908   */\n  dup2\n    /* \"#utility.yul\":902:903   */\n  0x00\n    /* \"#utility.yul\":895:909   */\n  mstore\n    /* \"#utility.yul\":939:943   */\n  0x20\n    /* \"#utility.yul\":936:937   */\n  0x00\n    /* \"#utility.yul\":926:944   */\n  keccak256\n    /* \"#utility.yul\":918:944   */\n  swap1\n  pop\n    /* \"#utility.yul\":810:951   */\n  swap2\n  swap1\n  pop\n  jump\t// out\n    /* \"#utility.yul\":957:1050   */\ntag_15:\n    /* \"#utility.yul\":994:1000   */\n  0x00\n    /* \"#utility.yul\":1041:1043   */\n  0x20\n    /* \"#utility.yul\":1036:1038   */\n  0x1f\n    /* \"#utility.yul\":1029:1034   */\n  dup4\n    /* \"#utility.yul\":1025:1039   */\n  add\n    /* \"#utility.yul\":1021:1044   */\n  div\n    /* \"#utility.yul\":1011:1044   */\n  swap1\n  pop\n    /* \"#utility.yul\":957:1050   */\n  swap2\n  swap1\n  pop\n  jump\t// out\n    /* \"#utility.yul\":1056:1163   */\ntag_16:\n    /* \"#utility.yul\":1100:1108   */\n  0x00\n    /* \"#utility.yul\":1150:1155   */\n  dup3\n    /* \"#utility.yul\":1144:1148   */\n  dup3\n    /* \"#utility.yul\":1140:1156   */\n  shl\n    /* \"#utility.yul\":1119:1156   */\n  swap1\n  pop\n    /* \"#utility.yul\":1056:1163   */\n  swap3\n  swap2\n  pop\n  pop\n  jump\t// out\n    /* \"#utility.yul\":1169:1562   */\ntag_17:\n    /* \"#utility.yul\":1238:1244   */\n  0x00\n    /* \"#utility.yul\":1288:1289   */\n  0x08\n    /* \"#utility.yul\":1276:1286   */\n  dup4\n    /* \"#utility.yul\":1272:1290   */\n  mul\n    /* \"#utility.yul\":1311:1408   */\n  tag_42\n    /* \"#utility.yul\":1341:1407   */\n  0xffffffffffffffffffffffffffffffffffffffffffffffffffffffffffffffff\n    /* \"#utility.yul\":1330:1339   */\n  dup3\n    /* \"#utility.yul\":1311:1408   */\n  tag_16\n  jump\t// in\ntag_42:\n    /* \"#utility.yul\":1429:1468   */\n  tag_43\n    /* \"#utility.yul\":1459:1467   */\n  dup7\n    /* \"#utility.yul\":1448:1457   */\n  dup4\n    /* \"#utility.yul\":1429:1468   */\n  tag_16\n  jump\t// in\ntag_43:\n    /* \"#utility.yul\":1417:1468   */\n  swap6\n  pop\n    /* \"#utility.yul\":1501:1505   */\n  dup1\n    /* \"#utility.yul\":1497:1506   */\n  not\n    /* \"#utility.yul\":1490:1495   */\n  dup5\n    /* \"#utility.yul\":1486:1507   */\n  and\n    /* \"#utility.yul\":1477:1507   */\n  swap4\n  pop\n    /* \"#utility.yul\":1550:1554   */\n  dup1\n    /* \"#utility.yul\":1540:1548   */\n  dup7\n    /* \"#utility.yul\":1536:1555   */\n  and\n    /* \"#utility.yul\":1529:1534   */\n  dup5\n    /* \"#utility.yul\":1526:1556   */\n  or\n    /* \"#utility.yul\":1516:1556   */\n  swap3\n  pop\n    /* \"#utility.yul\":1245:1562   */\n  pop\n  pop\n    /* \"#utility.yul\":1169:1562   */\n  swap4\n  swap3\n  pop\n  pop\n  pop\n  jump\t// out\n    /* \"#utility.yul\":1568:1645   */\ntag_18:\n    /* \"#utility.yul\":1605:1612   */\n  0x00\n    /* \"#utility.yul\":1634:1639   */\n  dup2\n    /* \"#utility.yul\":1623:1639   */\n  swap1\n  pop\n    /* \"#utility.yul\":1568:1645   */\n  swap2\n  swap1\n  pop\n  jump\t// out\n    /* \"#utility.yul\":1651:1711   */\ntag_19:\n    /* \"#utility.yul\":1679:1682   */\n  0x00\n    /* \"#utility.yul\":1700:1705   */\n  dup2\n    /* \"#utility.yul\":1693:1705   */\n  swap1\n  pop\n    /* \"#utility.yul\":1651:1711   */\n  swap2\n  swap1\n  pop\n  jump\t// out\n    /* \"#utility.yul\":1717:1859   */\ntag_20:\n    /* \"#utility.yul\":1767:1776   */\n  0x00\n    /* \"#utility.yul\":1800:1853   */\n  tag_47\n    /* \"#utility.yul\":1818:1852   */\n  tag_48\n    /* \"#utility.yul\":1827:1851   */\n  tag_49\n    /* \"#utility.yul\":1845:1850   */\n  dup5\n    /* \"#utility.yul\":1827:1851   */\n  tag_18\n  jump\t// in\ntag_49:\n    /* \"#utility.yul\":1818:1852   */\n  tag_19\n  jump\t// in\ntag_48:\n    /* \"#utility.yul\":1800:1853   */\n  tag_18\n  jump\t// in\ntag_47:\n    /* \"#utility.yul\":1787:1853   */\n  swap1\n  pop\n    /* \"#utility.yul\":1717:1859   */\n  swap2\n  swap1\n  pop\n  jump\t// out\n    /* \"#utility.yul\":1865:1940   */\ntag_21:\n    /* \"#utility.yul\":1908:1911   */\n  0x00\n    /* \"#utility.yul\":1929:1934   */\n  dup2\n    /* \"#utility.yul\":1922:1934   */\n  swap1\n  pop\n    /* \"#utility.yul\":1865:1940   */\n  swap2\n  swap1\n  pop\n  jump\t// out\n    /* \"#utility.yul\":1946:2215   */\ntag_22:\n    /* \"#utility.yul\":2056:2095   */\n  tag_52\n    /* \"#utility.yul\":2087:2094   */\n  dup4\n    /* \"#utility.yul\":2056:2095   */\n  tag_20\n  jump\t// in\ntag_52:\n    /* \"#utility.yul\":2117:2208   */\n  tag_53\n    /* \"#utility.yul\":2166:2207   */\n  tag_54\n    /* \"#utility.yul\":2190:2206   */\n  dup3\n    /* \"#utility.yul\":2166:2207   */\n  tag_21\n  jump\t// in\ntag_54:\n    /* \"#utility.yul\":2158:2164   */\n  dup5\n    /* \"#utility.yul\":2151:2155   */\n  dup5\n    /* \"#utility.yul\":2145:2156   */\n  sload\n    /* \"#utility.yul\":2117:2208   */\n  tag_17\n  jump\t// in\ntag_53:\n    /* \"#utility.yul\":2111:2115   */\n  dup3\n    /* \"#utility.yul\":2104:2209   */\n  sstore\n    /* \"#utility.yul\":2022:2215   */\n  pop\n    /* \"#utility.yul\":1946:2215   */\n  pop\n  pop\n  pop\n  jump\t// out\n    /* \"#utility.yul\":2221:2294   */\ntag_23:\n    /* \"#utility.yul\":2266:2269   */\n  0x00\n    /* \"#utility.yul\":2221:2294   */\n  swap1\n  jump\t// out\n    /* \"#utility.yul\":2300:2489   */\ntag_24:\n    /* \"#utility.yul\":2377:2409   */\n  tag_57\n  tag_23\n  jump\t// in\ntag_57:\n    /* \"#utility.yul\":2418:2483   */\n  tag_58\n    /* \"#utility.yul\":2476:2482   */\n  dup2\n    /* \"#utility.yul\":2468:2474   */\n  dup5\n    /* \"#utility.yul\":2462:2466   */\n  dup5\n    /* \"#utility.yul\":2418:2483   */\n  tag_22\n  jump\t// in\ntag_58:\n    /* \"#utility.yul\":2353:2489   */\n  pop\n    /* \"#utility.yul\":2300:2489   */\n  pop\n  pop\n  jump\t// out\n    /* \"#utility.yul\":2495:2681   */\ntag_25:\n    /* \"#utility.yul\":2555:2675   */\ntag_60:\n    /* \"#utility.yul\":2572:2575   */\n  dup2\n    /* \"#utility.yul\":2565:2570   */\n  dup2\n    /* \"#utility.yul\":2562:2576   */\n  lt\n    /* \"#utility.yul\":2555:2675   */\n  iszero\n  tag_62\n  jumpi\n    /* \"#utility.yul\":2626:2665   */\n  tag_63\n    /* \"#utility.yul\":2663:2664   */\n  0x00\n    /* \"#utility.yul\":2656:2661   */\n  dup3\n    /* \"#utility.yul\":2626:2665   */\n  tag_24\n  jump\t// in\ntag_63:\n    /* \"#utility.yul\":2599:2600   */\n  0x01\n    /* \"#utility.yul\":2592:2597   */\n  dup2\n    /* \"#utility.yul\":2588:2601   */\n  add\n    /* \"#utility.yul\":2579:2601   */\n  swap1\n  pop\n    /* \"#utility.yul\":2555:2675   */\n  jump(tag_60)\ntag_62:\n    /* \"#utility.yul\":2495:2681   */\n  pop\n  pop\n  jump\t// out\n    /* \"#utility.yul\":2687:3230   */\ntag_26:\n    /* \"#utility.yul\":2788:2790   */\n  0x1f\n    /* \"#utility.yul\":2783:2786   */\n  dup3\n    /* \"#utility.yul\":2780:2791   */\n  gt\n    /* \"#utility.yul\":2777:3223   */\n  iszero\n  tag_65\n  jumpi\n    /* \"#utility.yul\":2822:2860   */\n  tag_66\n    /* \"#utility.yul\":2854:2859   */\n  dup2\n    /* \"#utility.yul\":2822:2860   */\n  tag_14\n  jump\t// in\ntag_66:\n    /* \"#utility.yul\":2906:2935   */\n  tag_67\n    /* \"#utility.yul\":2924:2934   */\n  dup5\n    /* \"#utility.yul\":2906:2935   */\n  tag_15\n  jump\t// in\ntag_67:\n    /* \"#utility.yul\":2896:2904   */\n  dup2\n    /* \"#utility.yul\":2892:2936   */\n  add\n    /* \"#utility.yul\":3089:3091   */\n  0x20\n    /* \"#utility.yul\":3077:3087   */\n  dup6\n    /* \"#utility.yul\":3074:3092   */\n  lt\n    /* \"#utility.yul\":3071:3120   */\n  iszero\n  tag_68\n  jumpi\n    /* \"#utility.yul\":3110:3118   */\n  dup2\n    /* \"#utility.yul\":3095:3118   */\n  swap1\n  pop\n    /* \"#utility.yul\":3071:3120   */\ntag_68:\n    /* \"#utility.yul\":3133:3213   */\n  tag_69\n    /* \"#utility.yul\":3189:3211   */\n  tag_70\n    /* \"#utility.yul\":3207:3210   */\n  dup6\n    /* \"#utility.yul\":3189:3211   */\n  tag_15\n  jump\t// in\ntag_70:\n    /* \"#utility.yul\":3179:3187   */\n  dup4\n    /* \"#utility.yul\":3175:3212   */\n  add\n    /* \"#utility.yul\":3162:3173   */\n  dup3\n    /* \"#utility.yul\":3133:3213   */\n  tag_25\n  jump\t// in\ntag_69:\n    /* \"#utility.yul\":2792:3223   */\n  pop\n  pop\n    /* \"#utility.yul\":2777:3223   */\ntag_65:\n    /* \"#utility.yul\":2687:3230   */\n  pop\n  pop\n  pop\n  jump\t// out\n    /* \"#utility.yul\":3236:3353   */\ntag_27:\n    /* \"#utility.yul\":3290:3298   */\n  0x00\n    /* \"#utility.yul\":3340:3345   */\n  dup3\n    /* \"#utility.yul\":3334:3338   */\n  dup3\n    /* \"#utility.yul\":3330:3346   */\n  shr\n    /* \"#utility.yul\":3309:3346   */\n  swap1\n  pop\n    /* \"#utility.yul\":3236:3353   */\n  swap3\n  swap2\n  pop\n  pop\n  jump\t// out\n    /* \"#utility.yul\":3359:3528   */\ntag_28:\n    /* \"#utility.yul\":3403:3409   */\n  0x00\n    /* \"#utility.yul\":3436:3487   */\n  tag_73\n    /* \"#utility.yul\":3484:3485   */\n  0x00\n    /* \"#utility.yul\":3480:3486   */\n  not\n    /* \"#utility.yul\":3472:3477   */\n  dup5\n    /* \"#utility.yul\":3469:3470   */\n  0x08\n    /* \"#utility.yul\":3465:3478   */\n  mul\n    /* \"#utility.yul\":3436:3487   */\n  tag_27\n  jump\t// in\ntag_73:\n    /* \"#utility.yul\":3432:3488   */\n  not\n    /* \"#utility.yul\":3517:3521   */\n  dup1\n    /* \"#utility.yul\":3511:3515   */\n  dup4\n    /* \"#utility.yul\":3507:3522   */\n  and\n    /* \"#utility.yul\":3497:3522   */\n  swap2\n  pop\n    /* \"#utility.yul\":3410:3528   */\n  pop\n    /* \"#utility.yul\":3359:3528   */\n  swap3\n  swap2\n  pop\n  pop\n  jump\t// out\n    /* \"#utility.yul\":3533:3828   */\ntag_29:\n    /* \"#utility.yul\":3609:3613   */\n  0x00\n    /* \"#utility.yul\":3755:3784   */\n  tag_75\n    /* \"#utility.yul\":3780:3783   */\n  dup4\n    /* \"#utility.yul\":3774:3778   */\n  dup4\n    /* \"#utility.yul\":3755:3784   */\n  tag_28\n  jump\t// in\ntag_75:\n    /* \"#utility.yul\":3747:3784   */\n  swap2\n  pop\n    /* \"#utility.yul\":3817:3820   */\n  dup3\n    /* \"#utility.yul\":3814:3815   */\n  0x02\n    /* \"#utility.yul\":3810:3821   */\n  mul\n    /* \"#utility.yul\":3804:3808   */\n  dup3\n    /* \"#utility.yul\":3801:3822   */\n  or\n    /* \"#utility.yul\":3793:3822   */\n  swap1\n  pop\n    /* \"#utility.yul\":3533:3828   */\n  swap3\n  swap2\n  pop\n  pop\n  jump\t// out\n    /* \"#utility.yul\":3833:5228   */\ntag_6:\n    /* \"#utility.yul\":3950:3987   */\n  tag_77\n    /* \"#utility.yul\":3983:3986   */\n  dup3\n    /* \"#utility.yul\":3950:3987   */\n  tag_10\n  jump\t// in\ntag_77:\n    /* \"#utility.yul\":4052:4070   */\n  0xffffffffffffffff\n    /* \"#utility.yul\":4044:4050   */\n  dup2\n    /* \"#utility.yul\":4041:4071   */\n  gt\n    /* \"#utility.yul\":4038:4094   */\n  iszero\n  tag_78\n  jumpi\n    /* \"#utility.yul\":4074:4092   */\n  tag_79\n  tag_11\n  jump\t// in\ntag_79:\n    /* \"#utility.yul\":4038:4094   */\ntag_78:\n    /* \"#utility.yul\":4118:4156   */\n  tag_80\n    /* \"#utility.yul\":4150:4154   */\n  dup3\n    /* \"#utility.yul\":4144:4155   */\n  sload\n    /* \"#utility.yul\":4118:4156   */\n  tag_13\n  jump\t// in\ntag_80:\n    /* \"#utility.yul\":4203:4270   */\n  tag_81\n    /* \"#utility.yul\":4263:4269   */\n  dup3\n    /* \"#utility.yul\":4255:4261   */\n  dup3\n    /* \"#utility.yul\":4249:4253   */\n  dup6\n    /* \"#utility.yul\":4203:4270   */\n  tag_26\n  jump\t// in\ntag_81:\n    /* \"#utility.yul\":4297:4298   */\n  0x00\n    /* \"#utility.yul\":4321:4325   */\n  0x20\n    /* \"#utility.yul\":4308:4325   */\n  swap1\n  pop\n    /* \"#utility.yul\":4353:4355   */\n  0x1f\n    /* \"#utility.yul\":4345:4351   */\n  dup4\n    /* \"#utility.yul\":4342:4356   */\n  gt\n    /* \"#utility.yul\":4370:4371   */\n  0x01\n    /* \"#utility.yul\":4365:4983   */\n  dup2\n  eq\n  tag_83\n  jumpi\n    /* \"#utility.yul\":5027:5028   */\n  0x00\n    /* \"#utility.yul\":5044:5050   */\n  dup5\n    /* \"#utility.yul\":5041:5118   */\n  iszero\n  tag_84\n  jumpi\n    /* \"#utility.yul\":5093:5102   */\n  dup3\n    /* \"#utility.yul\":5088:5091   */\n  dup8\n    /* \"#utility.yul\":5084:5103   */\n  add\n    /* \"#utility.yul\":5078:5104   */\n  mload\n    /* \"#utility.yul\":5069:5104   */\n  swap1\n  pop\n    /* \"#utility.yul\":5041:5118   */\ntag_84:\n    /* \"#utility.yul\":5144:5211   */\n  tag_85\n    /* \"#utility.yul\":5204:5210   */\n  dup6\n    /* \"#utility.yul\":5197:5202   */\n  dup3\n    /* \"#utility.yul\":5144:5211   */\n  tag_29\n  jump\t// in\ntag_85:\n    /* \"#utility.yul\":5138:5142   */\n  dup7\n    /* \"#utility.yul\":5131:5212   */\n  sstore\n    /* \"#utility.yul\":5000:5222   */\n  pop\n    /* \"#utility.yul\":4335:5222   */\n  jump(tag_82)\n    /* \"#utility.yul\":4365:4983   */\ntag_83:\n    /* \"#utility.yul\":4417:4421   */\n  0x1f\n    /* \"#utility.yul\":4413:4422   */\n  not\n    /* \"#utility.yul\":4405:4411   */\n  dup5\n    /* \"#utility.yul\":4401:4423   */\n  and\n    /* \"#utility.yul\":4451:4488   */\n  tag_86\n    /* \"#utility.yul\":4483:4487   */\n  dup7\n    /* \"#utility.yul\":4451:4488   */\n  tag_14\n  jump\t// in\ntag_86:\n    /* \"#utility.yul\":4510:4511   */\n  0x00\n    /* \"#utility.yul\":4524:4732   */\ntag_87:\n    /* \"#utility.yul\":4538:4545   */\n  dup3\n    /* \"#utility.yul\":4535:4536   */\n  dup2\n    /* \"#utility.yul\":4532:4546   */\n  lt\n    /* \"#utility.yul\":4524:4732   */\n  iszero\n  tag_89\n  jumpi\n    /* \"#utility.yul\":4617:4626   */\n  dup5\n    /* \"#utility.yul\":4612:4615   */\n  dup10\n    /* \"#utility.yul\":4608:4627   */\n  add\n    /* \"#utility.yul\":4602:4628   */\n  mload\n    /* \"#utility.yul\":4594:4600   */\n  dup3\n    /* \"#utility.yul\":4587:4629   */\n  sstore\n    /* \"#utility.yul\":4668:4669   */\n  0x01\n    /* \"#utility.yul\":4660:4666   */\n  dup3\n    /* \"#utility.yul\":4656:4670   */\n  add\n    /* \"#utility.yul\":4646:4670   */\n  swap2\n  pop\n    /* \"#utility.yul\":4715:4717   */\n  0x20\n    /* \"#utility.yul\":4704:4713   */\n  dup6\n    /* \"#utility.yul\":4700:4718   */\n  add\n    /* \"#utility.yul\":4687:4718   */\n  swap5\n  pop\n    /* \"#utility.yul\":4561:4565   */\n  0x20\n    /* \"#utility.yul\":4558:4559   */\n  dup2\n    /* \"#utility.yul\":4554:4566   */\n  add\n    /* \"#utility.yul\":4549:4566   */\n  swap1\n  pop\n    /* \"#utility.yul\":4524:4732   */\n  jump(tag_87)\ntag_89:\n    /* \"#utility.yul\":4760:4766   */\n  dup7\n    /* \"#utility.yul\":4751:4758   */\n  dup4\n    /* \"#utility.yul\":4748:4767   */\n  lt\n    /* \"#utility.yul\":4745:4924   */\n  iszero\n  tag_90\n  jumpi\n    /* \"#utility.yul\":4818:4827   */\n  dup5\n    /* \"#utility.yul\":4813:4816   */\n  dup10\n    /* \"#utility.yul\":4809:4828   */\n  add\n    /* \"#utility.yul\":4803:4829   */\n  mload\n    /* \"#utility.yul\":4861:4909   */\n  tag_91\n    /* \"#utility.yul\":4903:4907   */\n  0x1f\n    /* \"#utility.yul\":4895:4901   */\n  dup10\n    /* \"#utility.yul\":4891:4908   */\n  and\n    /* \"#utility.yul\":4880:4889   */\n  dup3\n    /* \"#utility.yul\":4861:4909   */\n  tag_28\n  jump\t// in\ntag_91:\n    /* \"#utility.yul\":4853:4859   */\n  dup4\n    /* \"#utility.yul\":4846:4910   */\n  sstore\n    /* \"#utility.yul\":4768:4924   */\n  pop\n    /* \"#utility.yul\":4745:4924   */\ntag_90:\n    /* \"#utility.yul\":4970:4971   */\n  0x01\n    /* \"#utility.yul\":4966:4967   */\n  0x02\n    /* \"#utility.yul\":4958:4964   */\n  dup9\n    /* \"#utility.yul\":4954:4968   */\n  mul\n    /* \"#utility.yul\":4950:4972   */\n  add\n    /* \"#utility.yul\":4944:4948   */\n  dup9\n    /* \"#utility.yul\":4937:4973   */\n  sstore\n    /* \"#utility.yul\":4372:4983   */\n  pop\n  pop\n  pop\n    /* \"#utility.yul\":4335:5222   */\ntag_82:\n  pop\n    /* \"#utility.yul\":3925:5228   */\n  pop\n  pop\n  pop\n    /* \"#utility.yul\":3833:5228   */\n  pop\n  pop\n  jump\t// out\n    /* \"KindActionTokens.sol\":3174:4040  contract ColdHouseToken is KindActionToken {... */\ntag_9:\n  dataSize(sub_0)\n  dup1\n  dataOffset(sub_0)\n  0x00\n  codecopy\n  0x00\n  return\nstop\n\nsub_0: assembly {\n        /* \"KindActionTokens.sol\":3174:4040  contract ColdHouseToken is KindActionToken {... */\n      mstore(0x40, 0x80)\n      callvalue\n      dup1\n      iszero\n      tag_1\n      jumpi\n      0x00\n      dup1\n      revert\n    tag_1:\n      pop\n      jumpi(tag_2, lt(calldatasize, 0x04))\n      shr(0xe0, calldataload(0x00))\n      dup1\n      0x6bbee24d\n      gt\n      tag_12\n      jumpi\n      dup1\n      0x6bbee24d\n      eq\n      tag_7\n      jumpi\n      dup1\n      0x70a08231\n      eq\n      tag_8\n      jumpi\n      dup1\n      0x7b407291\n      eq\n      tag_9\n      jumpi\n      dup1\n      0x95d89b41\n      eq\n      tag_10\n      jumpi\n      dup1\n      0xa9059cbb\n      eq\n      tag_11\n      jumpi\n      jump(tag_2)\n    tag_12:\n      dup1\n      0x06fdde03\n      eq\n      tag_3\n      jumpi\n      dup1\n      0x18160ddd\n      eq\n      tag_4\n      jumpi\n      dup1\n      0x313ce567\n      eq\n      tag_5\n      jumpi\n      dup1\n      0x630a9b9b\n      eq\n      tag_6\n      jumpi\n    tag_2:\n      0x00\n      dup1\n      revert\n        /* \"KindActionTokens.sol\":167:185  string public name */\n    tag_3:\n      tag_13\n      tag_14\n      jump\t// in\n    tag_13:\n      mload(0x40)\n      tag_15\n      swap2\n      swap1\n      tag_16\n      jump\t// in\n    tag_15:\n      mload(0x40)\n      dup1\n      swap2\n      sub\n      swap1\n      return\n        /* \"KindActionTokens.sol\":320:346  uint256 public totalSupply */\n    tag_4:\n      tag_17\n      tag_18\n      jump\t// in\n    tag_17:\n      mload(0x40)\n      tag_19\n      swap2\n      swap1\n      tag_20\n      jump\t// in\n    tag_19:\n      mload(0x40)\n      dup1\n      swap2\n      sub\n      swap1\n      return\n        /* \"KindActionTokens.sol\":265:286  uint8 public decimals */\n    tag_5:\n      tag_21\n      tag_22\n      jump\t// in\n    tag_21:\n      mload(0x40)\n      tag_23\n      swap2\n      swap1\n      tag_24\n      jump\t// in\n    tag_23:\n      mload(0x40)\n      dup1\n      swap2\n      sub\n      swap1\n      return\n        /* \"KindActionTokens.sol\":1773:2312  function recordKindAction(string memory actionType, string memory description) public {... */\n    tag_6:\n      tag_25\n      0x04\n      dup1\n      calldatasize\n      sub\n      dup2\n      add\n      swap1\n      tag_26\n      swap2\n      swap1\n      tag_27\n      jump\t// in\n    tag_26:\n      tag_28\n      jump\t// in\n    tag_25:\n      stop\n        /* \"KindActionTokens.sol\":2379:2983  function verifyAction(address user, uint256 actionIndex) public {... */\n    tag_7:\n      tag_29\n      0x04\n      dup1\n      calldatasize\n      sub\n      dup2\n      add\n      swap1\n      tag_30\n      swap2\n      swap1\n      tag_31\n      jump\t// in\n    tag_30:\n      tag_32\n      jump\t// in\n    tag_29:\n      stop\n        /* \"KindActionTokens.sol\":394:438  mapping(address => uint256) public balanceOf */\n    tag_8:\n      tag_33\n      0x04\n      dup1\n      calldatasize\n      sub\n      dup2\n      add\n      swap1\n      tag_34\n      swap2\n      swap1\n      tag_35\n      jump\t// in\n    tag_34:\n      tag_36\n      jump\t// in\n    tag_33:\n      mload(0x40)\n      tag_37\n      swap2\n      swap1\n      tag_20\n      jump\t// in\n    tag_37:\n      mload(0x40)\n      dup1\n      swap2\n      sub\n      swap1\n      return\n        /* \"KindActionTokens.sol\":805:858  mapping(address => KindAction[]) public actionHistory */\n    tag_9:\n      tag_38\n      0x04\n      dup1\n      calldatasize\n      sub\n      dup2\n      add\n      swap1\n      tag_39\n      swap2\n      swap1\n      tag_31\n      jump\t// in\n    tag_39:\n      tag_40\n      jump\t// in\n    tag_38:\n      mload(0x40)\n      tag_41\n      swap6\n      swap5\n      swap4\n      swap3\n      swap2\n      swap1\n      tag_42\n      jump\t// in\n    tag_41:\n      mload(0x40)\n      dup1\n      swap2\n      sub\n      swap1\n      return\n        /* \"KindActionTokens.sol\":216:236  string public symbol */\n    tag_10:\n      tag_43\n      tag_44\n      jump\t// in\n    tag_43:\n      mload(0x40)\n      tag_45\n      swap2\n      swap1\n      tag_16\n      jump\t// in\n    tag_45:\n      mload(0x40)\n      dup1\n      swap2\n      sub\n      swap1\n      return\n        /* \"KindActionTokens.sol\":1357:1728  function transfer(address to, uint256 amount) public virtual returns (bool) {... */\n    tag_11:\n      tag_46\n      0x04\n      dup1\n      calldatasize\n      sub\n      dup2\n      add\n      swap1\n      tag_47\n      swap2\n      swap1\n      tag_31\n      jump\t// in\n    tag_47:\n      tag_48\n      jump\t// in\n    tag_46:\n      mload(0x40)\n      tag_49\n      swap2\n      swap1\n      tag_50\n      jump\t// in\n    tag_49:\n      mload(0x40)\n      dup1\n      swap2\n      sub\n      swap1\n      return\n        /* \"KindActionTokens.sol\":167:185  string public name */\n    tag_14:\n      0x00\n      dup1\n      sload\n      tag_51\n      swap1\n      tag_52\n      jump\t// in\n    tag_51:\n      dup1\n      0x1f\n      add\n      0x20\n      dup1\n      swap2\n      div\n      mul\n      0x20\n      add\n      mload(0x40)\n      swap1\n      dup2\n      add\n      0x40\n      mstore\n      dup1\n      swap3\n      swap2\n      swap1\n      dup2\n      dup2\n      mstore\n      0x20\n      add\n      dup3\n      dup1\n      sload\n      tag_53\n      swap1\n      tag_52\n      jump\t// in\n    tag_53:\n      dup1\n      iszero\n      tag_54\n      jumpi\n      dup1\n      0x1f\n      lt\n      tag_55\n      jumpi\n      0x0100\n      dup1\n      dup4\n      sload\n      div\n      mul\n      dup4\n      mstore\n      swap2\n      0x20\n      add\n      swap2\n      jump(tag_54)\n    tag_55:\n      dup3\n      add\n      swap2\n      swap1\n      0x00\n      mstore\n      keccak256(0x00, 0x20)\n      swap1\n    tag_56:\n      dup2\n      sload\n      dup2\n      mstore\n      swap1\n      0x01\n      add\n      swap1\n      0x20\n      add\n      dup1\n      dup4\n      gt\n      tag_56\n      jumpi\n      dup3\n      swap1\n      sub\n      0x1f\n      and\n      dup3\n      add\n      swap2\n    tag_54:\n      pop\n      pop\n      pop\n      pop\n      pop\n      dup2\n      jump\t// out\n        /* \"KindActionTokens.sol\":320:346  uint256 public totalSupply */\n    tag_18:\n      sload(0x03)\n      dup2\n      jump\t// out\n        /* \"KindActionTokens.sol\":265:286  uint8 public decimals */\n    tag_22:\n      0x02\n      0x00\n      swap1\n      sload\n      swap1\n      0x0100\n      exp\n      swap1\n      div\n      0xff\n      and\n      dup2\n      jump\t// out\n        /* \"KindActionTokens.sol\":1773:2312  function recordKindAction(string memory actionType, string memory description) public {... */\n    tag_28:\n        /* \"KindActionTokens.sol\":1869:1889  uint256 rewardAmount */\n      0x00\n        /* \"KindActionTokens.sol\":1892:1919  calculateReward(actionType) */\n      tag_58\n        /* \"KindActionTokens.sol\":1908:1918  actionType */\n      dup4\n        /* \"KindActionTokens.sol\":1892:1907  calculateReward */\n      tag_59\n        /* \"KindActionTokens.sol\":1892:1919  calculateReward(actionType) */\n      jump\t// in\n    tag_58:\n        /* \"KindActionTokens.sol\":1869:1919  uint256 rewardAmount = calculateReward(actionType) */\n      swap1\n      pop\n        /* \"KindActionTokens.sol\":1988:2001  actionHistory */\n      0x05\n        /* \"KindActionTokens.sol\":1988:2013  actionHistory[msg.sender] */\n      0x00\n        /* \"KindActionTokens.sol\":2002:2012  msg.sender */\n      caller\n        /* \"KindActionTokens.sol\":1988:2013  actionHistory[msg.sender] */\n      0xffffffffffffffffffffffffffffffffffffffff\n      and\n      0xffffffffffffffffffffffffffffffffffffffff\n      and\n      dup2\n      mstore\n      0x20\n      add\n      swap1\n      dup2\n      mstore\n      0x20\n      add\n      0x00\n      keccak256\n        /* \"KindActionTokens.sol\":2019:2224  KindAction({... */\n      mload(0x40)\n      dup1\n      0xa0\n      add\n      0x40\n      mstore\n      dup1\n        /* \"KindActionTokens.sol\":2056:2066  actionType */\n      dup6\n        /* \"KindActionTokens.sol\":2019:2224  KindAction({... */\n      dup2\n      mstore\n      0x20\n      add\n        /* \"KindActionTokens.sol\":2093:2104  description */\n      dup5\n        /* \"KindActionTokens.sol\":2019:2224  KindAction({... */\n      dup2\n      mstore\n      0x20\n      add\n        /* \"KindActionTokens.sol\":2129:2144  block.timestamp */\n      timestamp\n        /* \"KindActionTokens.sol\":2019:2224  KindAction({... */\n      dup2\n      mstore\n      0x20\n      add\n        /* \"KindActionTokens.sol\":2172:2184  rewardAmount */\n      dup4\n        /* \"KindActionTokens.sol\":2019:2224  KindAction({... */\n      dup2\n      mstore\n      0x20\n      add\n        /* \"KindActionTokens.sol\":2208:2213  false */\n      0x00\n        /* \"KindActionTokens.sol\":2019:2224  KindAction({... */\n      iszero\n      iszero\n      dup2\n      mstore\n      pop\n        /* \"KindActionTokens.sol\":1988:2225  actionHistory[msg.sender].push(KindAction({... */\n      swap1\n      dup1\n      0x01\n      dup2\n      sload\n      add\n      dup1\n      dup3\n      sstore\n      dup1\n      swap2\n      pop\n      pop\n      0x01\n      swap1\n      sub\n      swap1\n      0x00\n      mstore\n      keccak256(0x00, 0x20)\n      swap1\n      0x05\n      mul\n      add\n      0x00\n      swap1\n      swap2\n      swap1\n      swap2\n      swap1\n      swap2\n      pop\n      0x00\n      dup3\n      add\n      mload\n      dup2\n      0x00\n      add\n      swap1\n      dup2\n      tag_61\n      swap2\n      swap1\n      tag_62\n      jump\t// in\n    tag_61:\n      pop\n      0x20\n      dup3\n      add\n      mload\n      dup2\n      0x01\n      add\n      swap1\n      dup2\n      tag_63\n      swap2\n      swap1\n      tag_62\n      jump\t// in\n    tag_63:\n      pop\n      0x40\n      dup3\n      add\n      mload\n      dup2\n      0x02\n      add\n      sstore\n      0x60\n      dup3\n      add\n      mload\n      dup2\n      0x03\n      add\n      sstore\n      0x80\n      dup3\n      add\n      mload\n      dup2\n      0x04\n      add\n      exp(0x0100, 0x00)\n      dup2\n      sload\n      dup2\n      0xff\n      mul\n      not\n      and\n      swap1\n      dup4\n      iszero\n      iszero\n      mul\n      or\n      swap1\n      sstore\n      pop\n      pop\n      pop\n        /* \"KindActionTokens.sol\":2268:2278  msg.sender */\n      caller\n        /* \"KindActionTokens.sol\":2249:2305  KindActionRecorded(msg.sender, actionType, rewardAmount) */\n      0xffffffffffffffffffffffffffffffffffffffff\n      and\n      0xec60f378e594ab387014e93657dd4c33e07e57559bd328eb98d7ea7512d62dd5\n        /* \"KindActionTokens.sol\":2280:2290  actionType */\n      dup5\n        /* \"KindActionTokens.sol\":2292:2304  rewardAmount */\n      dup4\n        /* \"KindActionTokens.sol\":2249:2305  KindActionRecorded(msg.sender, actionType, rewardAmount) */\n      mload(0x40)\n      tag_64\n      swap3\n      swap2\n      swap1\n      tag_65\n      jump\t// in\n    tag_64:\n      mload(0x40)\n      dup1\n      swap2\n      sub\n      swap1\n      log2\n        /* \"KindActionTokens.sol\":1859:2312  {... */\n      pop\n        /* \"KindActionTokens.sol\":1773:2312  function recordKindAction(string memory actionType, string memory description) public {... */\n      pop\n      pop\n      jump\t// out\n        /* \"KindActionTokens.sol\":2379:2983  function verifyAction(address user, uint256 actionIndex) public {... */\n    tag_32:\n        /* \"KindActionTokens.sol\":2475:2488  actionHistory */\n      0x05\n        /* \"KindActionTokens.sol\":2475:2494  actionHistory[user] */\n      0x00\n        /* \"KindActionTokens.sol\":2489:2493  user */\n      dup4\n        /* \"KindActionTokens.sol\":2475:2494  actionHistory[user] */\n      0xffffffffffffffffffffffffffffffffffffffff\n      and\n      0xffffffffffffffffffffffffffffffffffffffff\n      and\n      dup2\n      mstore\n      0x20\n      add\n      swap1\n      dup2\n      mstore\n      0x20\n      add\n      0x00\n      keccak256\n        /* \"KindActionTokens.sol\":2475:2501  actionHistory[user].length */\n      dup1\n      sload\n      swap1\n      pop\n        /* \"KindActionTokens.sol\":2461:2472  actionIndex */\n      dup2\n        /* \"KindActionTokens.sol\":2461:2501  actionIndex < actionHistory[user].length */\n      lt\n        /* \"KindActionTokens.sol\":2453:2526  require(actionIndex < actionHistory[user].length, \"Invalid action index\") */\n      tag_67\n      jumpi\n      mload(0x40)\n      0x08c379a000000000000000000000000000000000000000000000000000000000\n      dup2\n      mstore\n      0x04\n      add\n      tag_68\n      swap1\n      tag_69\n      jump\t// in\n    tag_68:\n      mload(0x40)\n      dup1\n      swap2\n      sub\n      swap1\n      revert\n    tag_67:\n        /* \"KindActionTokens.sol\":2545:2558  actionHistory */\n      0x05\n        /* \"KindActionTokens.sol\":2545:2564  actionHistory[user] */\n      0x00\n        /* \"KindActionTokens.sol\":2559:2563  user */\n      dup4\n        /* \"KindActionTokens.sol\":2545:2564  actionHistory[user] */\n      0xffffffffffffffffffffffffffffffffffffffff\n      and\n      0xffffffffffffffffffffffffffffffffffffffff\n      and\n      dup2\n      mstore\n      0x20\n      add\n      swap1\n      dup2\n      mstore\n      0x20\n      add\n      0x00\n      keccak256\n        /* \"KindActionTokens.sol\":2565:2576  actionIndex */\n      dup2\n        /* \"KindActionTokens.sol\":2545:2577  actionHistory[user][actionIndex] */\n      dup2\n      sload\n      dup2\n      lt\n      tag_70\n      jumpi\n      tag_71\n      tag_72\n      jump\t// in\n    tag_71:\n    tag_70:\n      swap1\n      0x00\n      mstore\n      keccak256(0x00, 0x20)\n      swap1\n      0x05\n      mul\n      add\n        /* \"KindActionTokens.sol\":2545:2586  actionHistory[user][actionIndex].verified */\n      0x04\n      add\n      0x00\n      swap1\n      sload\n      swap1\n      0x0100\n      exp\n      swap1\n      div\n      0xff\n      and\n        /* \"KindActionTokens.sol\":2544:2586  !actionHistory[user][actionIndex].verified */\n      iszero\n        /* \"KindActionTokens.sol\":2536:2607  require(!actionHistory[user][actionIndex].verified, \"Already verified\") */\n      tag_74\n      jumpi\n      mload(0x40)\n      0x08c379a000000000000000000000000000000000000000000000000000000000\n      dup2\n      mstore\n      0x04\n      add\n      tag_75\n      swap1\n      tag_76\n      jump\t// in\n    tag_75:\n      mload(0x40)\n      dup1\n      swap2\n      sub\n      swap1\n      revert\n    tag_74:\n        /* \"KindActionTokens.sol\":2670:2674  true */\n      0x01\n        /* \"KindActionTokens.sol\":2626:2639  actionHistory */\n      0x05\n        /* \"KindActionTokens.sol\":2626:2645  actionHistory[user] */\n      0x00\n        /* \"KindActionTokens.sol\":2640:2644  user */\n      dup5\n        /* \"KindActionTokens.sol\":2626:2645  actionHistory[user] */\n      0xffffffffffffffffffffffffffffffffffffffff\n      and\n      0xffffffffffffffffffffffffffffffffffffffff\n      and\n      dup2\n      mstore\n      0x20\n      add\n      swap1\n      dup2\n      mstore\n      0x20\n      add\n      0x00\n      keccak256\n        /* \"KindActionTokens.sol\":2646:2657  actionIndex */\n      dup3\n        /* \"KindActionTokens.sol\":2626:2658  actionHistory[user][actionIndex] */\n      dup2\n      sload\n      dup2\n      lt\n      tag_77\n      jumpi\n      tag_78\n      tag_72\n      jump\t// in\n    tag_78:\n    tag_77:\n      swap1\n      0x00\n      mstore\n      keccak256(0x00, 0x20)\n      swap1\n      0x05\n      mul\n      add\n        /* \"KindActionTokens.sol\":2626:2667  actionHistory[user][actionIndex].verified */\n      0x04\n      add\n      0x00\n        /* \"KindActionTokens.sol\":2626:2674  actionHistory[user][actionIndex].verified = true */\n      0x0100\n      exp\n      dup2\n      sload\n      dup2\n      0xff\n      mul\n      not\n      and\n      swap1\n      dup4\n      iszero\n      iszero\n      mul\n      or\n      swap1\n      sstore\n      pop\n        /* \"KindActionTokens.sol\":2684:2704  uint256 rewardAmount */\n      0x00\n        /* \"KindActionTokens.sol\":2707:2720  actionHistory */\n      0x05\n        /* \"KindActionTokens.sol\":2707:2726  actionHistory[user] */\n      0x00\n        /* \"KindActionTokens.sol\":2721:2725  user */\n      dup5\n        /* \"KindActionTokens.sol\":2707:2726  actionHistory[user] */\n      0xffffffffffffffffffffffffffffffffffffffff\n      and\n      0xffffffffffffffffffffffffffffffffffffffff\n      and\n      dup2\n      mstore\n      0x20\n      add\n      swap1\n      dup2\n      mstore\n      0x20\n      add\n      0x00\n      keccak256\n        /* \"KindActionTokens.sol\":2727:2738  actionIndex */\n      dup3\n        /* \"KindActionTokens.sol\":2707:2739  actionHistory[user][actionIndex] */\n      dup2\n      sload\n      dup2\n      lt\n      tag_80\n      jumpi\n      tag_81\n      tag_72\n      jump\t// in\n    tag_81:\n    tag_80:\n      swap1\n      0x00\n      mstore\n      keccak256(0x00, 0x20)\n      swap1\n      0x05\n      mul\n      add\n        /* \"KindActionTokens.sol\":2707:2752  actionHistory[user][actionIndex].rewardAmount */\n      0x03\n      add\n      sload\n        /* \"KindActionTokens.sol\":2684:2752  uint256 rewardAmount = actionHistory[user][actionIndex].rewardAmount */\n      swap1\n      pop\n        /* \"KindActionTokens.sol\":2811:2823  rewardAmount */\n      dup1\n        /* \"KindActionTokens.sol\":2796:2807  totalSupply */\n      0x03\n      0x00\n        /* \"KindActionTokens.sol\":2796:2823  totalSupply += rewardAmount */\n      dup3\n      dup3\n      sload\n      tag_83\n      swap2\n      swap1\n      tag_84\n      jump\t// in\n    tag_83:\n      swap3\n      pop\n      pop\n      dup2\n      swap1\n      sstore\n      pop\n        /* \"KindActionTokens.sol\":2852:2864  rewardAmount */\n      dup1\n        /* \"KindActionTokens.sol\":2833:2842  balanceOf */\n      0x04\n        /* \"KindActionTokens.sol\":2833:2848  balanceOf[user] */\n      0x00\n        /* \"KindActionTokens.sol\":2843:2847  user */\n      dup6\n        /* \"KindActionTokens.sol\":2833:2848  balanceOf[user] */\n      0xffffffffffffffffffffffffffffffffffffffff\n      and\n      0xffffffffffffffffffffffffffffffffffffffff\n      and\n      dup2\n      mstore\n      0x20\n      add\n      swap1\n      dup2\n      mstore\n      0x20\n      add\n      0x00\n      keccak256\n      0x00\n        /* \"KindActionTokens.sol\":2833:2864  balanceOf[user] += rewardAmount */\n      dup3\n      dup3\n      sload\n      tag_85\n      swap2\n      swap1\n      tag_84\n      jump\t// in\n    tag_85:\n      swap3\n      pop\n      pop\n      dup2\n      swap1\n      sstore\n      pop\n        /* \"KindActionTokens.sol\":2903:2907  user */\n      dup3\n        /* \"KindActionTokens.sol\":2888:2921  ActionVerified(user, actionIndex) */\n      0xffffffffffffffffffffffffffffffffffffffff\n      and\n      0x5f7c0c60141850279fd3b9f56a8c0fd092131cdecccfb50ea088e9a763d01ec9\n        /* \"KindActionTokens.sol\":2909:2920  actionIndex */\n      dup4\n        /* \"KindActionTokens.sol\":2888:2921  ActionVerified(user, actionIndex) */\n      mload(0x40)\n      tag_86\n      swap2\n      swap1\n      tag_20\n      jump\t// in\n    tag_86:\n      mload(0x40)\n      dup1\n      swap2\n      sub\n      swap1\n      log2\n        /* \"KindActionTokens.sol\":2957:2961  user */\n      dup3\n        /* \"KindActionTokens.sol\":2936:2976  Transfer(address(0), user, rewardAmount) */\n      0xffffffffffffffffffffffffffffffffffffffff\n      and\n        /* \"KindActionTokens.sol\":2953:2954  0 */\n      0x00\n        /* \"KindActionTokens.sol\":2936:2976  Transfer(address(0), user, rewardAmount) */\n      0xffffffffffffffffffffffffffffffffffffffff\n      and\n      0xddf252ad1be2c89b69c2b068fc378daa952ba7f163c4a11628f55a4df523b3ef\n        /* \"KindActionTokens.sol\":2963:2975  rewardAmount */\n      dup4\n        /* \"KindActionTokens.sol\":2936:2976  Transfer(address(0), user, rewardAmount) */\n      mload(0x40)\n      tag_87\n      swap2\n      swap1\n      tag_20\n      jump\t// in\n    tag_87:\n      mload(0x40)\n      dup1\n      swap2\n      sub\n      swap1\n      log3\n        /* \"KindActionTokens.sol\":2443:2983  {... */\n      pop\n        /* \"KindActionTokens.sol\":2379:2983  function verifyAction(address user, uint256 actionIndex) public {... */\n      pop\n      pop\n      jump\t// out\n        /* \"KindActionTokens.sol\":394:438  mapping(address => uint256) public balanceOf */\n    tag_36:\n      mstore(0x20, 0x04)\n      dup1\n      0x00\n      mstore\n      keccak256(0x00, 0x40)\n      0x00\n      swap2\n      pop\n      swap1\n      pop\n      sload\n      dup2\n      jump\t// out\n        /* \"KindActionTokens.sol\":805:858  mapping(address => KindAction[]) public actionHistory */\n    tag_40:\n      mstore(0x20, 0x05)\n      dup2\n      0x00\n      mstore\n      keccak256(0x00, 0x40)\n      dup2\n      dup2\n      sload\n      dup2\n      lt\n      tag_88\n      jumpi\n      0x00\n      dup1\n      revert\n    tag_88:\n      swap1\n      0x00\n      mstore\n      keccak256(0x00, 0x20)\n      swap1\n      0x05\n      mul\n      add\n      0x00\n      swap2\n      pop\n      swap2\n      pop\n      pop\n      dup1\n      0x00\n      add\n      dup1\n      sload\n      tag_90\n      swap1\n      tag_52\n      jump\t// in\n    tag_90:\n      dup1\n      0x1f\n      add\n      0x20\n      dup1\n      swap2\n      div\n      mul\n      0x20\n      add\n      mload(0x40)\n      swap1\n      dup2\n      add\n      0x40\n      mstore\n      dup1\n      swap3\n      swap2\n      swap1\n      dup2\n      dup2\n      mstore\n      0x20\n      add\n      dup3\n      dup1\n      sload\n      tag_91\n      swap1\n      tag_52\n      jump\t// in\n    tag_91:\n      dup1\n      iszero\n      tag_92\n      jumpi\n      dup1\n      0x1f\n      lt\n      tag_93\n      jumpi\n      0x0100\n      dup1\n      dup4\n      sload\n      div\n      mul\n      dup4\n      mstore\n      swap2\n      0x20\n      add\n      swap2\n      jump(tag_92)\n    tag_93:\n      dup3\n      add\n      swap2\n      swap1\n      0x00\n      mstore\n      keccak256(0x00, 0x20)\n      swap1\n    tag_94:\n      dup2\n      sload\n      dup2\n      mstore\n      swap1\n      0x01\n      add\n      swap1\n      0x20\n      add\n      dup1\n      dup4\n      gt\n      tag_94\n      jumpi\n      dup3\n      swap1\n      sub\n      0x1f\n      and\n      dup3\n      add\n      swap2\n    tag_92:\n      pop\n      pop\n      pop\n      pop\n      pop\n      swap1\n      dup1\n      0x01\n      add\n      dup1\n      sload\n      tag_95\n      swap1\n      tag_52\n      jump\t// in\n    tag_95:\n      dup1\n      0x1f\n      add\n      0x20\n      dup1\n      swap2\n      div\n      mul\n      0x20\n      add\n      mload(0x40)\n      swap1\n      dup2\n      add\n      0x40\n      mstore\n      dup1\n      swap3\n      swap2\n      swap1\n      dup2\n      dup2\n      mstore\n      0x20\n      add\n      dup3\n      dup1\n      sload\n      tag_96\n      swap1\n      tag_52\n      jump\t// in\n    tag_96:\n      dup1\n      iszero\n      tag_97\n      jumpi\n      dup1\n      0x1f\n      lt\n      tag_98\n      jumpi\n      0x0100\n      dup1\n      dup4\n      sload\n      div\n      mul\n      dup4\n      mstore\n      swap2\n      0x20\n      add\n      swap2\n      jump(tag_97)\n    tag_98:\n      dup3\n      add\n      swap2\n      swap1\n      0x00\n      mstore\n      keccak256(0x00, 0x20)\n      swap1\n    tag_99:\n      dup2\n      sload\n      dup2\n      mstore\n      swap1\n      0x01\n      add\n      swap1\n      0x20\n      add\n      dup1\n      dup4\n      gt\n      tag_99\n      jumpi\n      dup3\n      swap1\n      sub\n      0x1f\n      and\n      dup3\n      add\n      swap2\n    tag_97:\n      pop\n      pop\n      pop\n      pop\n      pop\n      swap1\n      dup1\n      0x02\n      add\n      sload\n      swap1\n      dup1\n      0x03\n      add\n      sload\n      swap1\n      dup1\n      0x04\n      add\n      0x00\n      swap1\n      sload\n      swap1\n      0x0100\n      exp\n      swap1\n      div\n      0xff\n      and\n      swap1\n      pop\n      dup6\n      jump\t// out\n        /* \"KindActionTokens.sol\":216:236  string public symbol */\n    tag_44:\n      0x01\n      dup1\n      sload\n      tag_100\n      swap1\n      tag_52\n      jump\t// in\n    tag_100:\n      dup1\n      0x1f\n      add\n      0x20\n      dup1\n      swap2\n      div\n      mul\n      0x20\n      add\n      mload(0x40)\n      swap1\n      dup2\n      add\n      0x40\n      mstore\n      dup1\n      swap3\n      swap2\n      swap1\n      dup2\n      dup2\n      mstore\n      0x20\n      add\n      dup3\n      dup1\n      sload\n      tag_101\n      swap1\n      tag_52\n      jump\t// in\n    tag_101:\n      dup1\n      iszero\n      tag_102\n      jumpi\n      dup1\n      0x1f\n      lt\n      tag_103\n      jumpi\n      0x0100\n      dup1\n      dup4\n      sload\n      div\n      mul\n      dup4\n      mstore\n      swap2\n      0x20\n      add\n      swap2\n      jump(tag_102)\n    tag_103:\n      dup3\n      add\n      swap2\n      swap1\n      0x00\n      mstore\n      keccak256(0x00, 0x20)\n      swap1\n    tag_104:\n      dup2\n      sload\n      dup2\n      mstore\n      swap1\n      0x01\n      add\n      swap1\n      0x20\n      add\n      dup1\n      dup4\n      gt\n      tag_104\n      jumpi\n      dup3\n      swap1\n      sub\n      0x1f\n      and\n      dup3\n      add\n      swap2\n    tag_102:\n      pop\n      pop\n      pop\n      pop\n      pop\n      dup2\n      jump\t// out\n        /* \"KindActionTokens.sol\":1357:1728  function transfer(address to, uint256 amount) public virtual returns (bool) {... */\n    tag_48:\n        /* \"KindActionTokens.sol\":1427:1431  bool */\n      0x00\n        /* \"KindActionTokens.sol\":1465:1466  0 */\n      dup1\n        /* \"KindActionTokens.sol\":1451:1467  to != address(0) */\n      0xffffffffffffffffffffffffffffffffffffffff\n      and\n        /* \"KindActionTokens.sol\":1451:1453  to */\n      dup4\n        /* \"KindActionTokens.sol\":1451:1467  to != address(0) */\n      0xffffffffffffffffffffffffffffffffffffffff\n      and\n      sub\n        /* \"KindActionTokens.sol\":1443:1487  require(to != address(0), \"Invalid address\") */\n      tag_106\n      jumpi\n      mload(0x40)\n      0x08c379a000000000000000000000000000000000000000000000000000000000\n      dup2\n      mstore\n      0x04\n      add\n      tag_107\n      swap1\n      tag_108\n      jump\t// in\n    tag_107:\n      mload(0x40)\n      dup1\n      swap2\n      sub\n      swap1\n      revert\n    tag_106:\n        /* \"KindActionTokens.sol\":1530:1536  amount */\n      dup2\n        /* \"KindActionTokens.sol\":1505:1514  balanceOf */\n      0x04\n        /* \"KindActionTokens.sol\":1505:1526  balanceOf[msg.sender] */\n      0x00\n        /* \"KindActionTokens.sol\":1515:1525  msg.sender */\n      caller\n        /* \"KindActionTokens.sol\":1505:1526  balanceOf[msg.sender] */\n      0xffffffffffffffffffffffffffffffffffffffff\n      and\n      0xffffffffffffffffffffffffffffffffffffffff\n      and\n      dup2\n      mstore\n      0x20\n      add\n      swap1\n      dup2\n      mstore\n      0x20\n      add\n      0x00\n      keccak256\n      sload\n        /* \"KindActionTokens.sol\":1505:1536  balanceOf[msg.sender] >= amount */\n      lt\n      iszero\n        /* \"KindActionTokens.sol\":1497:1561  require(balanceOf[msg.sender] >= amount, \"Insufficient balance\") */\n      tag_109\n      jumpi\n      mload(0x40)\n      0x08c379a000000000000000000000000000000000000000000000000000000000\n      dup2\n      mstore\n      0x04\n      add\n      tag_110\n      swap1\n      tag_111\n      jump\t// in\n    tag_110:\n      mload(0x40)\n      dup1\n      swap2\n      sub\n      swap1\n      revert\n    tag_109:\n        /* \"KindActionTokens.sol\":1605:1611  amount */\n      dup2\n        /* \"KindActionTokens.sol\":1580:1589  balanceOf */\n      0x04\n        /* \"KindActionTokens.sol\":1580:1601  balanceOf[msg.sender] */\n      0x00\n        /* \"KindActionTokens.sol\":1590:1600  msg.sender */\n      caller\n        /* \"KindActionTokens.sol\":1580:1601  balanceOf[msg.sender] */\n      0xffffffffffffffffffffffffffffffffffffffff\n      and\n      0xffffffffffffffffffffffffffffffffffffffff\n      and\n      dup2\n      mstore\n      0x20\n      add\n      swap1\n      dup2\n      mstore\n      0x20\n      add\n      0x00\n      keccak256\n      0x00\n        /* \"KindActionTokens.sol\":1580:1611  balanceOf[msg.sender] -= amount */\n      dup3\n      dup3\n      sload\n      tag_112\n      swap2\n      swap1\n      tag_113\n      jump\t// in\n    tag_112:\n      swap3\n      pop\n      pop\n      dup2\n      swap1\n      sstore\n      pop\n        /* \"KindActionTokens.sol\":1638:1644  amount */\n      dup2\n        /* \"KindActionTokens.sol\":1621:1630  balanceOf */\n      0x04\n        /* \"KindActionTokens.sol\":1621:1634  balanceOf[to] */\n      0x00\n        /* \"KindActionTokens.sol\":1631:1633  to */\n      dup6\n        /* \"KindActionTokens.sol\":1621:1634  balanceOf[to] */\n      0xffffffffffffffffffffffffffffffffffffffff\n      and\n      0xffffffffffffffffffffffffffffffffffffffff\n      and\n      dup2\n      mstore\n      0x20\n      add\n      swap1\n      dup2\n      mstore\n      0x20\n      add\n      0x00\n      keccak256\n      0x00\n        /* \"KindActionTokens.sol\":1621:1644  balanceOf[to] += amount */\n      dup3\n      dup3\n      sload\n      tag_114\n      swap2\n      swap1\n      tag_84\n      jump\t// in\n    tag_114:\n      swap3\n      pop\n      pop\n      dup2\n      swap1\n      sstore\n      pop\n        /* \"KindActionTokens.sol\":1689:1691  to */\n      dup3\n        /* \"KindActionTokens.sol\":1668:1700  Transfer(msg.sender, to, amount) */\n      0xffffffffffffffffffffffffffffffffffffffff\n      and\n        /* \"KindActionTokens.sol\":1677:1687  msg.sender */\n      caller\n        /* \"KindActionTokens.sol\":1668:1700  Transfer(msg.sender, to, amount) */\n      0xffffffffffffffffffffffffffffffffffffffff\n      and\n      0xddf252ad1be2c89b69c2b068fc378daa952ba7f163c4a11628f55a4df523b3ef\n        /* \"KindActionTokens.sol\":1693:1699  amount */\n      dup5\n        /* \"KindActionTokens.sol\":1668:1700  Transfer(msg.sender, to, amount) */\n      mload(0x40)\n      tag_115\n      swap2\n      swap1\n      tag_20\n      jump\t// in\n    tag_115:\n      mload(0x40)\n      dup1\n      swap2\n      sub\n      swap1\n      log3\n        /* \"KindActionTokens.sol\":1717:1721  true */\n      0x01\n        /* \"KindActionTokens.sol\":1710:1721  return true */\n      swap1\n      pop\n        /* \"KindActionTokens.sol\":1357:1728  function transfer(address to, uint256 amount) public virtual returns (bool) {... */\n      swap3\n      swap2\n      pop\n      pop\n      jump\t// out\n        /* \"KindActionTokens.sol\":3323:4038  function calculateReward(string memory actionType) internal pure override returns (uint256) {... */\n    tag_59:\n        /* \"KindActionTokens.sol\":3406:3413  uint256 */\n      0x00\n        /* \"KindActionTokens.sol\":3481:3499  bytes32 actionHash */\n      dup1\n        /* \"KindActionTokens.sol\":3529:3539  actionType */\n      dup3\n        /* \"KindActionTokens.sol\":3512:3540  abi.encodePacked(actionType) */\n      add(0x20, mload(0x40))\n      tag_117\n      swap2\n      swap1\n      tag_118\n      jump\t// in\n    tag_117:\n      mload(0x40)\n      0x20\n      dup2\n      dup4\n      sub\n      sub\n      dup2\n      mstore\n      swap1\n      0x40\n      mstore\n        /* \"KindActionTokens.sol\":3502:3541  keccak256(abi.encodePacked(actionType)) */\n      dup1\n      mload\n      swap1\n      0x20\n      add\n      keccak256\n        /* \"KindActionTokens.sol\":3481:3541  bytes32 actionHash = keccak256(abi.encodePacked(actionType)) */\n      swap1\n      pop\n        /* \"KindActionTokens.sol\":3588:3617  abi.encodePacked(\"recycling\") */\n      add(0x20, mload(0x40))\n      tag_119\n      swap1\n      tag_120\n      jump\t// in\n    tag_119:\n      mload(0x40)\n      0x20\n      dup2\n      dup4\n      sub\n      sub\n      dup2\n      mstore\n      swap1\n      0x40\n      mstore\n        /* \"KindActionTokens.sol\":3578:3618  keccak256(abi.encodePacked(\"recycling\")) */\n      dup1\n      mload\n      swap1\n      0x20\n      add\n      keccak256\n        /* \"KindActionTokens.sol\":3564:3574  actionHash */\n      dup2\n        /* \"KindActionTokens.sol\":3564:3618  actionHash == keccak256(abi.encodePacked(\"recycling\")) */\n      sub\n        /* \"KindActionTokens.sol\":3560:3971  if (actionHash == keccak256(abi.encodePacked(\"recycling\"))) {... */\n      tag_121\n      jumpi\n        /* \"KindActionTokens.sol\":3641:3652  10 * 10**18 */\n      0x8ac7230489e80000\n        /* \"KindActionTokens.sol\":3634:3652  return 10 * 10**18 */\n      swap2\n      pop\n      pop\n      jump(tag_116)\n        /* \"KindActionTokens.sol\":3560:3971  if (actionHash == keccak256(abi.encodePacked(\"recycling\"))) {... */\n    tag_121:\n        /* \"KindActionTokens.sol\":3726:3759  abi.encodePacked(\"energy_saving\") */\n      add(0x20, mload(0x40))\n      tag_123\n      swap1\n      tag_124\n      jump\t// in\n    tag_123:\n      mload(0x40)\n      0x20\n      dup2\n      dup4\n      sub\n      sub\n      dup2\n      mstore\n      swap1\n      0x40\n      mstore\n        /* \"KindActionTokens.sol\":3716:3760  keccak256(abi.encodePacked(\"energy_saving\")) */\n      dup1\n      mload\n      swap1\n      0x20\n      add\n      keccak256\n        /* \"KindActionTokens.sol\":3702:3712  actionHash */\n      dup2\n        /* \"KindActionTokens.sol\":3702:3760  actionHash == keccak256(abi.encodePacked(\"energy_saving\")) */\n      sub\n        /* \"KindActionTokens.sol\":3698:3971  if (actionHash == keccak256(abi.encodePacked(\"energy_saving\"))) {... */\n      tag_125\n      jumpi\n        /* \"KindActionTokens.sol\":3783:3794  20 * 10**18 */\n      0x01158e460913d00000\n        /* \"KindActionTokens.sol\":3776:3794  return 20 * 10**18 */\n      swap2\n      pop\n      pop\n      jump(tag_116)\n        /* \"KindActionTokens.sol\":3698:3971  if (actionHash == keccak256(abi.encodePacked(\"energy_saving\"))) {... */\n    tag_125:\n        /* \"KindActionTokens.sol\":3868:3899  abi.encodePacked(\"animal_care\") */\n      add(0x20, mload(0x40))\n      tag_127\n      swap1\n      tag_128\n      jump\t// in\n    tag_127:\n      mload(0x40)\n      0x20\n      dup2\n      dup4\n      sub\n      sub\n      dup2\n      mstore\n      swap1\n      0x40\n      mstore\n        /* \"KindActionTokens.sol\":3858:3900  keccak256(abi.encodePacked(\"animal_care\")) */\n      dup1\n      mload\n      swap1\n      0x20\n      add\n      keccak256\n        /* \"KindActionTokens.sol\":3844:3854  actionHash */\n      dup2\n        /* \"KindActionTokens.sol\":3844:3900  actionHash == keccak256(abi.encodePacked(\"animal_care\")) */\n      sub\n        /* \"KindActionTokens.sol\":3840:3971  if (actionHash == keccak256(abi.encodePacked(\"animal_care\"))) {... */\n      tag_129\n      jumpi\n        /* \"KindActionTokens.sol\":3923:3934  30 * 10**18 */\n      0x01a055690d9db80000\n        /* \"KindActionTokens.sol\":3916:3934  return 30 * 10**18 */\n      swap2\n      pop\n      pop\n      jump(tag_116)\n        /* \"KindActionTokens.sol\":3840:3971  if (actionHash == keccak256(abi.encodePacked(\"animal_care\"))) {... */\n    tag_129:\n        /* \"KindActionTokens.sol\":3996:4006  5 * 10**18 */\n      0x4563918244f40000\n        /* \"KindActionTokens.sol\":3989:4006  return 5 * 10**18 */\n      swap2\n      pop\n      pop\n        /* \"KindActionTokens.sol\":3323:4038  function calculateReward(string memory actionType) internal pure override returns (uint256) {... */\n    tag_116:\n      swap2\n      swap1\n      pop\n      jump\t// out\n        /* \"#utility.yul\":7:106   */\n    tag_130:\n        /* \"#utility.yul\":59:65   */\n      0x00\n        /* \"#utility.yul\":93:98   */\n      dup2\n        /* \"#utility.yul\":87:99   */\n      mload\n        /* \"#utility.yul\":77:99   */\n      swap1\n      pop\n        /* \"#utility.yul\":7:106   */\n      swap2\n      swap1\n      pop\n      jump\t// out\n        /* \"#utility.yul\":112:281   */\n    tag_131:\n        /* \"#utility.yul\":196:207   */\n      0x00\n        /* \"#utility.yul\":230:236   */\n      dup3\n        /* \"#utility.yul\":225:228   */\n      dup3\n        /* \"#utility.yul\":218:237   */\n      mstore\n        /* \"#utility.yul\":270:274   */\n      0x20\n        /* \"#utility.yul\":265:268   */\n      dup3\n        /* \"#utility.yul\":261:275   */\n      add\n        /* \"#utility.yul\":246:275   */\n      swap1\n      pop\n        /* \"#utility.yul\":112:281   */\n      swap3\n      swap2\n      pop\n      pop\n      jump\t// out\n        /* \"#utility.yul\":287:426   */\n    tag_132:\n        /* \"#utility.yul\":376:382   */\n      dup3\n        /* \"#utility.yul\":371:374   */\n      dup2\n        /* \"#utility.yul\":366:369   */\n      dup4\n        /* \"#utility.yul\":360:383   */\n      mcopy\n        /* \"#utility.yul\":417:418   */\n      0x00\n        /* \"#utility.yul\":408:414   */\n      dup4\n        /* \"#utility.yul\":403:406   */\n      dup4\n        /* \"#utility.yul\":399:415   */\n      add\n        /* \"#utility.yul\":392:419   */\n      mstore\n        /* \"#utility.yul\":287:426   */\n      pop\n      pop\n      pop\n      jump\t// out\n        /* \"#utility.yul\":432:534   */\n    tag_133:\n        /* \"#utility.yul\":473:479   */\n      0x00\n        /* \"#utility.yul\":524:526   */\n      0x1f\n        /* \"#utility.yul\":520:527   */\n      not\n        /* \"#utility.yul\":515:517   */\n      0x1f\n        /* \"#utility.yul\":508:513   */\n      dup4\n        /* \"#utility.yul\":504:518   */\n      add\n        /* \"#utility.yul\":500:528   */\n      and\n        /* \"#utility.yul\":490:528   */\n      swap1\n      pop\n        /* \"#utility.yul\":432:534   */\n      swap2\n      swap1\n      pop\n      jump\t// out\n        /* \"#utility.yul\":540:917   */\n    tag_134:\n        /* \"#utility.yul\":628:631   */\n      0x00\n        /* \"#utility.yul\":656:695   */\n      tag_198\n        /* \"#utility.yul\":689:694   */\n      dup3\n        /* \"#utility.yul\":656:695   */\n      tag_130\n      jump\t// in\n    tag_198:\n        /* \"#utility.yul\":711:782   */\n      tag_199\n        /* \"#utility.yul\":775:781   */\n      dup2\n        /* \"#utility.yul\":770:773   */\n      dup6\n        /* \"#utility.yul\":711:782   */\n      tag_131\n      jump\t// in\n    tag_199:\n        /* \"#utility.yul\":704:782   */\n      swap4\n      pop\n        /* \"#utility.yul\":791:856   */\n      tag_200\n        /* \"#utility.yul\":849:855   */\n      dup2\n        /* \"#utility.yul\":844:847   */\n      dup6\n        /* \"#utility.yul\":837:841   */\n      0x20\n        /* \"#utility.yul\":830:835   */\n      dup7\n        /* \"#utility.yul\":826:842   */\n      add\n        /* \"#utility.yul\":791:856   */\n      tag_132\n      jump\t// in\n    tag_200:\n        /* \"#utility.yul\":881:910   */\n      tag_201\n        /* \"#utility.yul\":903:909   */\n      dup2\n        /* \"#utility.yul\":881:910   */\n      tag_133\n      jump\t// in\n    tag_201:\n        /* \"#utility.yul\":876:879   */\n      dup5\n        /* \"#utility.yul\":872:911   */\n      add\n        /* \"#utility.yul\":865:911   */\n      swap2\n      pop\n        /* \"#utility.yul\":632:917   */\n      pop\n        /* \"#utility.yul\":540:917   */\n      swap3\n      swap2\n      pop\n      pop\n      jump\t// out\n        /* \"#utility.yul\":923:1236   */\n    tag_16:\n        /* \"#utility.yul\":1036:1040   */\n      0x00\n        /* \"#utility.yul\":1074:1076   */\n      0x20\n        /* \"#utility.yul\":1063:1072   */\n      dup3\n        /* \"#utility.yul\":1059:1077   */\n      add\n        /* \"#utility.yul\":1051:1077   */\n      swap1\n      pop\n        /* \"#utility.yul\":1123:1132   */\n      dup2\n        /* \"#utility.yul\":1117:1121   */\n      dup2\n        /* \"#utility.yul\":1113:1133   */\n      sub\n        /* \"#utility.yul\":1109:1110   */\n      0x00\n        /* \"#utility.yul\":1098:1107   */\n      dup4\n        /* \"#utility.yul\":1094:1111   */\n      add\n        /* \"#utility.yul\":1087:1134   */\n      mstore\n        /* \"#utility.yul\":1151:1229   */\n      tag_203\n        /* \"#utility.yul\":1224:1228   */\n      dup2\n        /* \"#utility.yul\":1215:1221   */\n      dup5\n        /* \"#utility.yul\":1151:1229   */\n      tag_134\n      jump\t// in\n    tag_203:\n        /* \"#utility.yul\":1143:1229   */\n      swap1\n      pop\n        /* \"#utility.yul\":923:1236   */\n      swap3\n      swap2\n      pop\n      pop\n      jump\t// out\n        /* \"#utility.yul\":1242:1319   */\n    tag_135:\n        /* \"#utility.yul\":1279:1286   */\n      0x00\n        /* \"#utility.yul\":1308:1313   */\n      dup2\n        /* \"#utility.yul\":1297:1313   */\n      swap1\n      pop\n        /* \"#utility.yul\":1242:1319   */\n      swap2\n      swap1\n      pop\n      jump\t// out\n        /* \"#utility.yul\":1325:1443   */\n    tag_136:\n        /* \"#utility.yul\":1412:1436   */\n      tag_206\n        /* \"#utility.yul\":1430:1435   */\n      dup2\n        /* \"#utility.yul\":1412:1436   */\n      tag_135\n      jump\t// in\n    tag_206:\n        /* \"#utility.yul\":1407:1410   */\n      dup3\n        /* \"#utility.yul\":1400:1437   */\n      mstore\n        /* \"#utility.yul\":1325:1443   */\n      pop\n      pop\n      jump\t// out\n        /* \"#utility.yul\":1449:1671   */\n    tag_20:\n        /* \"#utility.yul\":1542:1546   */\n      0x00\n        /* \"#utility.yul\":1580:1582   */\n      0x20\n        /* \"#utility.yul\":1569:1578   */\n      dup3\n        /* \"#utility.yul\":1565:1583   */\n      add\n        /* \"#utility.yul\":1557:1583   */\n      swap1\n      pop\n        /* \"#utility.yul\":1593:1664   */\n      tag_208\n        /* \"#utility.yul\":1661:1662   */\n      0x00\n        /* \"#utility.yul\":1650:1659   */\n      dup4\n        /* \"#utility.yul\":1646:1663   */\n      add\n        /* \"#utility.yul\":1637:1643   */\n      dup5\n        /* \"#utility.yul\":1593:1664   */\n      tag_136\n      jump\t// in\n    tag_208:\n        /* \"#utility.yul\":1449:1671   */\n      swap3\n      swap2\n      pop\n      pop\n      jump\t// out\n        /* \"#utility.yul\":1677:1763   */\n    tag_137:\n        /* \"#utility.yul\":1712:1719   */\n      0x00\n        /* \"#utility.yul\":1752:1756   */\n      0xff\n        /* \"#utility.yul\":1745:1750   */\n      dup3\n        /* \"#utility.yul\":1741:1757   */\n      and\n        /* \"#utility.yul\":1730:1757   */\n      swap1\n      pop\n        /* \"#utility.yul\":1677:1763   */\n      swap2\n      swap1\n      pop\n      jump\t// out\n        /* \"#utility.yul\":1769:1881   */\n    tag_138:\n        /* \"#utility.yul\":1852:1874   */\n      tag_211\n        /* \"#utility.yul\":1868:1873   */\n      dup2\n        /* \"#utility.yul\":1852:1874   */\n      tag_137\n      jump\t// in\n    tag_211:\n        /* \"#utility.yul\":1847:1850   */\n      dup3\n        /* \"#utility.yul\":1840:1875   */\n      mstore\n        /* \"#utility.yul\":1769:1881   */\n      pop\n      pop\n      jump\t// out\n        /* \"#utility.yul\":1887:2101   */\n    tag_24:\n        /* \"#utility.yul\":1976:1980   */\n      0x00\n        /* \"#utility.yul\":2014:2016   */\n      0x20\n        /* \"#utility.yul\":2003:2012   */\n      dup3\n        /* \"#utility.yul\":1999:2017   */\n      add\n        /* \"#utility.yul\":1991:2017   */\n      swap1\n      pop\n        /* \"#utility.yul\":2027:2094   */\n      tag_213\n        /* \"#utility.yul\":2091:2092   */\n      0x00\n        /* \"#utility.yul\":2080:2089   */\n      dup4\n        /* \"#utility.yul\":2076:2093   */\n      add\n        /* \"#utility.yul\":2067:2073   */\n      dup5\n        /* \"#utility.yul\":2027:2094   */\n      tag_138\n      jump\t// in\n    tag_213:\n        /* \"#utility.yul\":1887:2101   */\n      swap3\n      swap2\n      pop\n      pop\n      jump\t// out\n        /* \"#utility.yul\":2107:2182   */\n    tag_139:\n        /* \"#utility.yul\":2140:2146   */\n      0x00\n        /* \"#utility.yul\":2173:2175   */\n      0x40\n        /* \"#utility.yul\":2167:2176   */\n      mload\n        /* \"#utility.yul\":2157:2176   */\n      swap1\n      pop\n        /* \"#utility.yul\":2107:2182   */\n      swap1\n      jump\t// out\n        /* \"#utility.yul\":2188:2305   */\n    tag_140:\n        /* \"#utility.yul\":2297:2298   */\n      0x00\n        /* \"#utility.yul\":2294:2295   */\n      dup1\n        /* \"#utility.yul\":2287:2299   */\n      revert\n        /* \"#utility.yul\":2311:2428   */\n    tag_141:\n        /* \"#utility.yul\":2420:2421   */\n      0x00\n        /* \"#utility.yul\":2417:2418   */\n      dup1\n        /* \"#utility.yul\":2410:2422   */\n      revert\n        /* \"#utility.yul\":2434:2551   */\n    tag_142:\n        /* \"#utility.yul\":2543:2544   */\n      0x00\n        /* \"#utility.yul\":2540:2541   */\n      dup1\n        /* \"#utility.yul\":2533:2545   */\n      revert\n        /* \"#utility.yul\":2557:2674   */\n    tag_143:\n        /* \"#utility.yul\":2666:2667   */\n      0x00\n        /* \"#utility.yul\":2663:2664   */\n      dup1\n        /* \"#utility.yul\":2656:2668   */\n      revert\n        /* \"#utility.yul\":2680:2860   */\n    tag_144:\n        /* \"#utility.yul\":2728:2805   */\n      0x4e487b7100000000000000000000000000000000000000000000000000000000\n        /* \"#utility.yul\":2725:2726   */\n      0x00\n        /* \"#utility.yul\":2718:2806   */\n      mstore\n        /* \"#utility.yul\":2825:2829   */\n      0x41\n        /* \"#utility.yul\":2822:2823   */\n      0x04\n        /* \"#utility.yul\":2815:2830   */\n      mstore\n        /* \"#utility.yul\":2849:2853   */\n      0x24\n        /* \"#utility.yul\":2846:2847   */\n      0x00\n        /* \"#utility.yul\":2839:2854   */\n      revert\n        /* \"#utility.yul\":2866:3147   */\n    tag_145:\n        /* \"#utility.yul\":2949:2976   */\n      tag_221\n        /* \"#utility.yul\":2971:2975   */\n      dup3\n        /* \"#utility.yul\":2949:2976   */\n      tag_133\n      jump\t// in\n    tag_221:\n        /* \"#utility.yul\":2941:2947   */\n      dup2\n        /* \"#utility.yul\":2937:2977   */\n      add\n        /* \"#utility.yul\":3079:3085   */\n      dup2\n        /* \"#utility.yul\":3067:3077   */\n      dup2\n        /* \"#utility.yul\":3064:3086   */\n      lt\n        /* \"#utility.yul\":3043:3061   */\n      0xffffffffffffffff\n        /* \"#utility.yul\":3031:3041   */\n      dup3\n        /* \"#utility.yul\":3028:3062   */\n      gt\n        /* \"#utility.yul\":3025:3087   */\n      or\n        /* \"#utility.yul\":3022:3110   */\n      iszero\n      tag_222\n      jumpi\n        /* \"#utility.yul\":3090:3108   */\n      tag_223\n      tag_144\n      jump\t// in\n    tag_223:\n        /* \"#utility.yul\":3022:3110   */\n    tag_222:\n        /* \"#utility.yul\":3130:3140   */\n      dup1\n        /* \"#utility.yul\":3126:3128   */\n      0x40\n        /* \"#utility.yul\":3119:3141   */\n      mstore\n        /* \"#utility.yul\":2909:3147   */\n      pop\n        /* \"#utility.yul\":2866:3147   */\n      pop\n      pop\n      jump\t// out\n        /* \"#utility.yul\":3153:3282   */\n    tag_146:\n        /* \"#utility.yul\":3187:3193   */\n      0x00\n        /* \"#utility.yul\":3214:3234   */\n      tag_225\n      tag_139\n      jump\t// in\n    tag_225:\n        /* \"#utility.yul\":3204:3234   */\n      swap1\n      pop\n        /* \"#utility.yul\":3243:3276   */\n      tag_226\n        /* \"#utility.yul\":3271:3275   */\n      dup3\n        /* \"#utility.yul\":3263:3269   */\n      dup3\n        /* \"#utility.yul\":3243:3276   */\n      tag_145\n      jump\t// in\n    tag_226:\n        /* \"#utility.yul\":3153:3282   */\n      swap2\n      swap1\n      pop\n      jump\t// out\n        /* \"#utility.yul\":3288:3596   */\n    tag_147:\n        /* \"#utility.yul\":3350:3354   */\n      0x00\n        /* \"#utility.yul\":3440:3458   */\n      0xffffffffffffffff\n        /* \"#utility.yul\":3432:3438   */\n      dup3\n        /* \"#utility.yul\":3429:3459   */\n      gt\n        /* \"#utility.yul\":3426:3482   */\n      iszero\n      tag_228\n      jumpi\n        /* \"#utility.yul\":3462:3480   */\n      tag_229\n      tag_144\n      jump\t// in\n    tag_229:\n        /* \"#utility.yul\":3426:3482   */\n    tag_228:\n        /* \"#utility.yul\":3500:3529   */\n      tag_230\n        /* \"#utility.yul\":3522:3528   */\n      dup3\n        /* \"#utility.yul\":3500:3529   */\n      tag_133\n      jump\t// in\n    tag_230:\n        /* \"#utility.yul\":3492:3529   */\n      swap1\n      pop\n        /* \"#utility.yul\":3584:3588   */\n      0x20\n        /* \"#utility.yul\":3578:3582   */\n      dup2\n        /* \"#utility.yul\":3574:3589   */\n      add\n        /* \"#utility.yul\":3566:3589   */\n      swap1\n      pop\n        /* \"#utility.yul\":3288:3596   */\n      swap2\n      swap1\n      pop\n      jump\t// out\n        /* \"#utility.yul\":3602:3750   */\n    tag_148:\n        /* \"#utility.yul\":3700:3706   */\n      dup3\n        /* \"#utility.yul\":3695:3698   */\n      dup2\n        /* \"#utility.yul\":3690:3693   */\n      dup4\n        /* \"#utility.yul\":3677:3707   */\n      calldatacopy\n        /* \"#utility.yul\":3741:3742   */\n      0x00\n        /* \"#utility.yul\":3732:3738   */\n      dup4\n        /* \"#utility.yul\":3727:3730   */\n      dup4\n        /* \"#utility.yul\":3723:3739   */\n      add\n        /* \"#utility.yul\":3716:3743   */\n      mstore\n        /* \"#utility.yul\":3602:3750   */\n      pop\n      pop\n      pop\n      jump\t// out\n        /* \"#utility.yul\":3756:4181   */\n    tag_149:\n        /* \"#utility.yul\":3834:3839   */\n      0x00\n        /* \"#utility.yul\":3859:3925   */\n      tag_233\n        /* \"#utility.yul\":3875:3924   */\n      tag_234\n        /* \"#utility.yul\":3917:3923   */\n      dup5\n        /* \"#utility.yul\":3875:3924   */\n      tag_147\n      jump\t// in\n    tag_234:\n        /* \"#utility.yul\":3859:3925   */\n      tag_146\n      jump\t// in\n    tag_233:\n        /* \"#utility.yul\":3850:3925   */\n      swap1\n      pop\n        /* \"#utility.yul\":3948:3954   */\n      dup3\n        /* \"#utility.yul\":3941:3946   */\n      dup2\n        /* \"#utility.yul\":3934:3955   */\n      mstore\n        /* \"#utility.yul\":3986:3990   */\n      0x20\n        /* \"#utility.yul\":3979:3984   */\n      dup2\n        /* \"#utility.yul\":3975:3991   */\n      add\n        /* \"#utility.yul\":4024:4027   */\n      dup5\n        /* \"#utility.yul\":4015:4021   */\n      dup5\n        /* \"#utility.yul\":4010:4013   */\n      dup5\n        /* \"#utility.yul\":4006:4022   */\n      add\n        /* \"#utility.yul\":4003:4028   */\n      gt\n        /* \"#utility.yul\":4000:4112   */\n      iszero\n      tag_235\n      jumpi\n        /* \"#utility.yul\":4031:4110   */\n      tag_236\n      tag_143\n      jump\t// in\n    tag_236:\n        /* \"#utility.yul\":4000:4112   */\n    tag_235:\n        /* \"#utility.yul\":4121:4175   */\n      tag_237\n        /* \"#utility.yul\":4168:4174   */\n      dup5\n        /* \"#utility.yul\":4163:4166   */\n      dup3\n        /* \"#utility.yul\":4158:4161   */\n      dup6\n        /* \"#utility.yul\":4121:4175   */\n      tag_148\n      jump\t// in\n    tag_237:\n        /* \"#utility.yul\":3840:4181   */\n      pop\n        /* \"#utility.yul\":3756:4181   */\n      swap4\n      swap3\n      pop\n      pop\n      pop\n      jump\t// out\n        /* \"#utility.yul\":4201:4541   */\n    tag_150:\n        /* \"#utility.yul\":4257:4262   */\n      0x00\n        /* \"#utility.yul\":4306:4309   */\n      dup3\n        /* \"#utility.yul\":4299:4303   */\n      0x1f\n        /* \"#utility.yul\":4291:4297   */\n      dup4\n        /* \"#utility.yul\":4287:4304   */\n      add\n        /* \"#utility.yul\":4283:4310   */\n      slt\n        /* \"#utility.yul\":4273:4395   */\n      tag_239\n      jumpi\n        /* \"#utility.yul\":4314:4393   */\n      tag_240\n      tag_142\n      jump\t// in\n    tag_240:\n        /* \"#utility.yul\":4273:4395   */\n    tag_239:\n        /* \"#utility.yul\":4431:4437   */\n      dup2\n        /* \"#utility.yul\":4418:4438   */\n      calldataload\n        /* \"#utility.yul\":4456:4535   */\n      tag_241\n        /* \"#utility.yul\":4531:4534   */\n      dup5\n        /* \"#utility.yul\":4523:4529   */\n      dup3\n        /* \"#utility.yul\":4516:4520   */\n      0x20\n        /* \"#utility.yul\":4508:4514   */\n      dup7\n        /* \"#utility.yul\":4504:4521   */\n      add\n        /* \"#utility.yul\":4456:4535   */\n      tag_149\n      jump\t// in\n    tag_241:\n        /* \"#utility.yul\":4447:4535   */\n      swap2\n      pop\n        /* \"#utility.yul\":4263:4541   */\n      pop\n        /* \"#utility.yul\":4201:4541   */\n      swap3\n      swap2\n      pop\n      pop\n      jump\t// out\n        /* \"#utility.yul\":4547:5381   */\n    tag_27:\n        /* \"#utility.yul\":4635:4641   */\n      0x00\n        /* \"#utility.yul\":4643:4649   */\n      dup1\n        /* \"#utility.yul\":4692:4694   */\n      0x40\n        /* \"#utility.yul\":4680:4689   */\n      dup4\n        /* \"#utility.yul\":4671:4678   */\n      dup6\n        /* \"#utility.yul\":4667:4690   */\n      sub\n        /* \"#utility.yul\":4663:4695   */\n      slt\n        /* \"#utility.yul\":4660:4779   */\n      iszero\n      tag_243\n      jumpi\n        /* \"#utility.yul\":4698:4777   */\n      tag_244\n      tag_140\n      jump\t// in\n    tag_244:\n        /* \"#utility.yul\":4660:4779   */\n    tag_243:\n        /* \"#utility.yul\":4846:4847   */\n      0x00\n        /* \"#utility.yul\":4835:4844   */\n      dup4\n        /* \"#utility.yul\":4831:4848   */\n      add\n        /* \"#utility.yul\":4818:4849   */\n      calldataload\n        /* \"#utility.yul\":4876:4894   */\n      0xffffffffffffffff\n        /* \"#utility.yul\":4868:4874   */\n      dup2\n        /* \"#utility.yul\":4865:4895   */\n      gt\n        /* \"#utility.yul\":4862:4979   */\n      iszero\n      tag_245\n      jumpi\n        /* \"#utility.yul\":4898:4977   */\n      tag_246\n      tag_141\n      jump\t// in\n    tag_246:\n        /* \"#utility.yul\":4862:4979   */\n    tag_245:\n        /* \"#utility.yul\":5003:5066   */\n      tag_247\n        /* \"#utility.yul\":5058:5065   */\n      dup6\n        /* \"#utility.yul\":5049:5055   */\n      dup3\n        /* \"#utility.yul\":5038:5047   */\n      dup7\n        /* \"#utility.yul\":5034:5056   */\n      add\n        /* \"#utility.yul\":5003:5066   */\n      tag_150\n      jump\t// in\n    tag_247:\n        /* \"#utility.yul\":4993:5066   */\n      swap3\n      pop\n        /* \"#utility.yul\":4789:5076   */\n      pop\n        /* \"#utility.yul\":5143:5145   */\n      0x20\n        /* \"#utility.yul\":5132:5141   */\n      dup4\n        /* \"#utility.yul\":5128:5146   */\n      add\n        /* \"#utility.yul\":5115:5147   */\n      calldataload\n        /* \"#utility.yul\":5174:5192   */\n      0xffffffffffffffff\n        /* \"#utility.yul\":5166:5172   */\n      dup2\n        /* \"#utility.yul\":5163:5193   */\n      gt\n        /* \"#utility.yul\":5160:5277   */\n      iszero\n      tag_248\n      jumpi\n        /* \"#utility.yul\":5196:5275   */\n      tag_249\n      tag_141\n      jump\t// in\n    tag_249:\n        /* \"#utility.yul\":5160:5277   */\n    tag_248:\n        /* \"#utility.yul\":5301:5364   */\n      tag_250\n        /* \"#utility.yul\":5356:5363   */\n      dup6\n        /* \"#utility.yul\":5347:5353   */\n      dup3\n        /* \"#utility.yul\":5336:5345   */\n      dup7\n        /* \"#utility.yul\":5332:5354   */\n      add\n        /* \"#utility.yul\":5301:5364   */\n      tag_150\n      jump\t// in\n    tag_250:\n        /* \"#utility.yul\":5291:5364   */\n      swap2\n      pop\n        /* \"#utility.yul\":5086:5374   */\n      pop\n        /* \"#utility.yul\":4547:5381   */\n      swap3\n      pop\n      swap3\n      swap1\n      pop\n      jump\t// out\n        /* \"#utility.yul\":5387:5513   */\n    tag_151:\n        /* \"#utility.yul\":5424:5431   */\n      0x00\n        /* \"#utility.yul\":5464:5506   */\n      0xffffffffffffffffffffffffffffffffffffffff\n        /* \"#utility.yul\":5457:5462   */\n      dup3\n        /* \"#utility.yul\":5453:5507   */\n      and\n        /* \"#utility.yul\":5442:5507   */\n      swap1\n      pop\n        /* \"#utility.yul\":5387:5513   */\n      swap2\n      swap1\n      pop\n      jump\t// out\n        /* \"#utility.yul\":5519:5615   */\n    tag_152:\n        /* \"#utility.yul\":5556:5563   */\n      0x00\n        /* \"#utility.yul\":5585:5609   */\n      tag_253\n        /* \"#utility.yul\":5603:5608   */\n      dup3\n        /* \"#utility.yul\":5585:5609   */\n      tag_151\n      jump\t// in\n    tag_253:\n        /* \"#utility.yul\":5574:5609   */\n      swap1\n      pop\n        /* \"#utility.yul\":5519:5615   */\n      swap2\n      swap1\n      pop\n      jump\t// out\n        /* \"#utility.yul\":5621:5743   */\n    tag_153:\n        /* \"#utility.yul\":5694:5718   */\n      tag_255\n        /* \"#utility.yul\":5712:5717   */\n      dup2\n        /* \"#utility.yul\":5694:5718   */\n      tag_152\n      jump\t// in\n    tag_255:\n        /* \"#utility.yul\":5687:5692   */\n      dup2\n        /* \"#utility.yul\":5684:5719   */\n      eq\n        /* \"#utility.yul\":5674:5737   */\n      tag_256\n      jumpi\n        /* \"#utility.yul\":5733:5734   */\n      0x00\n        /* \"#utility.yul\":5730:5731   */\n      dup1\n        /* \"#utility.yul\":5723:5735   */\n      revert\n        /* \"#utility.yul\":5674:5737   */\n    tag_256:\n        /* \"#utility.yul\":5621:5743   */\n      pop\n      jump\t// out\n        /* \"#utility.yul\":5749:5888   */\n    tag_154:\n        /* \"#utility.yul\":5795:5800   */\n      0x00\n        /* \"#utility.yul\":5833:5839   */\n      dup2\n        /* \"#utility.yul\":5820:5840   */\n      calldataload\n        /* \"#utility.yul\":5811:5840   */\n      swap1\n      pop\n        /* \"#utility.yul\":5849:5882   */\n      tag_258\n        /* \"#utility.yul\":5876:5881   */\n      dup2\n        /* \"#utility.yul\":5849:5882   */\n      tag_153\n      jump\t// in\n    tag_258:\n        /* \"#utility.yul\":5749:5888   */\n      swap3\n      swap2\n      pop\n      pop\n      jump\t// out\n        /* \"#utility.yul\":5894:6016   */\n    tag_155:\n        /* \"#utility.yul\":5967:5991   */\n      tag_260\n        /* \"#utility.yul\":5985:5990   */\n      dup2\n        /* \"#utility.yul\":5967:5991   */\n      tag_135\n      jump\t// in\n    tag_260:\n        /* \"#utility.yul\":5960:5965   */\n      dup2\n        /* \"#utility.yul\":5957:5992   */\n      eq\n        /* \"#utility.yul\":5947:6010   */\n      tag_261\n      jumpi\n        /* \"#utility.yul\":6006:6007   */\n      0x00\n        /* \"#utility.yul\":6003:6004   */\n      dup1\n        /* \"#utility.yul\":5996:6008   */\n      revert\n        /* \"#utility.yul\":5947:6010   */\n    tag_261:\n        /* \"#utility.yul\":5894:6016   */\n      pop\n      jump\t// out\n        /* \"#utility.yul\":6022:6161   */\n    tag_156:\n        /* \"#utility.yul\":6068:6073   */\n      0x00\n        /* \"#utility.yul\":6106:6112   */\n      dup2\n        /* \"#utility.yul\":6093:6113   */\n      calldataload\n        /* \"#utility.yul\":6084:6113   */\n      swap1\n      pop\n        /* \"#utility.yul\":6122:6155   */\n      tag_263\n        /* \"#utility.yul\":6149:6154   */\n      dup2\n        /* \"#utility.yul\":6122:6155   */\n      tag_155\n      jump\t// in\n    tag_263:\n        /* \"#utility.yul\":6022:6161   */\n      swap3\n      swap2\n      pop\n      pop\n      jump\t// out\n        /* \"#utility.yul\":6167:6641   */\n    tag_31:\n        /* \"#utility.yul\":6235:6241   */\n      0x00\n        /* \"#utility.yul\":6243:6249   */\n      dup1\n        /* \"#utility.yul\":6292:6294   */\n      0x40\n        /* \"#utility.yul\":6280:6289   */\n      dup4\n        /* \"#utility.yul\":6271:6278   */\n      dup6\n        /* \"#utility.yul\":6267:6290   */\n      sub\n        /* \"#utility.yul\":6263:6295   */\n      slt\n        /* \"#utility.yul\":6260:6379   */\n      iszero\n      tag_265\n      jumpi\n        /* \"#utility.yul\":6298:6377   */\n      tag_266\n      tag_140\n      jump\t// in\n    tag_266:\n        /* \"#utility.yul\":6260:6379   */\n    tag_265:\n        /* \"#utility.yul\":6418:6419   */\n      0x00\n        /* \"#utility.yul\":6443:6496   */\n      tag_267\n        /* \"#utility.yul\":6488:6495   */\n      dup6\n        /* \"#utility.yul\":6479:6485   */\n      dup3\n        /* \"#utility.yul\":6468:6477   */\n      dup7\n        /* \"#utility.yul\":6464:6486   */\n      add\n        /* \"#utility.yul\":6443:6496   */\n      tag_154\n      jump\t// in\n    tag_267:\n        /* \"#utility.yul\":6433:6496   */\n      swap3\n      pop\n        /* \"#utility.yul\":6389:6506   */\n      pop\n        /* \"#utility.yul\":6545:6547   */\n      0x20\n        /* \"#utility.yul\":6571:6624   */\n      tag_268\n        /* \"#utility.yul\":6616:6623   */\n      dup6\n        /* \"#utility.yul\":6607:6613   */\n      dup3\n        /* \"#utility.yul\":6596:6605   */\n      dup7\n        /* \"#utility.yul\":6592:6614   */\n      add\n        /* \"#utility.yul\":6571:6624   */\n      tag_156\n      jump\t// in\n    tag_268:\n        /* \"#utility.yul\":6561:6624   */\n      swap2\n      pop\n        /* \"#utility.yul\":6516:6634   */\n      pop\n        /* \"#utility.yul\":6167:6641   */\n      swap3\n      pop\n      swap3\n      swap1\n      pop\n      jump\t// out\n        /* \"#utility.yul\":6647:6976   */\n    tag_35:\n        /* \"#utility.yul\":6706:6712   */\n      0x00\n        /* \"#utility.yul\":6755:6757   */\n      0x20\n        /* \"#utility.yul\":6743:6752   */\n      dup3\n        /* \"#utility.yul\":6734:6741   */\n      dup5\n        /* \"#utility.yul\":6730:6753   */\n      sub\n        /* \"#utility.yul\":6726:6758   */\n      slt\n        /* \"#utility.yul\":6723:6842   */\n      iszero\n      tag_270\n      jumpi\n        /* \"#utility.yul\":6761:6840   */\n      tag_271\n      tag_140\n      jump\t// in\n    tag_271:\n        /* \"#utility.yul\":6723:6842   */\n    tag_270:\n        /* \"#utility.yul\":6881:6882   */\n      0x00\n        /* \"#utility.yul\":6906:6959   */\n      tag_272\n        /* \"#utility.yul\":6951:6958   */\n      dup5\n        /* \"#utility.yul\":6942:6948   */\n      dup3\n        /* \"#utility.yul\":6931:6940   */\n      dup6\n        /* \"#utility.yul\":6927:6949   */\n      add\n        /* \"#utility.yul\":6906:6959   */\n      tag_154\n      jump\t// in\n    tag_272:\n        /* \"#utility.yul\":6896:6959   */\n      swap2\n      pop\n        /* \"#utility.yul\":6852:6969   */\n      pop\n        /* \"#utility.yul\":6647:6976   */\n      swap3\n      swap2\n      pop\n      pop\n      jump\t// out\n        /* \"#utility.yul\":6982:7072   */\n    tag_157:\n        /* \"#utility.yul\":7016:7023   */\n      0x00\n        /* \"#utility.yul\":7059:7064   */\n      dup2\n        /* \"#utility.yul\":7052:7065   */\n      iszero\n        /* \"#utility.yul\":7045:7066   */\n      iszero\n        /* \"#utility.yul\":7034:7066   */\n      swap1\n      pop\n        /* \"#utility.yul\":6982:7072   */\n      swap2\n      swap1\n      pop\n      jump\t// out\n        /* \"#utility.yul\":7078:7187   */\n    tag_158:\n        /* \"#utility.yul\":7159:7180   */\n      tag_275\n        /* \"#utility.yul\":7174:7179   */\n      dup2\n        /* \"#utility.yul\":7159:7180   */\n      tag_157\n      jump\t// in\n    tag_275:\n        /* \"#utility.yul\":7154:7157   */\n      dup3\n        /* \"#utility.yul\":7147:7181   */\n      mstore\n        /* \"#utility.yul\":7078:7187   */\n      pop\n      pop\n      jump\t// out\n        /* \"#utility.yul\":7193:8027   */\n    tag_42:\n        /* \"#utility.yul\":7432:7436   */\n      0x00\n        /* \"#utility.yul\":7470:7473   */\n      0xa0\n        /* \"#utility.yul\":7459:7468   */\n      dup3\n        /* \"#utility.yul\":7455:7474   */\n      add\n        /* \"#utility.yul\":7447:7474   */\n      swap1\n      pop\n        /* \"#utility.yul\":7520:7529   */\n      dup2\n        /* \"#utility.yul\":7514:7518   */\n      dup2\n        /* \"#utility.yul\":7510:7530   */\n      sub\n        /* \"#utility.yul\":7506:7507   */\n      0x00\n        /* \"#utility.yul\":7495:7504   */\n      dup4\n        /* \"#utility.yul\":7491:7508   */\n      add\n        /* \"#utility.yul\":7484:7531   */\n      mstore\n        /* \"#utility.yul\":7548:7626   */\n      tag_277\n        /* \"#utility.yul\":7621:7625   */\n      dup2\n        /* \"#utility.yul\":7612:7618   */\n      dup9\n        /* \"#utility.yul\":7548:7626   */\n      tag_134\n      jump\t// in\n    tag_277:\n        /* \"#utility.yul\":7540:7626   */\n      swap1\n      pop\n        /* \"#utility.yul\":7673:7682   */\n      dup2\n        /* \"#utility.yul\":7667:7671   */\n      dup2\n        /* \"#utility.yul\":7663:7683   */\n      sub\n        /* \"#utility.yul\":7658:7660   */\n      0x20\n        /* \"#utility.yul\":7647:7656   */\n      dup4\n        /* \"#utility.yul\":7643:7661   */\n      add\n        /* \"#utility.yul\":7636:7684   */\n      mstore\n        /* \"#utility.yul\":7701:7779   */\n      tag_278\n        /* \"#utility.yul\":7774:7778   */\n      dup2\n        /* \"#utility.yul\":7765:7771   */\n      dup8\n        /* \"#utility.yul\":7701:7779   */\n      tag_134\n      jump\t// in\n    tag_278:\n        /* \"#utility.yul\":7693:7779   */\n      swap1\n      pop\n        /* \"#utility.yul\":7789:7861   */\n      tag_279\n        /* \"#utility.yul\":7857:7859   */\n      0x40\n        /* \"#utility.yul\":7846:7855   */\n      dup4\n        /* \"#utility.yul\":7842:7860   */\n      add\n        /* \"#utility.yul\":7833:7839   */\n      dup7\n        /* \"#utility.yul\":7789:7861   */\n      tag_136\n      jump\t// in\n    tag_279:\n        /* \"#utility.yul\":7871:7943   */\n      tag_280\n        /* \"#utility.yul\":7939:7941   */\n      0x60\n        /* \"#utility.yul\":7928:7937   */\n      dup4\n        /* \"#utility.yul\":7924:7942   */\n      add\n        /* \"#utility.yul\":7915:7921   */\n      dup6\n        /* \"#utility.yul\":7871:7943   */\n      tag_136\n      jump\t// in\n    tag_280:\n        /* \"#utility.yul\":7953:8020   */\n      tag_281\n        /* \"#utility.yul\":8015:8018   */\n      0x80\n        /* \"#utility.yul\":8004:8013   */\n      dup4\n        /* \"#utility.yul\":8000:8019   */\n      add\n        /* \"#utility.yul\":7991:7997   */\n      dup5\n        /* \"#utility.yul\":7953:8020   */\n      tag_158\n      jump\t// in\n    tag_281:\n        /* \"#utility.yul\":7193:8027   */\n      swap7\n      swap6\n      pop\n      pop\n      pop\n      pop\n      pop\n      pop\n      jump\t// out\n        /* \"#utility.yul\":8033:8243   */\n    tag_50:\n        /* \"#utility.yul\":8120:8124   */\n      0x00\n        /* \"#utility.yul\":8158:8160   */\n      0x20\n        /* \"#utility.yul\":8147:8156   */\n      dup3\n        /* \"#utility.yul\":8143:8161   */\n      add\n        /* \"#utility.yul\":8135:8161   */\n      swap1\n      pop\n        /* \"#utility.yul\":8171:8236   */\n      tag_283\n        /* \"#utility.yul\":8233:8234   */\n      0x00\n        /* \"#utility.yul\":8222:8231   */\n      dup4\n        /* \"#utility.yul\":8218:8235   */\n      add\n        /* \"#utility.yul\":8209:8215   */\n      dup5\n        /* \"#utility.yul\":8171:8236   */\n      tag_158\n      jump\t// in\n    tag_283:\n        /* \"#utility.yul\":8033:8243   */\n      swap3\n      swap2\n      pop\n      pop\n      jump\t// out\n        /* \"#utility.yul\":8249:8429   */\n    tag_159:\n        /* \"#utility.yul\":8297:8374   */\n      0x4e487b7100000000000000000000000000000000000000000000000000000000\n        /* \"#utility.yul\":8294:8295   */\n      0x00\n        /* \"#utility.yul\":8287:8375   */\n      mstore\n        /* \"#utility.yul\":8394:8398   */\n      0x22\n        /* \"#utility.yul\":8391:8392   */\n      0x04\n        /* \"#utility.yul\":8384:8399   */\n      mstore\n        /* \"#utility.yul\":8418:8422   */\n      0x24\n        /* \"#utility.yul\":8415:8416   */\n      0x00\n        /* \"#utility.yul\":8408:8423   */\n      revert\n        /* \"#utility.yul\":8435:8755   */\n    tag_52:\n        /* \"#utility.yul\":8479:8485   */\n      0x00\n        /* \"#utility.yul\":8516:8517   */\n      0x02\n        /* \"#utility.yul\":8510:8514   */\n      dup3\n        /* \"#utility.yul\":8506:8518   */\n      div\n        /* \"#utility.yul\":8496:8518   */\n      swap1\n      pop\n        /* \"#utility.yul\":8563:8564   */\n      0x01\n        /* \"#utility.yul\":8557:8561   */\n      dup3\n        /* \"#utility.yul\":8553:8565   */\n      and\n        /* \"#utility.yul\":8584:8602   */\n      dup1\n        /* \"#utility.yul\":8574:8655   */\n      tag_286\n      jumpi\n        /* \"#utility.yul\":8640:8644   */\n      0x7f\n        /* \"#utility.yul\":8632:8638   */\n      dup3\n        /* \"#utility.yul\":8628:8645   */\n      and\n        /* \"#utility.yul\":8618:8645   */\n      swap2\n      pop\n        /* \"#utility.yul\":8574:8655   */\n    tag_286:\n        /* \"#utility.yul\":8702:8704   */\n      0x20\n        /* \"#utility.yul\":8694:8700   */\n      dup3\n        /* \"#utility.yul\":8691:8705   */\n      lt\n        /* \"#utility.yul\":8671:8689   */\n      dup2\n        /* \"#utility.yul\":8668:8706   */\n      sub\n        /* \"#utility.yul\":8665:8749   */\n      tag_287\n      jumpi\n        /* \"#utility.yul\":8721:8739   */\n      tag_288\n      tag_159\n      jump\t// in\n    tag_288:\n        /* \"#utility.yul\":8665:8749   */\n    tag_287:\n        /* \"#utility.yul\":8486:8755   */\n      pop\n        /* \"#utility.yul\":8435:8755   */\n      swap2\n      swap1\n      pop\n      jump\t// out\n        /* \"#utility.yul\":8761:8902   */\n    tag_160:\n        /* \"#utility.yul\":8810:8814   */\n      0x00\n        /* \"#utility.yul\":8833:8836   */\n      dup2\n        /* \"#utility.yul\":8825:8836   */\n      swap1\n      pop\n        /* \"#utility.yul\":8856:8859   */\n      dup2\n        /* \"#utility.yul\":8853:8854   */\n      0x00\n        /* \"#utility.yul\":8846:8860   */\n      mstore\n        /* \"#utility.yul\":8890:8894   */\n      0x20\n        /* \"#utility.yul\":8887:8888   */\n      0x00\n        /* \"#utility.yul\":8877:8895   */\n      keccak256\n        /* \"#utility.yul\":8869:8895   */\n      swap1\n      pop\n        /* \"#utility.yul\":8761:8902   */\n      swap2\n      swap1\n      pop\n      jump\t// out\n        /* \"#utility.yul\":8908:9001   */\n    tag_161:\n        /* \"#utility.yul\":8945:8951   */\n      0x00\n        /* \"#utility.yul\":8992:8994   */\n      0x20\n        /* \"#utility.yul\":8987:8989   */\n      0x1f\n        /* \"#utility.yul\":8980:8985   */\n      dup4\n        /* \"#utility.yul\":8976:8990   */\n      add\n        /* \"#utility.yul\":8972:8995   */\n      div\n        /* \"#utility.yul\":8962:8995   */\n      swap1\n      pop\n        /* \"#utility.yul\":8908:9001   */\n      swap2\n      swap1\n      pop\n      jump\t// out\n        /* \"#utility.yul\":9007:9114   */\n    tag_162:\n        /* \"#utility.yul\":9051:9059   */\n      0x00\n        /* \"#utility.yul\":9101:9106   */\n      dup3\n        /* \"#utility.yul\":9095:9099   */\n      dup3\n        /* \"#utility.yul\":9091:9107   */\n      shl\n        /* \"#utility.yul\":9070:9107   */\n      swap1\n      pop\n        /* \"#utility.yul\":9007:9114   */\n      swap3\n      swap2\n      pop\n      pop\n      jump\t// out\n        /* \"#utility.yul\":9120:9513   */\n    tag_163:\n        /* \"#utility.yul\":9189:9195   */\n      0x00\n        /* \"#utility.yul\":9239:9240   */\n      0x08\n        /* \"#utility.yul\":9227:9237   */\n      dup4\n        /* \"#utility.yul\":9223:9241   */\n      mul\n        /* \"#utility.yul\":9262:9359   */\n      tag_293\n        /* \"#utility.yul\":9292:9358   */\n      0xffffffffffffffffffffffffffffffffffffffffffffffffffffffffffffffff\n        /* \"#utility.yul\":9281:9290   */\n      dup3\n        /* \"#utility.yul\":9262:9359   */\n      tag_162\n      jump\t// in\n    tag_293:\n        /* \"#utility.yul\":9380:9419   */\n      tag_294\n        /* \"#utility.yul\":9410:9418   */\n      dup7\n        /* \"#utility.yul\":9399:9408   */\n      dup4\n        /* \"#utility.yul\":9380:9419   */\n      tag_162\n      jump\t// in\n    tag_294:\n        /* \"#utility.yul\":9368:9419   */\n      swap6\n      pop\n        /* \"#utility.yul\":9452:9456   */\n      dup1\n        /* \"#utility.yul\":9448:9457   */\n      not\n        /* \"#utility.yul\":9441:9446   */\n      dup5\n        /* \"#utility.yul\":9437:9458   */\n      and\n        /* \"#utility.yul\":9428:9458   */\n      swap4\n      pop\n        /* \"#utility.yul\":9501:9505   */\n      dup1\n        /* \"#utility.yul\":9491:9499   */\n      dup7\n        /* \"#utility.yul\":9487:9506   */\n      and\n        /* \"#utility.yul\":9480:9485   */\n      dup5\n        /* \"#utility.yul\":9477:9507   */\n      or\n        /* \"#utility.yul\":9467:9507   */\n      swap3\n      pop\n        /* \"#utility.yul\":9196:9513   */\n      pop\n      pop\n        /* \"#utility.yul\":9120:9513   */\n      swap4\n      swap3\n      pop\n      pop\n      pop\n      jump\t// out\n        /* \"#utility.yul\":9519:9579   */\n    tag_164:\n        /* \"#utility.yul\":9547:9550   */\n      0x00\n        /* \"#utility.yul\":9568:9573   */\n      dup2\n        /* \"#utility.yul\":9561:9573   */\n      swap1\n      pop\n        /* \"#utility.yul\":9519:9579   */\n      swap2\n      swap1\n      pop\n      jump\t// out\n        /* \"#utility.yul\":9585:9727   */\n    tag_165:\n        /* \"#utility.yul\":9635:9644   */\n      0x00\n        /* \"#utility.yul\":9668:9721   */\n      tag_297\n        /* \"#utility.yul\":9686:9720   */\n      tag_298\n        /* \"#utility.yul\":9695:9719   */\n      tag_299\n        /* \"#utility.yul\":9713:9718   */\n      dup5\n        /* \"#utility.yul\":9695:9719   */\n      tag_135\n      jump\t// in\n    tag_299:\n        /* \"#utility.yul\":9686:9720   */\n      tag_164\n      jump\t// in\n    tag_298:\n        /* \"#utility.yul\":9668:9721   */\n      tag_135\n      jump\t// in\n    tag_297:\n        /* \"#utility.yul\":9655:9721   */\n      swap1\n      pop\n        /* \"#utility.yul\":9585:9727   */\n      swap2\n      swap1\n      pop\n      jump\t// out\n        /* \"#utility.yul\":9733:9808   */\n    tag_166:\n        /* \"#utility.yul\":9776:9779   */\n      0x00\n        /* \"#utility.yul\":9797:9802   */\n      dup2\n        /* \"#utility.yul\":9790:9802   */\n      swap1\n      pop\n        /* \"#utility.yul\":9733:9808   */\n      swap2\n      swap1\n      pop\n      jump\t// out\n        /* \"#utility.yul\":9814:10083   */\n    tag_167:\n        /* \"#utility.yul\":9924:9963   */\n      tag_302\n        /* \"#utility.yul\":9955:9962   */\n      dup4\n        /* \"#utility.yul\":9924:9963   */\n      tag_165\n      jump\t// in\n    tag_302:\n        /* \"#utility.yul\":9985:10076   */\n      tag_303\n        /* \"#utility.yul\":10034:10075   */\n      tag_304\n        /* \"#utility.yul\":10058:10074   */\n      dup3\n        /* \"#utility.yul\":10034:10075   */\n      tag_166\n      jump\t// in\n    tag_304:\n        /* \"#utility.yul\":10026:10032   */\n      dup5\n        /* \"#utility.yul\":10019:10023   */\n      dup5\n        /* \"#utility.yul\":10013:10024   */\n      sload\n        /* \"#utility.yul\":9985:10076   */\n      tag_163\n      jump\t// in\n    tag_303:\n        /* \"#utility.yul\":9979:9983   */\n      dup3\n        /* \"#utility.yul\":9972:10077   */\n      sstore\n        /* \"#utility.yul\":9890:10083   */\n      pop\n        /* \"#utility.yul\":9814:10083   */\n      pop\n      pop\n      pop\n      jump\t// out\n        /* \"#utility.yul\":10089:10162   */\n    tag_168:\n        /* \"#utility.yul\":10134:10137   */\n      0x00\n        /* \"#utility.yul\":10089:10162   */\n      swap1\n      jump\t// out\n        /* \"#utility.yul\":10168:10357   */\n    tag_169:\n        /* \"#utility.yul\":10245:10277   */\n      tag_307\n      tag_168\n      jump\t// in\n    tag_307:\n        /* \"#utility.yul\":10286:10351   */\n      tag_308\n        /* \"#utility.yul\":10344:10350   */\n      dup2\n        /* \"#utility.yul\":10336:10342   */\n      dup5\n        /* \"#utility.yul\":10330:10334   */\n      dup5\n        /* \"#utility.yul\":10286:10351   */\n      tag_167\n      jump\t// in\n    tag_308:\n        /* \"#utility.yul\":10221:10357   */\n      pop\n        /* \"#utility.yul\":10168:10357   */\n      pop\n      pop\n      jump\t// out\n        /* \"#utility.yul\":10363:10549   */\n    tag_170:\n        /* \"#utility.yul\":10423:10543   */\n    tag_310:\n        /* \"#utility.yul\":10440:10443   */\n      dup2\n        /* \"#utility.yul\":10433:10438   */\n      dup2\n        /* \"#utility.yul\":10430:10444   */\n      lt\n        /* \"#utility.yul\":10423:10543   */\n      iszero\n      tag_312\n      jumpi\n        /* \"#utility.yul\":10494:10533   */\n      tag_313\n        /* \"#utility.yul\":10531:10532   */\n      0x00\n        /* \"#utility.yul\":10524:10529   */\n      dup3\n        /* \"#utility.yul\":10494:10533   */\n      tag_169\n      jump\t// in\n    tag_313:\n        /* \"#utility.yul\":10467:10468   */\n      0x01\n        /* \"#utility.yul\":10460:10465   */\n      dup2\n        /* \"#utility.yul\":10456:10469   */\n      add\n        /* \"#utility.yul\":10447:10469   */\n      swap1\n      pop\n        /* \"#utility.yul\":10423:10543   */\n      jump(tag_310)\n    tag_312:\n        /* \"#utility.yul\":10363:10549   */\n      pop\n      pop\n      jump\t// out\n        /* \"#utility.yul\":10555:11098   */\n    tag_171:\n        /* \"#utility.yul\":10656:10658   */\n      0x1f\n        /* \"#utility.yul\":10651:10654   */\n      dup3\n        /* \"#utility.yul\":10648:10659   */\n      gt\n        /* \"#utility.yul\":10645:11091   */\n      iszero\n      tag_315\n      jumpi\n        /* \"#utility.yul\":10690:10728   */\n      tag_316\n        /* \"#utility.yul\":10722:10727   */\n      dup2\n        /* \"#utility.yul\":10690:10728   */\n      tag_160\n      jump\t// in\n    tag_316:\n        /* \"#utility.yul\":10774:10803   */\n      tag_317\n        /* \"#utility.yul\":10792:10802   */\n      dup5\n        /* \"#utility.yul\":10774:10803   */\n      tag_161\n      jump\t// in\n    tag_317:\n        /* \"#utility.yul\":10764:10772   */\n      dup2\n        /* \"#utility.yul\":10760:10804   */\n      add\n        /* \"#utility.yul\":10957:10959   */\n      0x20\n        /* \"#utility.yul\":10945:10955   */\n      dup6\n        /* \"#utility.yul\":10942:10960   */\n      lt\n        /* \"#utility.yul\":10939:10988   */\n      iszero\n      tag_318\n      jumpi\n        /* \"#utility.yul\":10978:10986   */\n      dup2\n        /* \"#utility.yul\":10963:10986   */\n      swap1\n      pop\n        /* \"#utility.yul\":10939:10988   */\n    tag_318:\n        /* \"#utility.yul\":11001:11081   */\n      tag_319\n        /* \"#utility.yul\":11057:11079   */\n      tag_320\n        /* \"#utility.yul\":11075:11078   */\n      dup6\n        /* \"#utility.yul\":11057:11079   */\n      tag_161\n      jump\t// in\n    tag_320:\n        /* \"#utility.yul\":11047:11055   */\n      dup4\n        /* \"#utility.yul\":11043:11080   */\n      add\n        /* \"#utility.yul\":11030:11041   */\n      dup3\n        /* \"#utility.yul\":11001:11081   */\n      tag_170\n      jump\t// in\n    tag_319:\n        /* \"#utility.yul\":10660:11091   */\n      pop\n      pop\n        /* \"#utility.yul\":10645:11091   */\n    tag_315:\n        /* \"#utility.yul\":10555:11098   */\n      pop\n      pop\n      pop\n      jump\t// out\n        /* \"#utility.yul\":11104:11221   */\n    tag_172:\n        /* \"#utility.yul\":11158:11166   */\n      0x00\n        /* \"#utility.yul\":11208:11213   */\n      dup3\n        /* \"#utility.yul\":11202:11206   */\n      dup3\n        /* \"#utility.yul\":11198:11214   */\n      shr\n        /* \"#utility.yul\":11177:11214   */\n      swap1\n      pop\n        /* \"#utility.yul\":11104:11221   */\n      swap3\n      swap2\n      pop\n      pop\n      jump\t// out\n        /* \"#utility.yul\":11227:11396   */\n    tag_173:\n        /* \"#utility.yul\":11271:11277   */\n      0x00\n        /* \"#utility.yul\":11304:11355   */\n      tag_323\n        /* \"#utility.yul\":11352:11353   */\n      0x00\n        /* \"#utility.yul\":11348:11354   */\n      not\n        /* \"#utility.yul\":11340:11345   */\n      dup5\n        /* \"#utility.yul\":11337:11338   */\n      0x08\n        /* \"#utility.yul\":11333:11346   */\n      mul\n        /* \"#utility.yul\":11304:11355   */\n      tag_172\n      jump\t// in\n    tag_323:\n        /* \"#utility.yul\":11300:11356   */\n      not\n        /* \"#utility.yul\":11385:11389   */\n      dup1\n        /* \"#utility.yul\":11379:11383   */\n      dup4\n        /* \"#utility.yul\":11375:11390   */\n      and\n        /* \"#utility.yul\":11365:11390   */\n      swap2\n      pop\n        /* \"#utility.yul\":11278:11396   */\n      pop\n        /* \"#utility.yul\":11227:11396   */\n      swap3\n      swap2\n      pop\n      pop\n      jump\t// out\n        /* \"#utility.yul\":11401:11696   */\n    tag_174:\n        /* \"#utility.yul\":11477:11481   */\n      0x00\n        /* \"#utility.yul\":11623:11652   */\n      tag_325\n        /* \"#utility.yul\":11648:11651   */\n      dup4\n        /* \"#utility.yul\":11642:11646   */\n      dup4\n        /* \"#utility.yul\":11623:11652   */\n      tag_173\n      jump\t// in\n    tag_325:\n        /* \"#utility.yul\":11615:11652   */\n      swap2\n      pop\n        /* \"#utility.yul\":11685:11688   */\n      dup3\n        /* \"#utility.yul\":11682:11683   */\n      0x02\n        /* \"#utility.yul\":11678:11689   */\n      mul\n        /* \"#utility.yul\":11672:11676   */\n      dup3\n        /* \"#utility.yul\":11669:11690   */\n      or\n        /* \"#utility.yul\":11661:11690   */\n      swap1\n      pop\n        /* \"#utility.yul\":11401:11696   */\n      swap3\n      swap2\n      pop\n      pop\n      jump\t// out\n        /* \"#utility.yul\":11701:13096   */\n    tag_62:\n        /* \"#utility.yul\":11818:11855   */\n      tag_327\n        /* \"#utility.yul\":11851:11854   */\n      dup3\n        /* \"#utility.yul\":11818:11855   */\n      tag_130\n      jump\t// in\n    tag_327:\n        /* \"#utility.yul\":11920:11938   */\n      0xffffffffffffffff\n        /* \"#utility.yul\":11912:11918   */\n      dup2\n        /* \"#utility.yul\":11909:11939   */\n      gt\n        /* \"#utility.yul\":11906:11962   */\n      iszero\n      tag_328\n      jumpi\n        /* \"#utility.yul\":11942:11960   */\n      tag_329\n      tag_144\n      jump\t// in\n    tag_329:\n        /* \"#utility.yul\":11906:11962   */\n    tag_328:\n        /* \"#utility.yul\":11986:12024   */\n      tag_330\n        /* \"#utility.yul\":12018:12022   */\n      dup3\n        /* \"#utility.yul\":12012:12023   */\n      sload\n        /* \"#utility.yul\":11986:12024   */\n      tag_52\n      jump\t// in\n    tag_330:\n        /* \"#utility.yul\":12071:12138   */\n      tag_331\n        /* \"#utility.yul\":12131:12137   */\n      dup3\n        /* \"#utility.yul\":12123:12129   */\n      dup3\n        /* \"#utility.yul\":12117:12121   */\n      dup6\n        /* \"#utility.yul\":12071:12138   */\n      tag_171\n      jump\t// in\n    tag_331:\n        /* \"#utility.yul\":12165:12166   */\n      0x00\n        /* \"#utility.yul\":12189:12193   */\n      0x20\n        /* \"#utility.yul\":12176:12193   */\n      swap1\n      pop\n        /* \"#utility.yul\":12221:12223   */\n      0x1f\n        /* \"#utility.yul\":12213:12219   */\n      dup4\n        /* \"#utility.yul\":12210:12224   */\n      gt\n        /* \"#utility.yul\":12238:12239   */\n      0x01\n        /* \"#utility.yul\":12233:12851   */\n      dup2\n      eq\n      tag_333\n      jumpi\n        /* \"#utility.yul\":12895:12896   */\n      0x00\n        /* \"#utility.yul\":12912:12918   */\n      dup5\n        /* \"#utility.yul\":12909:12986   */\n      iszero\n      tag_334\n      jumpi\n        /* \"#utility.yul\":12961:12970   */\n      dup3\n        /* \"#utility.yul\":12956:12959   */\n      dup8\n        /* \"#utility.yul\":12952:12971   */\n      add\n        /* \"#utility.yul\":12946:12972   */\n      mload\n        /* \"#utility.yul\":12937:12972   */\n      swap1\n      pop\n        /* \"#utility.yul\":12909:12986   */\n    tag_334:\n        /* \"#utility.yul\":13012:13079   */\n      tag_335\n        /* \"#utility.yul\":13072:13078   */\n      dup6\n        /* \"#utility.yul\":13065:13070   */\n      dup3\n        /* \"#utility.yul\":13012:13079   */\n      tag_174\n      jump\t// in\n    tag_335:\n        /* \"#utility.yul\":13006:13010   */\n      dup7\n        /* \"#utility.yul\":12999:13080   */\n      sstore\n        /* \"#utility.yul\":12868:13090   */\n      pop\n        /* \"#utility.yul\":12203:13090   */\n      jump(tag_332)\n        /* \"#utility.yul\":12233:12851   */\n    tag_333:\n        /* \"#utility.yul\":12285:12289   */\n      0x1f\n        /* \"#utility.yul\":12281:12290   */\n      not\n        /* \"#utility.yul\":12273:12279   */\n      dup5\n        /* \"#utility.yul\":12269:12291   */\n      and\n        /* \"#utility.yul\":12319:12356   */\n      tag_336\n        /* \"#utility.yul\":12351:12355   */\n      dup7\n        /* \"#utility.yul\":12319:12356   */\n      tag_160\n      jump\t// in\n    tag_336:\n        /* \"#utility.yul\":12378:12379   */\n      0x00\n        /* \"#utility.yul\":12392:12600   */\n    tag_337:\n        /* \"#utility.yul\":12406:12413   */\n      dup3\n        /* \"#utility.yul\":12403:12404   */\n      dup2\n        /* \"#utility.yul\":12400:12414   */\n      lt\n        /* \"#utility.yul\":12392:12600   */\n      iszero\n      tag_339\n      jumpi\n        /* \"#utility.yul\":12485:12494   */\n      dup5\n        /* \"#utility.yul\":12480:12483   */\n      dup10\n        /* \"#utility.yul\":12476:12495   */\n      add\n        /* \"#utility.yul\":12470:12496   */\n      mload\n        /* \"#utility.yul\":12462:12468   */\n      dup3\n        /* \"#utility.yul\":12455:12497   */\n      sstore\n        /* \"#utility.yul\":12536:12537   */\n      0x01\n        /* \"#utility.yul\":12528:12534   */\n      dup3\n        /* \"#utility.yul\":12524:12538   */\n      add\n        /* \"#utility.yul\":12514:12538   */\n      swap2\n      pop\n        /* \"#utility.yul\":12583:12585   */\n      0x20\n        /* \"#utility.yul\":12572:12581   */\n      dup6\n        /* \"#utility.yul\":12568:12586   */\n      add\n        /* \"#utility.yul\":12555:12586   */\n      swap5\n      pop\n        /* \"#utility.yul\":12429:12433   */\n      0x20\n        /* \"#utility.yul\":12426:12427   */\n      dup2\n        /* \"#utility.yul\":12422:12434   */\n      add\n        /* \"#utility.yul\":12417:12434   */\n      swap1\n      pop\n        /* \"#utility.yul\":12392:12600   */\n      jump(tag_337)\n    tag_339:\n        /* \"#utility.yul\":12628:12634   */\n      dup7\n        /* \"#utility.yul\":12619:12626   */\n      dup4\n        /* \"#utility.yul\":12616:12635   */\n      lt\n        /* \"#utility.yul\":12613:12792   */\n      iszero\n      tag_340\n      jumpi\n        /* \"#utility.yul\":12686:12695   */\n      dup5\n        /* \"#utility.yul\":12681:12684   */\n      dup10\n        /* \"#utility.yul\":12677:12696   */\n      add\n        /* \"#utility.yul\":12671:12697   */\n      mload\n        /* \"#utility.yul\":12729:12777   */\n      tag_341\n        /* \"#utility.yul\":12771:12775   */\n      0x1f\n        /* \"#utility.yul\":12763:12769   */\n      dup10\n        /* \"#utility.yul\":12759:12776   */\n      and\n        /* \"#utility.yul\":12748:12757   */\n      dup3\n        /* \"#utility.yul\":12729:12777   */\n      tag_173\n      jump\t// in\n    tag_341:\n        /* \"#utility.yul\":12721:12727   */\n      dup4\n        /* \"#utility.yul\":12714:12778   */\n      sstore\n        /* \"#utility.yul\":12636:12792   */\n      pop\n        /* \"#utility.yul\":12613:12792   */\n    tag_340:\n        /* \"#utility.yul\":12838:12839   */\n      0x01\n        /* \"#utility.yul\":12834:12835   */\n      0x02\n        /* \"#utility.yul\":12826:12832   */\n      dup9\n        /* \"#utility.yul\":12822:12836   */\n      mul\n        /* \"#utility.yul\":12818:12840   */\n      add\n        /* \"#utility.yul\":12812:12816   */\n      dup9\n        /* \"#utility.yul\":12805:12841   */\n      sstore\n        /* \"#utility.yul\":12240:12851   */\n      pop\n      pop\n      pop\n        /* \"#utility.yul\":12203:13090   */\n    tag_332:\n      pop\n        /* \"#utility.yul\":11793:13096   */\n      pop\n      pop\n      pop\n        /* \"#utility.yul\":11701:13096   */\n      pop\n      pop\n      jump\t// out\n        /* \"#utility.yul\":13102:13525   */\n    tag_65:\n        /* \"#utility.yul\":13243:13247   */\n      0x00\n        /* \"#utility.yul\":13281:13283   */\n      0x40\n        /* \"#utility.yul\":13270:13279   */\n      dup3\n        /* \"#utility.yul\":13266:13284   */\n      add\n        /* \"#utility.yul\":13258:13284   */\n      swap1\n      pop\n        /* \"#utility.yul\":13330:13339   */\n      dup2\n        /* \"#utility.yul\":13324:13328   */\n      dup2\n        /* \"#utility.yul\":13320:13340   */\n      sub\n        /* \"#utility.yul\":13316:13317   */\n      0x00\n        /* \"#utility.yul\":13305:13314   */\n      dup4\n        /* \"#utility.yul\":13301:13318   */\n      add\n        /* \"#utility.yul\":13294:13341   */\n      mstore\n        /* \"#utility.yul\":13358:13436   */\n      tag_343\n        /* \"#utility.yul\":13431:13435   */\n      dup2\n        /* \"#utility.yul\":13422:13428   */\n      dup6\n        /* \"#utility.yul\":13358:13436   */\n      tag_134\n      jump\t// in\n    tag_343:\n        /* \"#utility.yul\":13350:13436   */\n      swap1\n      pop\n        /* \"#utility.yul\":13446:13518   */\n      tag_344\n        /* \"#utility.yul\":13514:13516   */\n      0x20\n        /* \"#utility.yul\":13503:13512   */\n      dup4\n        /* \"#utility.yul\":13499:13517   */\n      add\n        /* \"#utility.yul\":13490:13496   */\n      dup5\n        /* \"#utility.yul\":13446:13518   */\n      tag_136\n      jump\t// in\n    tag_344:\n        /* \"#utility.yul\":13102:13525   */\n      swap4\n      swap3\n      pop\n      pop\n      pop\n      jump\t// out\n        /* \"#utility.yul\":13531:13701   */\n    tag_175:\n        /* \"#utility.yul\":13671:13693   */\n      0x496e76616c696420616374696f6e20696e646578000000000000000000000000\n        /* \"#utility.yul\":13667:13668   */\n      0x00\n        /* \"#utility.yul\":13659:13665   */\n      dup3\n        /* \"#utility.yul\":13655:13669   */\n      add\n        /* \"#utility.yul\":13648:13694   */\n      mstore\n        /* \"#utility.yul\":13531:13701   */\n      pop\n      jump\t// out\n        /* \"#utility.yul\":13707:14073   */\n    tag_176:\n        /* \"#utility.yul\":13849:13852   */\n      0x00\n        /* \"#utility.yul\":13870:13937   */\n      tag_347\n        /* \"#utility.yul\":13934:13936   */\n      0x14\n        /* \"#utility.yul\":13929:13932   */\n      dup4\n        /* \"#utility.yul\":13870:13937   */\n      tag_131\n      jump\t// in\n    tag_347:\n        /* \"#utility.yul\":13863:13937   */\n      swap2\n      pop\n        /* \"#utility.yul\":13946:14039   */\n      tag_348\n        /* \"#utility.yul\":14035:14038   */\n      dup3\n        /* \"#utility.yul\":13946:14039   */\n      tag_175\n      jump\t// in\n    tag_348:\n        /* \"#utility.yul\":14064:14066   */\n      0x20\n        /* \"#utility.yul\":14059:14062   */\n      dup3\n        /* \"#utility.yul\":14055:14067   */\n      add\n        /* \"#utility.yul\":14048:14067   */\n      swap1\n      pop\n        /* \"#utility.yul\":13707:14073   */\n      swap2\n      swap1\n      pop\n      jump\t// out\n        /* \"#utility.yul\":14079:14498   */\n    tag_69:\n        /* \"#utility.yul\":14245:14249   */\n      0x00\n        /* \"#utility.yul\":14283:14285   */\n      0x20\n        /* \"#utility.yul\":14272:14281   */\n      dup3\n        /* \"#utility.yul\":14268:14286   */\n      add\n        /* \"#utility.yul\":14260:14286   */\n      swap1\n      pop\n        /* \"#utility.yul\":14332:14341   */\n      dup2\n        /* \"#utility.yul\":14326:14330   */\n      dup2\n        /* \"#utility.yul\":14322:14342   */\n      sub\n        /* \"#utility.yul\":14318:14319   */\n      0x00\n        /* \"#utility.yul\":14307:14316   */\n      dup4\n        /* \"#utility.yul\":14303:14320   */\n      add\n        /* \"#utility.yul\":14296:14343   */\n      mstore\n        /* \"#utility.yul\":14360:14491   */\n      tag_350\n        /* \"#utility.yul\":14486:14490   */\n      dup2\n        /* \"#utility.yul\":14360:14491   */\n      tag_176\n      jump\t// in\n    tag_350:\n        /* \"#utility.yul\":14352:14491   */\n      swap1\n      pop\n        /* \"#utility.yul\":14079:14498   */\n      swap2\n      swap1\n      pop\n      jump\t// out\n        /* \"#utility.yul\":14504:14684   */\n    tag_72:\n        /* \"#utility.yul\":14552:14629   */\n      0x4e487b7100000000000000000000000000000000000000000000000000000000\n        /* \"#utility.yul\":14549:14550   */\n      0x00\n        /* \"#utility.yul\":14542:14630   */\n      mstore\n        /* \"#utility.yul\":14649:14653   */\n      0x32\n        /* \"#utility.yul\":14646:14647   */\n      0x04\n        /* \"#utility.yul\":14639:14654   */\n      mstore\n        /* \"#utility.yul\":14673:14677   */\n      0x24\n        /* \"#utility.yul\":14670:14671   */\n      0x00\n        /* \"#utility.yul\":14663:14678   */\n      revert\n        /* \"#utility.yul\":14690:14856   */\n    tag_177:\n        /* \"#utility.yul\":14830:14848   */\n      0x416c726561647920766572696669656400000000000000000000000000000000\n        /* \"#utility.yul\":14826:14827   */\n      0x00\n        /* \"#utility.yul\":14818:14824   */\n      dup3\n        /* \"#utility.yul\":14814:14828   */\n      add\n        /* \"#utility.yul\":14807:14849   */\n      mstore\n        /* \"#utility.yul\":14690:14856   */\n      pop\n      jump\t// out\n        /* \"#utility.yul\":14862:15228   */\n    tag_178:\n        /* \"#utility.yul\":15004:15007   */\n      0x00\n        /* \"#utility.yul\":15025:15092   */\n      tag_354\n        /* \"#utility.yul\":15089:15091   */\n      0x10\n        /* \"#utility.yul\":15084:15087   */\n      dup4\n        /* \"#utility.yul\":15025:15092   */\n      tag_131\n      jump\t// in\n    tag_354:\n        /* \"#utility.yul\":15018:15092   */\n      swap2\n      pop\n        /* \"#utility.yul\":15101:15194   */\n      tag_355\n        /* \"#utility.yul\":15190:15193   */\n      dup3\n        /* \"#utility.yul\":15101:15194   */\n      tag_177\n      jump\t// in\n    tag_355:\n        /* \"#utility.yul\":15219:15221   */\n      0x20\n        /* \"#utility.yul\":15214:15217   */\n      dup3\n        /* \"#utility.yul\":15210:15222   */\n      add\n        /* \"#utility.yul\":15203:15222   */\n      swap1\n      pop\n        /* \"#utility.yul\":14862:15228   */\n      swap2\n      swap1\n      pop\n      jump\t// out\n        /* \"#utility.yul\":15234:15653   */\n    tag_76:\n        /* \"#utility.yul\":15400:15404   */\n      0x00\n        /* \"#utility.yul\":15438:15440   */\n      0x20\n        /* \"#utility.yul\":15427:15436   */\n      dup3\n        /* \"#utility.yul\":15423:15441   */\n      add\n        /* \"#utility.yul\":15415:15441   */\n      swap1\n      pop\n        /* \"#utility.yul\":15487:15496   */\n      dup2\n        /* \"#utility.yul\":15481:15485   */\n      dup2\n        /* \"#utility.yul\":15477:15497   */\n      sub\n        /* \"#utility.yul\":15473:15474   */\n      0x00\n        /* \"#utility.yul\":15462:15471   */\n      dup4\n        /* \"#utility.yul\":15458:15475   */\n      add\n        /* \"#utility.yul\":15451:15498   */\n      mstore\n        /* \"#utility.yul\":15515:15646   */\n      tag_357\n        /* \"#utility.yul\":15641:15645   */\n      dup2\n        /* \"#utility.yul\":15515:15646   */\n      tag_178\n      jump\t// in\n    tag_357:\n        /* \"#utility.yul\":15507:15646   */\n      swap1\n      pop\n        /* \"#utility.yul\":15234:15653   */\n      swap2\n      swap1\n      pop\n      jump\t// out\n        /* \"#utility.yul\":15659:15839   */\n    tag_179:\n        /* \"#utility.yul\":15707:15784   */\n      0x4e487b7100000000000000000000000000000000000000000000000000000000\n        /* \"#utility.yul\":15704:15705   */\n      0x00\n        /* \"#utility.yul\":15697:15785   */\n      mstore\n        /* \"#utility.yul\":15804:15808   */\n      0x11\n        /* \"#utility.yul\":15801:15802   */\n      0x04\n        /* \"#utility.yul\":15794:15809   */\n      mstore\n        /* \"#utility.yul\":15828:15832   */\n      0x24\n        /* \"#utility.yul\":15825:15826   */\n      0x00\n        /* \"#utility.yul\":15818:15833   */\n      revert\n        /* \"#utility.yul\":15845:16036   */\n    tag_84:\n        /* \"#utility.yul\":15885:15888   */\n      0x00\n        /* \"#utility.yul\":15904:15924   */\n      tag_360\n        /* \"#utility.yul\":15922:15923   */\n      dup3\n        /* \"#utility.yul\":15904:15924   */\n      tag_135\n      jump\t// in\n    tag_360:\n        /* \"#utility.yul\":15899:15924   */\n      swap2\n      pop\n        /* \"#utility.yul\":15938:15958   */\n      tag_361\n        /* \"#utility.yul\":15956:15957   */\n      dup4\n        /* \"#utility.yul\":15938:15958   */\n      tag_135\n      jump\t// in\n    tag_361:\n        /* \"#utility.yul\":15933:15958   */\n      swap3\n      pop\n        /* \"#utility.yul\":15981:15982   */\n      dup3\n        /* \"#utility.yul\":15978:15979   */\n      dup3\n        /* \"#utility.yul\":15974:15983   */\n      add\n        /* \"#utility.yul\":15967:15983   */\n      swap1\n      pop\n        /* \"#utility.yul\":16002:16005   */\n      dup1\n        /* \"#utility.yul\":15999:16000   */\n      dup3\n        /* \"#utility.yul\":15996:16006   */\n      gt\n        /* \"#utility.yul\":15993:16029   */\n      iszero\n      tag_362\n      jumpi\n        /* \"#utility.yul\":16009:16027   */\n      tag_363\n      tag_179\n      jump\t// in\n    tag_363:\n        /* \"#utility.yul\":15993:16029   */\n    tag_362:\n        /* \"#utility.yul\":15845:16036   */\n      swap3\n      swap2\n      pop\n      pop\n      jump\t// out\n        /* \"#utility.yul\":16042:16207   */\n    tag_180:\n        /* \"#utility.yul\":16182:16199   */\n      0x496e76616c696420616464726573730000000000000000000000000000000000\n        /* \"#utility.yul\":16178:16179   */\n      0x00\n        /* \"#utility.yul\":16170:16176   */\n      dup3\n        /* \"#utility.yul\":16166:16180   */\n      add\n        /* \"#utility.yul\":16159:16200   */\n      mstore\n        /* \"#utility.yul\":16042:16207   */\n      pop\n      jump\t// out\n        /* \"#utility.yul\":16213:16579   */\n    tag_181:\n        /* \"#utility.yul\":16355:16358   */\n      0x00\n        /* \"#utility.yul\":16376:16443   */\n      tag_366\n        /* \"#utility.yul\":16440:16442   */\n      0x0f\n        /* \"#utility.yul\":16435:16438   */\n      dup4\n        /* \"#utility.yul\":16376:16443   */\n      tag_131\n      jump\t// in\n    tag_366:\n        /* \"#utility.yul\":16369:16443   */\n      swap2\n      pop\n        /* \"#utility.yul\":16452:16545   */\n      tag_367\n        /* \"#utility.yul\":16541:16544   */\n      dup3\n        /* \"#utility.yul\":16452:16545   */\n      tag_180\n      jump\t// in\n    tag_367:\n        /* \"#utility.yul\":16570:16572   */\n      0x20\n        /* \"#utility.yul\":16565:16568   */\n      dup3\n        /* \"#utility.yul\":16561:16573   */\n      add\n        /* \"#utility.yul\":16554:16573   */\n      swap1\n      pop\n        /* \"#utility.yul\":16213:16579   */\n      swap2\n      swap1\n      pop\n      jump\t// out\n        /* \"#utility.yul\":16585:17004   */\n    tag_108:\n        /* \"#utility.yul\":16751:16755   */\n      0x00\n        /* \"#utility.yul\":16789:16791   */\n      0x20\n        /* \"#utility.yul\":16778:16787   */\n      dup3\n        /* \"#utility.yul\":16774:16792   */\n      add\n        /* \"#utility.yul\":16766:16792   */\n      swap1\n      pop\n        /* \"#utility.yul\":16838:16847   */\n      dup2\n        /* \"#utility.yul\":16832:16836   */\n      dup2\n        /* \"#utility.yul\":16828:16848   */\n      sub\n        /* \"#utility.yul\":16824:16825   */\n      0x00\n        /* \"#utility.yul\":16813:16822   */\n      dup4\n        /* \"#utility.yul\":16809:16826   */\n      add\n        /* \"#utility.yul\":16802:16849   */\n      mstore\n        /* \"#utility.yul\":16866:16997   */\n      tag_369\n        /* \"#utility.yul\":16992:16996   */\n      dup2\n        /* \"#utility.yul\":16866:16997   */\n      tag_181\n      jump\t// in\n    tag_369:\n        /* \"#utility.yul\":16858:16997   */\n      swap1\n      pop\n        /* \"#utility.yul\":16585:17004   */\n      swap2\n      swap1\n      pop\n      jump\t// out\n        /* \"#utility.yul\":17010:17180   */\n    tag_182:\n        /* \"#utility.yul\":17150:17172   */\n      0x496e73756666696369656e742062616c616e6365000000000000000000000000\n        /* \"#utility.yul\":17146:17147   */\n      0x00\n        /* \"#utility.yul\":17138:17144   */\n      dup3\n        /* \"#utility.yul\":17134:17148   */\n      add\n        /* \"#utility.yul\":17127:17173   */\n      mstore\n        /* \"#utility.yul\":17010:17180   */\n      pop\n      jump\t// out\n        /* \"#utility.yul\":17186:17552   */\n    tag_183:\n        /* \"#utility.yul\":17328:17331   */\n      0x00\n        /* \"#utility.yul\":17349:17416   */\n      tag_372\n        /* \"#utility.yul\":17413:17415   */\n      0x14\n        /* \"#utility.yul\":17408:17411   */\n      dup4\n        /* \"#utility.yul\":17349:17416   */\n      tag_131\n      jump\t// in\n    tag_372:\n        /* \"#utility.yul\":17342:17416   */\n      swap2\n      pop\n        /* \"#utility.yul\":17425:17518   */\n      tag_373\n        /* \"#utility.yul\":17514:17517   */\n      dup3\n        /* \"#utility.yul\":17425:17518   */\n      tag_182\n      jump\t// in\n    tag_373:\n        /* \"#utility.yul\":17543:17545   */\n      0x20\n        /* \"#utility.yul\":17538:17541   */\n      dup3\n        /* \"#utility.yul\":17534:17546   */\n      add\n        /* \"#utility.yul\":17527:17546   */\n      swap1\n      pop\n        /* \"#utility.yul\":17186:17552   */\n      swap2\n      swap1\n      pop\n      jump\t// out\n        /* \"#utility.yul\":17558:17977   */\n    tag_111:\n        /* \"#utility.yul\":17724:17728   */\n      0x00\n        /* \"#utility.yul\":17762:17764   */\n      0x20\n        /* \"#utility.yul\":17751:17760   */\n      dup3\n        /* \"#utility.yul\":17747:17765   */\n      add\n        /* \"#utility.yul\":17739:17765   */\n      swap1\n      pop\n        /* \"#utility.yul\":17811:17820   */\n      dup2\n        /* \"#utility.yul\":17805:17809   */\n      dup2\n        /* \"#utility.yul\":17801:17821   */\n      sub\n        /* \"#utility.yul\":17797:17798   */\n      0x00\n        /* \"#utility.yul\":17786:17795   */\n      dup4\n        /* \"#utility.yul\":17782:17799   */\n      add\n        /* \"#utility.yul\":17775:17822   */\n      mstore\n        /* \"#utility.yul\":17839:17970   */\n      tag_375\n        /* \"#utility.yul\":17965:17969   */\n      dup2\n        /* \"#utility.yul\":17839:17970   */\n      tag_183\n      jump\t// in\n    tag_375:\n        /* \"#utility.yul\":17831:17970   */\n      swap1\n      pop\n        /* \"#utility.yul\":17558:17977   */\n      swap2\n      swap1\n      pop\n      jump\t// out\n        /* \"#utility.yul\":17983:18177   */\n    tag_113:\n        /* \"#utility.yul\":18023:18027   */\n      0x00\n        /* \"#utility.yul\":18043:18063   */\n      tag_377\n        /* \"#utility.yul\":18061:18062   */\n      dup3\n        /* \"#utility.yul\":18043:18063   */\n      tag_135\n      jump\t// in\n    tag_377:\n        /* \"#utility.yul\":18038:18063   */\n      swap2\n      pop\n        /* \"#utility.yul\":18077:18097   */\n      tag_378\n        /* \"#utility.yul\":18095:18096   */\n      dup4\n        /* \"#utility.yul\":18077:18097   */\n      tag_135\n      jump\t// in\n    tag_378:\n        /* \"#utility.yul\":18072:18097   */\n      swap3\n      pop\n        /* \"#utility.yul\":18121:18122   */\n      dup3\n        /* \"#utility.yul\":18118:18119   */\n      dup3\n        /* \"#utility.yul\":18114:18123   */\n      sub\n        /* \"#utility.yul\":18106:18123   */\n      swap1\n      pop\n        /* \"#utility.yul\":18145:18146   */\n      dup2\n        /* \"#utility.yul\":18139:18143   */\n      dup2\n        /* \"#utility.yul\":18136:18147   */\n      gt\n        /* \"#utility.yul\":18133:18170   */\n      iszero\n      tag_379\n      jumpi\n        /* \"#utility.yul\":18150:18168   */\n      tag_380\n      tag_179\n      jump\t// in\n    tag_380:\n        /* \"#utility.yul\":18133:18170   */\n    tag_379:\n        /* \"#utility.yul\":17983:18177   */\n      swap3\n      swap2\n      pop\n      pop\n      jump\t// out\n        /* \"#utility.yul\":18183:18331   */\n    tag_184:\n        /* \"#utility.yul\":18285:18296   */\n      0x00\n        /* \"#utility.yul\":18322:18325   */\n      dup2\n        /* \"#utility.yul\":18307:18325   */\n      swap1\n      pop\n        /* \"#utility.yul\":18183:18331   */\n      swap3\n      swap2\n      pop\n      pop\n      jump\t// out\n        /* \"#utility.yul\":18337:18727   */\n    tag_185:\n        /* \"#utility.yul\":18443:18446   */\n      0x00\n        /* \"#utility.yul\":18471:18510   */\n      tag_383\n        /* \"#utility.yul\":18504:18509   */\n      dup3\n        /* \"#utility.yul\":18471:18510   */\n      tag_130\n      jump\t// in\n    tag_383:\n        /* \"#utility.yul\":18526:18615   */\n      tag_384\n        /* \"#utility.yul\":18608:18614   */\n      dup2\n        /* \"#utility.yul\":18603:18606   */\n      dup6\n        /* \"#utility.yul\":18526:18615   */\n      tag_184\n      jump\t// in\n    tag_384:\n        /* \"#utility.yul\":18519:18615   */\n      swap4\n      pop\n        /* \"#utility.yul\":18624:18689   */\n      tag_385\n        /* \"#utility.yul\":18682:18688   */\n      dup2\n        /* \"#utility.yul\":18677:18680   */\n      dup6\n        /* \"#utility.yul\":18670:18674   */\n      0x20\n        /* \"#utility.yul\":18663:18668   */\n      dup7\n        /* \"#utility.yul\":18659:18675   */\n      add\n        /* \"#utility.yul\":18624:18689   */\n      tag_132\n      jump\t// in\n    tag_385:\n        /* \"#utility.yul\":18714:18720   */\n      dup1\n        /* \"#utility.yul\":18709:18712   */\n      dup5\n        /* \"#utility.yul\":18705:18721   */\n      add\n        /* \"#utility.yul\":18698:18721   */\n      swap2\n      pop\n        /* \"#utility.yul\":18447:18727   */\n      pop\n        /* \"#utility.yul\":18337:18727   */\n      swap3\n      swap2\n      pop\n      pop\n      jump\t// out\n        /* \"#utility.yul\":18733:19008   */\n    tag_118:\n        /* \"#utility.yul\":18865:18868   */\n      0x00\n        /* \"#utility.yul\":18887:18982   */\n      tag_387\n        /* \"#utility.yul\":18978:18981   */\n      dup3\n        /* \"#utility.yul\":18969:18975   */\n      dup5\n        /* \"#utility.yul\":18887:18982   */\n      tag_185\n      jump\t// in\n    tag_387:\n        /* \"#utility.yul\":18880:18982   */\n      swap2\n      pop\n        /* \"#utility.yul\":18999:19002   */\n      dup2\n        /* \"#utility.yul\":18992:19002   */\n      swap1\n      pop\n        /* \"#utility.yul\":18733:19008   */\n      swap3\n      swap2\n      pop\n      pop\n      jump\t// out\n        /* \"#utility.yul\":19014:19173   */\n    tag_186:\n        /* \"#utility.yul\":19154:19165   */\n      0x72656379636c696e670000000000000000000000000000000000000000000000\n        /* \"#utility.yul\":19150:19151   */\n      0x00\n        /* \"#utility.yul\":19142:19148   */\n      dup3\n        /* \"#utility.yul\":19138:19152   */\n      add\n        /* \"#utility.yul\":19131:19166   */\n      mstore\n        /* \"#utility.yul\":19014:19173   */\n      pop\n      jump\t// out\n        /* \"#utility.yul\":19179:19579   */\n    tag_187:\n        /* \"#utility.yul\":19339:19342   */\n      0x00\n        /* \"#utility.yul\":19360:19444   */\n      tag_390\n        /* \"#utility.yul\":19442:19443   */\n      0x09\n        /* \"#utility.yul\":19437:19440   */\n      dup4\n        /* \"#utility.yul\":19360:19444   */\n      tag_184\n      jump\t// in\n    tag_390:\n        /* \"#utility.yul\":19353:19444   */\n      swap2\n      pop\n        /* \"#utility.yul\":19453:19546   */\n      tag_391\n        /* \"#utility.yul\":19542:19545   */\n      dup3\n        /* \"#utility.yul\":19453:19546   */\n      tag_186\n      jump\t// in\n    tag_391:\n        /* \"#utility.yul\":19571:19572   */\n      0x09\n        /* \"#utility.yul\":19566:19569   */\n      dup3\n        /* \"#utility.yul\":19562:19573   */\n      add\n        /* \"#utility.yul\":19555:19573   */\n      swap1\n      pop\n        /* \"#utility.yul\":19179:19579   */\n      swap2\n      swap1\n      pop\n      jump\t// out\n        /* \"#utility.yul\":19585:19966   */\n    tag_120:\n        /* \"#utility.yul\":19770:19773   */\n      0x00\n        /* \"#utility.yul\":19792:19940   */\n      tag_393\n        /* \"#utility.yul\":19936:19939   */\n      dup3\n        /* \"#utility.yul\":19792:19940   */\n      tag_187\n      jump\t// in\n    tag_393:\n        /* \"#utility.yul\":19785:19940   */\n      swap2\n      pop\n        /* \"#utility.yul\":19957:19960   */\n      dup2\n        /* \"#utility.yul\":19950:19960   */\n      swap1\n      pop\n        /* \"#utility.yul\":19585:19966   */\n      swap2\n      swap1\n      pop\n      jump\t// out\n        /* \"#utility.yul\":19972:20135   */\n    tag_188:\n        /* \"#utility.yul\":20112:20127   */\n      0x656e657267795f736176696e6700000000000000000000000000000000000000\n        /* \"#utility.yul\":20108:20109   */\n      0x00\n        /* \"#utility.yul\":20100:20106   */\n      dup3\n        /* \"#utility.yul\":20096:20110   */\n      add\n        /* \"#utility.yul\":20089:20128   */\n      mstore\n        /* \"#utility.yul\":19972:20135   */\n      pop\n      jump\t// out\n        /* \"#utility.yul\":20141:20543   */\n    tag_189:\n        /* \"#utility.yul\":20301:20304   */\n      0x00\n        /* \"#utility.yul\":20322:20407   */\n      tag_396\n        /* \"#utility.yul\":20404:20406   */\n      0x0d\n        /* \"#utility.yul\":20399:20402   */\n      dup4\n        /* \"#utility.yul\":20322:20407   */\n      tag_184\n      jump\t// in\n    tag_396:\n        /* \"#utility.yul\":20315:20407   */\n      swap2\n      pop\n        /* \"#utility.yul\":20416:20509   */\n      tag_397\n        /* \"#utility.yul\":20505:20508   */\n      dup3\n        /* \"#utility.yul\":20416:20509   */\n      tag_188\n      jump\t// in\n    tag_397:\n        /* \"#utility.yul\":20534:20536   */\n      0x0d\n        /* \"#utility.yul\":20529:20532   */\n      dup3\n        /* \"#utility.yul\":20525:20537   */\n      add\n        /* \"#utility.yul\":20518:20537   */\n      swap1\n      pop\n        /* \"#utility.yul\":20141:20543   */\n      swap2\n      swap1\n      pop\n      jump\t// out\n        /* \"#utility.yul\":20549:20930   */\n    tag_124:\n        /* \"#utility.yul\":20734:20737   */\n      0x00\n        /* \"#utility.yul\":20756:20904   */\n      tag_399\n        /* \"#utility.yul\":20900:20903   */\n      dup3\n        /* \"#utility.yul\":20756:20904   */\n      tag_189\n      jump\t// in\n    tag_399:\n        /* \"#utility.yul\":20749:20904   */\n      swap2\n      pop\n        /* \"#utility.yul\":20921:20924   */\n      dup2\n        /* \"#utility.yul\":20914:20924   */\n      swap1\n      pop\n        /* \"#utility.yul\":20549:20930   */\n      swap2\n      swap1\n      pop\n      jump\t// out\n        /* \"#utility.yul\":20936:21097   */\n    tag_190:\n        /* \"#utility.yul\":21076:21089   */\n      0x616e696d616c5f63617265000000000000000000000000000000000000000000\n        /* \"#utility.yul\":21072:21073   */\n      0x00\n        /* \"#utility.yul\":21064:21070   */\n      dup3\n        /* \"#utility.yul\":21060:21074   */\n      add\n        /* \"#utility.yul\":21053:21090   */\n      mstore\n        /* \"#utility.yul\":20936:21097   */\n      pop\n      jump\t// out\n        /* \"#utility.yul\":21103:21505   */\n    tag_191:\n        /* \"#utility.yul\":21263:21266   */\n      0x00\n        /* \"#utility.yul\":21284:21369   */\n      tag_402\n        /* \"#utility.yul\":21366:21368   */\n      0x0b\n        /* \"#utility.yul\":21361:21364   */\n      dup4\n        /* \"#utility.yul\":21284:21369   */\n      tag_184\n      jump\t// in\n    tag_402:\n        /* \"#utility.yul\":21277:21369   */\n      swap2\n      pop\n        /* \"#utility.yul\":21378:21471   */\n      tag_403\n        /* \"#utility.yul\":21467:21470   */\n      dup3\n        /* \"#utility.yul\":21378:21471   */\n      tag_190\n      jump\t// in\n    tag_403:\n        /* \"#utility.yul\":21496:21498   */\n      0x0b\n        /* \"#utility.yul\":21491:21494   */\n      dup3\n        /* \"#utility.yul\":21487:21499   */\n      add\n        /* \"#utility.yul\":21480:21499   */\n      swap1\n      pop\n        /* \"#utility.yul\":21103:21505   */\n      swap2\n      swap1\n      pop\n      jump\t// out\n        /* \"#utility.yul\":21511:21892   */\n    tag_128:\n        /* \"#utility.yul\":21696:21699   */\n      0x00\n        /* \"#utility.yul\":21718:21866   */\n      tag_405\n        /* \"#utility.yul\":21862:21865   */\n      dup3\n        /* \"#utility.yul\":21718:21866   */\n      tag_191\n      jump\t// in\n    tag_405:\n        /* \"#utility.yul\":21711:21866   */\n      swap2\n      pop\n        /* \"#utility.yul\":21883:21886   */\n      dup2\n        /* \"#utility.yul\":21876:21886   */\n      swap1\n      pop\n        /* \"#utility.yul\":21511:21892   */\n      swap2\n      swap1\n      pop\n      jump\t// out\n\n    auxdata: 0xa2646970667358221220a31f3575f797454909ad79c637d5cbd78ac308ee4fd0721fa3cbeb580d17314164736f6c634300081a0033\n}\n",
				"bytecode": {
					"linkReferences": {},
					"object": "608060405234801561000f575f80fd5b506040518060400160405280600f81526020017f436f6c64486f75736520546f6b656e00000000000000000000000000000000008152506040518060400160405280600381526020017f4348430000000000000000000000000000000000000000000000000000000000815250815f908161008a91906102f7565b50806001908161009a91906102f7565b50601260025f6101000a81548160ff021916908360ff16021790555050506103c6565b5f81519050919050565b7f4e487b71000000000000000000000000000000000000000000000000000000005f52604160045260245ffd5b7f4e487b71000000000000000000000000000000000000000000000000000000005f52602260045260245ffd5b5f600282049050600182168061013857607f821691505b60208210810361014b5761014a6100f4565b5b50919050565b5f819050815f5260205f209050919050565b5f6020601f8301049050919050565b5f82821b905092915050565b5f600883026101ad7fffffffffffffffffffffffffffffffffffffffffffffffffffffffffffffffff82610172565b6101b78683610172565b95508019841693508086168417925050509392505050565b5f819050919050565b5f819050919050565b5f6101fb6101f66101f1846101cf565b6101d8565b6101cf565b9050919050565b5f819050919050565b610214836101e1565b61022861022082610202565b84845461017e565b825550505050565b5f90565b61023c610230565b61024781848461020b565b505050565b5b8181101561026a5761025f5f82610234565b60018101905061024d565b5050565b601f8211156102af5761028081610151565b61028984610163565b81016020851015610298578190505b6102ac6102a485610163565b83018261024c565b50505b505050565b5f82821c905092915050565b5f6102cf5f19846008026102b4565b1980831691505092915050565b5f6102e783836102c0565b9150826002028217905092915050565b610300826100bd565b67ffffffffffffffff811115610319576103186100c7565b5b6103238254610121565b61032e82828561026e565b5f60209050601f83116001811461035f575f841561034d578287015190505b61035785826102dc565b8655506103be565b601f19841661036d86610151565b5f5b828110156103945784890151825560018201915060208501945060208101905061036f565b868310156103b157848901516103ad601f8916826102c0565b8355505b6001600288020188555050505b505050505050565b61170a806103d35f395ff3fe608060405234801561000f575f80fd5b5060043610610091575f3560e01c80636bbee24d116100645780636bbee24d1461010b57806370a08231146101275780637b4072911461015757806395d89b411461018b578063a9059cbb146101a957610091565b806306fdde031461009557806318160ddd146100b3578063313ce567146100d1578063630a9b9b146100ef575b5f80fd5b61009d6101d9565b6040516100aa9190610c5c565b60405180910390f35b6100bb610264565b6040516100c89190610c94565b60405180910390f35b6100d961026a565b6040516100e69190610cc8565b60405180910390f35b61010960048036038101906101049190610e1e565b61027c565b005b61012560048036038101906101209190610f18565b6103c8565b005b610141600480360381019061013c9190610f56565b6106f0565b60405161014e9190610c94565b60405180910390f35b610171600480360381019061016c9190610f18565b610705565b604051610182959493929190610f9b565b60405180910390f35b610193610869565b6040516101a09190610c5c565b60405180910390f35b6101c360048036038101906101be9190610f18565b6108f5565b6040516101d09190610ffa565b60405180910390f35b5f80546101e590611040565b80601f016020809104026020016040519081016040528092919081815260200182805461021190611040565b801561025c5780601f106102335761010080835404028352916020019161025c565b820191905f5260205f20905b81548152906001019060200180831161023f57829003601f168201915b505050505081565b60035481565b60025f9054906101000a900460ff1681565b5f61028683610af9565b905060055f3373ffffffffffffffffffffffffffffffffffffffff1673ffffffffffffffffffffffffffffffffffffffff1681526020019081526020015f206040518060a001604052808581526020018481526020014281526020018381526020015f1515815250908060018154018082558091505060019003905f5260205f2090600502015f909190919091505f820151815f019081610327919061120d565b50602082015181600101908161033d919061120d565b5060408201518160020155606082015181600301556080820151816004015f6101000a81548160ff02191690831515021790555050503373ffffffffffffffffffffffffffffffffffffffff167fec60f378e594ab387014e93657dd4c33e07e57559bd328eb98d7ea7512d62dd584836040516103bb9291906112dc565b60405180910390a2505050565b60055f8373ffffffffffffffffffffffffffffffffffffffff1673ffffffffffffffffffffffffffffffffffffffff1681526020019081526020015f2080549050811061044a576040517f08c379a000000000000000000000000000000000000000000000000000000000815260040161044190611354565b60405180910390fd5b60055f8373ffffffffffffffffffffffffffffffffffffffff1673ffffffffffffffffffffffffffffffffffffffff1681526020019081526020015f20818154811061049957610498611372565b5b905f5260205f2090600502016004015f9054906101000a900460ff16156104f5576040517f08c379a00000000000000000000000000000000000000000000000000000000081526004016104ec906113e9565b60405180910390fd5b600160055f8473ffffffffffffffffffffffffffffffffffffffff1673ffffffffffffffffffffffffffffffffffffffff1681526020019081526020015f20828154811061054657610545611372565b5b905f5260205f2090600502016004015f6101000a81548160ff0219169083151502179055505f60055f8473ffffffffffffffffffffffffffffffffffffffff1673ffffffffffffffffffffffffffffffffffffffff1681526020019081526020015f2082815481106105bb576105ba611372565b5b905f5260205f2090600502016003015490508060035f8282546105de9190611434565b925050819055508060045f8573ffffffffffffffffffffffffffffffffffffffff1673ffffffffffffffffffffffffffffffffffffffff1681526020019081526020015f205f8282546106319190611434565b925050819055508273ffffffffffffffffffffffffffffffffffffffff167f5f7c0c60141850279fd3b9f56a8c0fd092131cdecccfb50ea088e9a763d01ec98360405161067e9190610c94565b60405180910390a28273ffffffffffffffffffffffffffffffffffffffff165f73ffffffffffffffffffffffffffffffffffffffff167fddf252ad1be2c89b69c2b068fc378daa952ba7f163c4a11628f55a4df523b3ef836040516106e39190610c94565b60405180910390a3505050565b6004602052805f5260405f205f915090505481565b6005602052815f5260405f20818154811061071e575f80fd5b905f5260205f2090600502015f9150915050805f01805461073e90611040565b80601f016020809104026020016040519081016040528092919081815260200182805461076a90611040565b80156107b55780601f1061078c576101008083540402835291602001916107b5565b820191905f5260205f20905b81548152906001019060200180831161079857829003601f168201915b5050505050908060010180546107ca90611040565b80601f01602080910402602001604051908101604052809291908181526020018280546107f690611040565b80156108415780601f1061081857610100808354040283529160200191610841565b820191905f5260205f20905b81548152906001019060200180831161082457829003601f168201915b505050505090806002015490806003015490806004015f9054906101000a900460ff16905085565b6001805461087690611040565b80601f01602080910402602001604051908101604052809291908181526020018280546108a290611040565b80156108ed5780601f106108c4576101008083540402835291602001916108ed565b820191905f5260205f20905b8154815290600101906020018083116108d057829003601f168201915b505050505081565b5f8073ffffffffffffffffffffffffffffffffffffffff168373ffffffffffffffffffffffffffffffffffffffff1603610964576040517f08c379a000000000000000000000000000000000000000000000000000000000815260040161095b906114b1565b60405180910390fd5b8160045f3373ffffffffffffffffffffffffffffffffffffffff1673ffffffffffffffffffffffffffffffffffffffff1681526020019081526020015f205410156109e4576040517f08c379a00000000000000000000000000000000000000000000000000000000081526004016109db90611519565b60405180910390fd5b8160045f3373ffffffffffffffffffffffffffffffffffffffff1673ffffffffffffffffffffffffffffffffffffffff1681526020019081526020015f205f828254610a309190611537565b925050819055508160045f8573ffffffffffffffffffffffffffffffffffffffff1673ffffffffffffffffffffffffffffffffffffffff1681526020019081526020015f205f828254610a839190611434565b925050819055508273ffffffffffffffffffffffffffffffffffffffff163373ffffffffffffffffffffffffffffffffffffffff167fddf252ad1be2c89b69c2b068fc378daa952ba7f163c4a11628f55a4df523b3ef84604051610ae79190610c94565b60405180910390a36001905092915050565b5f8082604051602001610b0c91906115a4565b604051602081830303815290604052805190602001209050604051602001610b3390611604565b604051602081830303815290604052805190602001208103610b6057678ac7230489e80000915050610be7565b604051602001610b6f90611662565b604051602081830303815290604052805190602001208103610b9d576801158e460913d00000915050610be7565b604051602001610bac906116c0565b604051602081830303815290604052805190602001208103610bda576801a055690d9db80000915050610be7565b674563918244f400009150505b919050565b5f81519050919050565b5f82825260208201905092915050565b8281835e5f83830152505050565b5f601f19601f8301169050919050565b5f610c2e82610bec565b610c388185610bf6565b9350610c48818560208601610c06565b610c5181610c14565b840191505092915050565b5f6020820190508181035f830152610c748184610c24565b905092915050565b5f819050919050565b610c8e81610c7c565b82525050565b5f602082019050610ca75f830184610c85565b92915050565b5f60ff82169050919050565b610cc281610cad565b82525050565b5f602082019050610cdb5f830184610cb9565b92915050565b5f604051905090565b5f80fd5b5f80fd5b5f80fd5b5f80fd5b7f4e487b71000000000000000000000000000000000000000000000000000000005f52604160045260245ffd5b610d3082610c14565b810181811067ffffffffffffffff82111715610d4f57610d4e610cfa565b5b80604052505050565b5f610d61610ce1565b9050610d6d8282610d27565b919050565b5f67ffffffffffffffff821115610d8c57610d8b610cfa565b5b610d9582610c14565b9050602081019050919050565b828183375f83830152505050565b5f610dc2610dbd84610d72565b610d58565b905082815260208101848484011115610dde57610ddd610cf6565b5b610de9848285610da2565b509392505050565b5f82601f830112610e0557610e04610cf2565b5b8135610e15848260208601610db0565b91505092915050565b5f8060408385031215610e3457610e33610cea565b5b5f83013567ffffffffffffffff811115610e5157610e50610cee565b5b610e5d85828601610df1565b925050602083013567ffffffffffffffff811115610e7e57610e7d610cee565b5b610e8a85828601610df1565b9150509250929050565b5f73ffffffffffffffffffffffffffffffffffffffff82169050919050565b5f610ebd82610e94565b9050919050565b610ecd81610eb3565b8114610ed7575f80fd5b50565b5f81359050610ee881610ec4565b92915050565b610ef781610c7c565b8114610f01575f80fd5b50565b5f81359050610f1281610eee565b92915050565b5f8060408385031215610f2e57610f2d610cea565b5b5f610f3b85828601610eda565b9250506020610f4c85828601610f04565b9150509250929050565b5f60208284031215610f6b57610f6a610cea565b5b5f610f7884828501610eda565b91505092915050565b5f8115159050919050565b610f9581610f81565b82525050565b5f60a0820190508181035f830152610fb38188610c24565b90508181036020830152610fc78187610c24565b9050610fd66040830186610c85565b610fe36060830185610c85565b610ff06080830184610f8c565b9695505050505050565b5f60208201905061100d5f830184610f8c565b92915050565b7f4e487b71000000000000000000000000000000000000000000000000000000005f52602260045260245ffd5b5f600282049050600182168061105757607f821691505b60208210810361106a57611069611013565b5b50919050565b5f819050815f5260205f209050919050565b5f6020601f8301049050919050565b5f82821b905092915050565b5f600883026110cc7fffffffffffffffffffffffffffffffffffffffffffffffffffffffffffffffff82611091565b6110d68683611091565b95508019841693508086168417925050509392505050565b5f819050919050565b5f61111161110c61110784610c7c565b6110ee565b610c7c565b9050919050565b5f819050919050565b61112a836110f7565b61113e61113682611118565b84845461109d565b825550505050565b5f90565b611152611146565b61115d818484611121565b505050565b5b81811015611180576111755f8261114a565b600181019050611163565b5050565b601f8211156111c55761119681611070565b61119f84611082565b810160208510156111ae578190505b6111c26111ba85611082565b830182611162565b50505b505050565b5f82821c905092915050565b5f6111e55f19846008026111ca565b1980831691505092915050565b5f6111fd83836111d6565b9150826002028217905092915050565b61121682610bec565b67ffffffffffffffff81111561122f5761122e610cfa565b5b6112398254611040565b611244828285611184565b5f60209050601f831160018114611275575f8415611263578287015190505b61126d85826111f2565b8655506112d4565b601f19841661128386611070565b5f5b828110156112aa57848901518255600182019150602085019450602081019050611285565b868310156112c757848901516112c3601f8916826111d6565b8355505b6001600288020188555050505b505050505050565b5f6040820190508181035f8301526112f48185610c24565b90506113036020830184610c85565b9392505050565b7f496e76616c696420616374696f6e20696e6465780000000000000000000000005f82015250565b5f61133e601483610bf6565b91506113498261130a565b602082019050919050565b5f6020820190508181035f83015261136b81611332565b9050919050565b7f4e487b71000000000000000000000000000000000000000000000000000000005f52603260045260245ffd5b7f416c7265616479207665726966696564000000000000000000000000000000005f82015250565b5f6113d3601083610bf6565b91506113de8261139f565b602082019050919050565b5f6020820190508181035f830152611400816113c7565b9050919050565b7f4e487b71000000000000000000000000000000000000000000000000000000005f52601160045260245ffd5b5f61143e82610c7c565b915061144983610c7c565b925082820190508082111561146157611460611407565b5b92915050565b7f496e76616c6964206164647265737300000000000000000000000000000000005f82015250565b5f61149b600f83610bf6565b91506114a682611467565b602082019050919050565b5f6020820190508181035f8301526114c88161148f565b9050919050565b7f496e73756666696369656e742062616c616e63650000000000000000000000005f82015250565b5f611503601483610bf6565b915061150e826114cf565b602082019050919050565b5f6020820190508181035f830152611530816114f7565b9050919050565b5f61154182610c7c565b915061154c83610c7c565b925082820390508181111561156457611563611407565b5b92915050565b5f81905092915050565b5f61157e82610bec565b611588818561156a565b9350611598818560208601610c06565b80840191505092915050565b5f6115af8284611574565b915081905092915050565b7f72656379636c696e6700000000000000000000000000000000000000000000005f82015250565b5f6115ee60098361156a565b91506115f9826115ba565b600982019050919050565b5f61160e826115e2565b9150819050919050565b7f656e657267795f736176696e67000000000000000000000000000000000000005f82015250565b5f61164c600d8361156a565b915061165782611618565b600d82019050919050565b5f61166c82611640565b9150819050919050565b7f616e696d616c5f636172650000000000000000000000000000000000000000005f82015250565b5f6116aa600b8361156a565b91506116b582611676565b600b82019050919050565b5f6116ca8261169e565b915081905091905056fea2646970667358221220a31f3575f797454909ad79c637d5cbd78ac308ee4fd0721fa3cbeb580d17314164736f6c634300081a0033",
					"opcodes": "PUSH1 0x80 PUSH1 0x40 MSTORE CALLVALUE DUP1 ISZERO PUSH2 0xF JUMPI PUSH0 DUP1 REVERT JUMPDEST POP PUSH1 0x40 MLOAD DUP1 PUSH1 0x40 ADD PUSH1 0x40 MSTORE DUP1 PUSH1 0xF DUP2 MSTORE PUSH1 0x20 ADD PUSH32 0x436F6C64486F75736520546F6B656E0000000000000000000000000000000000 DUP2 MSTORE POP PUSH1 0x40 MLOAD DUP1 PUSH1 0x40 ADD PUSH1 0x40 MSTORE DUP1 PUSH1 0x3 DUP2 MSTORE PUSH1 0x20 ADD PUSH32 0x4348430000000000000000000000000000000000000000000000000000000000 DUP2 MSTORE POP DUP2 PUSH0 SWAP1 DUP2 PUSH2 0x8A SWAP2 SWAP1 PUSH2 0x2F7 JUMP JUMPDEST POP DUP1 PUSH1 0x1 SWAP1 DUP2 PUSH2 0x9A SWAP2 SWAP1 PUSH2 0x2F7 JUMP JUMPDEST POP PUSH1 0x12 PUSH1 0x2 PUSH0 PUSH2 0x100 EXP DUP2 SLOAD DUP2 PUSH1 0xFF MUL NOT AND SWAP1 DUP4 PUSH1 0xFF AND MUL OR SWAP1 SSTORE POP POP POP PUSH2 0x3C6 JUMP JUMPDEST PUSH0 DUP2 MLOAD SWAP1 POP SWAP2 SWAP1 POP JUMP JUMPDEST PUSH32 0x4E487B7100000000000000000000000000000000000000000000000000000000 PUSH0 MSTORE PUSH1 0x41 PUSH1 0x4 MSTORE PUSH1 0x24 PUSH0 REVERT JUMPDEST PUSH32 0x4E487B7100000000000000000000000000000000000000000000000000000000 PUSH0 MSTORE PUSH1 0x22 PUSH1 0x4 MSTORE PUSH1 0x24 PUSH0 REVERT JUMPDEST PUSH0 PUSH1 0x2 DUP3 DIV SWAP1 POP PUSH1 0x1 DUP3 AND DUP1 PUSH2 0x138 JUMPI PUSH1 0x7F DUP3 AND SWAP2 POP JUMPDEST PUSH1 0x20 DUP3 LT DUP2 SUB PUSH2 0x14B JUMPI PUSH2 0x14A PUSH2 0xF4 JUMP JUMPDEST JUMPDEST POP SWAP2 SWAP1 POP JUMP JUMPDEST PUSH0 DUP2 SWAP1 POP DUP2 PUSH0 MSTORE PUSH1 0x20 PUSH0 KECCAK256 SWAP1 POP SWAP2 SWAP1 POP JUMP JUMPDEST PUSH0 PUSH1 0x20 PUSH1 0x1F DUP4 ADD DIV SWAP1 POP SWAP2 SWAP1 POP JUMP JUMPDEST PUSH0 DUP3 DUP3 SHL SWAP1 POP SWAP3 SWAP2 POP POP JUMP JUMPDEST PUSH0 PUSH1 0x8 DUP4 MUL PUSH2 0x1AD PUSH32 0xFFFFFFFFFFFFFFFFFFFFFFFFFFFFFFFFFFFFFFFFFFFFFFFFFFFFFFFFFFFFFFFF DUP3 PUSH2 0x172 JUMP JUMPDEST PUSH2 0x1B7 DUP7 DUP4 PUSH2 0x172 JUMP JUMPDEST SWAP6 POP DUP1 NOT DUP5 AND SWAP4 POP DUP1 DUP7 AND DUP5 OR SWAP3 POP POP POP SWAP4 SWAP3 POP POP POP JUMP JUMPDEST PUSH0 DUP2 SWAP1 POP SWAP2 SWAP1 POP JUMP JUMPDEST PUSH0 DUP2 SWAP1 POP SWAP2 SWAP1 POP JUMP JUMPDEST PUSH0 PUSH2 0x1FB PUSH2 0x1F6 PUSH2 0x1F1 DUP5 PUSH2 0x1CF JUMP JUMPDEST PUSH2 0x1D8 JUMP JUMPDEST PUSH2 0x1CF JUMP JUMPDEST SWAP1 POP SWAP2 SWAP1 POP JUMP JUMPDEST PUSH0 DUP2 SWAP1 POP SWAP2 SWAP1 POP JUMP JUMPDEST PUSH2 0x214 DUP4 PUSH2 0x1E1 JUMP JUMPDEST PUSH2 0x228 PUSH2 0x220 DUP3 PUSH2 0x202 JUMP JUMPDEST DUP5 DUP5 SLOAD PUSH2 0x17E JUMP JUMPDEST DUP3 SSTORE POP POP POP POP JUMP JUMPDEST PUSH0 SWAP1 JUMP JUMPDEST PUSH2 0x23C PUSH2 0x230 JUMP JUMPDEST PUSH2 0x247 DUP2 DUP5 DUP5 PUSH2 0x20B JUMP JUMPDEST POP POP POP JUMP JUMPDEST JUMPDEST DUP2 DUP2 LT ISZERO PUSH2 0x26A JUMPI PUSH2 0x25F PUSH0 DUP3 PUSH2 0x234 JUMP JUMPDEST PUSH1 0x1 DUP2 ADD SWAP1 POP PUSH2 0x24D JUMP JUMPDEST POP POP JUMP JUMPDEST PUSH1 0x1F DUP3 GT ISZERO PUSH2 0x2AF JUMPI PUSH2 0x280 DUP2 PUSH2 0x151 JUMP JUMPDEST PUSH2 0x289 DUP5 PUSH2 0x163 JUMP JUMPDEST DUP2 ADD PUSH1 0x20 DUP6 LT ISZERO PUSH2 0x298 JUMPI DUP2 SWAP1 POP JUMPDEST PUSH2 0x2AC PUSH2 0x2A4 DUP6 PUSH2 0x163 JUMP JUMPDEST DUP4 ADD DUP3 PUSH2 0x24C JUMP JUMPDEST POP POP JUMPDEST POP POP POP JUMP JUMPDEST PUSH0 DUP3 DUP3 SHR SWAP1 POP SWAP3 SWAP2 POP POP JUMP JUMPDEST PUSH0 PUSH2 0x2CF PUSH0 NOT DUP5 PUSH1 0x8 MUL PUSH2 0x2B4 JUMP JUMPDEST NOT DUP1 DUP4 AND SWAP2 POP POP SWAP3 SWAP2 POP POP JUMP JUMPDEST PUSH0 PUSH2 0x2E7 DUP4 DUP4 PUSH2 0x2C0 JUMP JUMPDEST SWAP2 POP DUP3 PUSH1 0x2 MUL DUP3 OR SWAP1 POP SWAP3 SWAP2 POP POP JUMP JUMPDEST PUSH2 0x300 DUP3 PUSH2 0xBD JUMP JUMPDEST PUSH8 0xFFFFFFFFFFFFFFFF DUP2 GT ISZERO PUSH2 0x319 JUMPI PUSH2 0x318 PUSH2 0xC7 JUMP JUMPDEST JUMPDEST PUSH2 0x323 DUP3 SLOAD PUSH2 0x121 JUMP JUMPDEST PUSH2 0x32E DUP3 DUP3 DUP6 PUSH2 0x26E JUMP JUMPDEST PUSH0 PUSH1 0x20 SWAP1 POP PUSH1 0x1F DUP4 GT PUSH1 0x1 DUP2 EQ PUSH2 0x35F JUMPI PUSH0 DUP5 ISZERO PUSH2 0x34D JUMPI DUP3 DUP8 ADD MLOAD SWAP1 POP JUMPDEST PUSH2 0x357 DUP6 DUP3 PUSH2 0x2DC JUMP JUMPDEST DUP7 SSTORE POP PUSH2 0x3BE JUMP JUMPDEST PUSH1 0x1F NOT DUP5 AND PUSH2 0x36D DUP7 PUSH2 0x151 JUMP JUMPDEST PUSH0 JUMPDEST DUP3 DUP2 LT ISZERO PUSH2 0x394 JUMPI DUP5 DUP10 ADD MLOAD DUP3 SSTORE PUSH1 0x1 DUP3 ADD SWAP2 POP PUSH1 0x20 DUP6 ADD SWAP5 POP PUSH1 0x20 DUP2 ADD SWAP1 POP PUSH2 0x36F JUMP JUMPDEST DUP7 DUP4 LT ISZERO PUSH2 0x3B1 JUMPI DUP5 DUP10 ADD MLOAD PUSH2 0x3AD PUSH1 0x1F DUP10 AND DUP3 PUSH2 0x2C0 JUMP JUMPDEST DUP4 SSTORE POP JUMPDEST PUSH1 0x1 PUSH1 0x2 DUP9 MUL ADD DUP9 SSTORE POP POP POP JUMPDEST POP POP POP POP POP POP JUMP JUMPDEST PUSH2 0x170A DUP1 PUSH2 0x3D3 PUSH0 CODECOPY PUSH0 RETURN INVALID PUSH1 0x80 PUSH1 0x40 MSTORE CALLVALUE DUP1 ISZERO PUSH2 0xF JUMPI PUSH0 DUP1 REVERT JUMPDEST POP PUSH1 0x4 CALLDATASIZE LT PUSH2 0x91 JUMPI PUSH0 CALLDATALOAD PUSH1 0xE0 SHR DUP1 PUSH4 0x6BBEE24D GT PUSH2 0x64 JUMPI DUP1 PUSH4 0x6BBEE24D EQ PUSH2 0x10B JUMPI DUP1 PUSH4 0x70A08231 EQ PUSH2 0x127 JUMPI DUP1 PUSH4 0x7B407291 EQ PUSH2 0x157 JUMPI DUP1 PUSH4 0x95D89B41 EQ PUSH2 0x18B JUMPI DUP1 PUSH4 0xA9059CBB EQ PUSH2 0x1A9 JUMPI PUSH2 0x91 JUMP JUMPDEST DUP1 PUSH4 0x6FDDE03 EQ PUSH2 0x95 JUMPI DUP1 PUSH4 0x18160DDD EQ PUSH2 0xB3 JUMPI DUP1 PUSH4 0x313CE567 EQ PUSH2 0xD1 JUMPI DUP1 PUSH4 0x630A9B9B EQ PUSH2 0xEF JUMPI JUMPDEST PUSH0 DUP1 REVERT JUMPDEST PUSH2 0x9D PUSH2 0x1D9 JUMP JUMPDEST PUSH1 0x40 MLOAD PUSH2 0xAA SWAP2 SWAP1 PUSH2 0xC5C JUMP JUMPDEST PUSH1 0x40 MLOAD DUP1 SWAP2 SUB SWAP1 RETURN JUMPDEST PUSH2 0xBB PUSH2 0x264 JUMP JUMPDEST PUSH1 0x40 MLOAD PUSH2 0xC8 SWAP2 SWAP1 PUSH2 0xC94 JUMP JUMPDEST PUSH1 0x40 MLOAD DUP1 SWAP2 SUB SWAP1 RETURN JUMPDEST PUSH2 0xD9 PUSH2 0x26A JUMP JUMPDEST PUSH1 0x40 MLOAD PUSH2 0xE6 SWAP2 SWAP1 PUSH2 0xCC8 JUMP JUMPDEST PUSH1 0x40 MLOAD DUP1 SWAP2 SUB SWAP1 RETURN JUMPDEST PUSH2 0x109 PUSH1 0x4 DUP1 CALLDATASIZE SUB DUP2 ADD SWAP1 PUSH2 0x104 SWAP2 SWAP1 PUSH2 0xE1E JUMP JUMPDEST PUSH2 0x27C JUMP JUMPDEST STOP JUMPDEST PUSH2 0x125 PUSH1 0x4 DUP1 CALLDATASIZE SUB DUP2 ADD SWAP1 PUSH2 0x120 SWAP2 SWAP1 PUSH2 0xF18 JUMP JUMPDEST PUSH2 0x3C8 JUMP JUMPDEST STOP JUMPDEST PUSH2 0x141 PUSH1 0x4 DUP1 CALLDATASIZE SUB DUP2 ADD SWAP1 PUSH2 0x13C SWAP2 SWAP1 PUSH2 0xF56 JUMP JUMPDEST PUSH2 0x6F0 JUMP JUMPDEST PUSH1 0x40 MLOAD PUSH2 0x14E SWAP2 SWAP1 PUSH2 0xC94 JUMP JUMPDEST PUSH1 0x40 MLOAD DUP1 SWAP2 SUB SWAP1 RETURN JUMPDEST PUSH2 0x171 PUSH1 0x4 DUP1 CALLDATASIZE SUB DUP2 ADD SWAP1 PUSH2 0x16C SWAP2 SWAP1 PUSH2 0xF18 JUMP JUMPDEST PUSH2 0x705 JUMP JUMPDEST PUSH1 0x40 MLOAD PUSH2 0x182 SWAP6 SWAP5 SWAP4 SWAP3 SWAP2 SWAP1 PUSH2 0xF9B JUMP JUMPDEST PUSH1 0x40 MLOAD DUP1 SWAP2 SUB SWAP1 RETURN JUMPDEST PUSH2 0x193 PUSH2 0x869 JUMP JUMPDEST PUSH1 0x40 MLOAD PUSH2 0x1A0 SWAP2 SWAP1 PUSH2 0xC5C JUMP JUMPDEST PUSH1 0x40 MLOAD DUP1 SWAP2 SUB SWAP1 RETURN JUMPDEST PUSH2 0x1C3 PUSH1 0x4 DUP1 CALLDATASIZE SUB DUP2 ADD SWAP1 PUSH2 0x1BE SWAP2 SWAP1 PUSH2 0xF18 JUMP JUMPDEST PUSH2 0x8F5 JUMP JUMPDEST PUSH1 0x40 MLOAD PUSH2 0x1D0 SWAP2 SWAP1 PUSH2 0xFFA JUMP JUMPDEST PUSH1 0x40 MLOAD DUP1 SWAP2 SUB SWAP1 RETURN JUMPDEST PUSH0 DUP1 SLOAD PUSH2 0x1E5 SWAP1 PUSH2 0x1040 JUMP JUMPDEST DUP1 PUSH1 0x1F ADD PUSH1 0x20 DUP1 SWAP2 DIV MUL PUSH1 0x20 ADD PUSH1 0x40 MLOAD SWAP1 DUP2 ADD PUSH1 0x40 MSTORE DUP1 SWAP3 SWAP2 SWAP1 DUP2 DUP2 MSTORE PUSH1 0x20 ADD DUP3 DUP1 SLOAD PUSH2 0x211 SWAP1 PUSH2 0x1040 JUMP JUMPDEST DUP1 ISZERO PUSH2 0x25C JUMPI DUP1 PUSH1 0x1F LT PUSH2 0x233 JUMPI PUSH2 0x100 DUP1 DUP4 SLOAD DIV MUL DUP4 MSTORE SWAP2 PUSH1 0x20 ADD SWAP2 PUSH2 0x25C JUMP JUMPDEST DUP3 ADD SWAP2 SWAP1 PUSH0 MSTORE PUSH1 0x20 PUSH0 KECCAK256 SWAP1 JUMPDEST DUP2 SLOAD DUP2 MSTORE SWAP1 PUSH1 0x1 ADD SWAP1 PUSH1 0x20 ADD DUP1 DUP4 GT PUSH2 0x23F JUMPI DUP3 SWAP1 SUB PUSH1 0x1F AND DUP3 ADD SWAP2 JUMPDEST POP POP POP POP POP DUP2 JUMP JUMPDEST PUSH1 0x3 SLOAD DUP2 JUMP JUMPDEST PUSH1 0x2 PUSH0 SWAP1 SLOAD SWAP1 PUSH2 0x100 EXP SWAP1 DIV PUSH1 0xFF AND DUP2 JUMP JUMPDEST PUSH0 PUSH2 0x286 DUP4 PUSH2 0xAF9 JUMP JUMPDEST SWAP1 POP PUSH1 0x5 PUSH0 CALLER PUSH20 0xFFFFFFFFFFFFFFFFFFFFFFFFFFFFFFFFFFFFFFFF AND PUSH20 0xFFFFFFFFFFFFFFFFFFFFFFFFFFFFFFFFFFFFFFFF AND DUP2 MSTORE PUSH1 0x20 ADD SWAP1 DUP2 MSTORE PUSH1 0x20 ADD PUSH0 KECCAK256 PUSH1 0x40 MLOAD DUP1 PUSH1 0xA0 ADD PUSH1 0x40 MSTORE DUP1 DUP6 DUP2 MSTORE PUSH1 0x20 ADD DUP5 DUP2 MSTORE PUSH1 0x20 ADD TIMESTAMP DUP2 MSTORE PUSH1 0x20 ADD DUP4 DUP2 MSTORE PUSH1 0x20 ADD PUSH0 ISZERO ISZERO DUP2 MSTORE POP SWAP1 DUP1 PUSH1 0x1 DUP2 SLOAD ADD DUP1 DUP3 SSTORE DUP1 SWAP2 POP POP PUSH1 0x1 SWAP1 SUB SWAP1 PUSH0 MSTORE PUSH1 0x20 PUSH0 KECCAK256 SWAP1 PUSH1 0x5 MUL ADD PUSH0 SWAP1 SWAP2 SWAP1 SWAP2 SWAP1 SWAP2 POP PUSH0 DUP3 ADD MLOAD DUP2 PUSH0 ADD SWAP1 DUP2 PUSH2 0x327 SWAP2 SWAP1 PUSH2 0x120D JUMP JUMPDEST POP PUSH1 0x20 DUP3 ADD MLOAD DUP2 PUSH1 0x1 ADD SWAP1 DUP2 PUSH2 0x33D SWAP2 SWAP1 PUSH2 0x120D JUMP JUMPDEST POP PUSH1 0x40 DUP3 ADD MLOAD DUP2 PUSH1 0x2 ADD SSTORE PUSH1 0x60 DUP3 ADD MLOAD DUP2 PUSH1 0x3 ADD SSTORE PUSH1 0x80 DUP3 ADD MLOAD DUP2 PUSH1 0x4 ADD PUSH0 PUSH2 0x100 EXP DUP2 SLOAD DUP2 PUSH1 0xFF MUL NOT AND SWAP1 DUP4 ISZERO ISZERO MUL OR SWAP1 SSTORE POP POP POP CALLER PUSH20 0xFFFFFFFFFFFFFFFFFFFFFFFFFFFFFFFFFFFFFFFF AND PUSH32 0xEC60F378E594AB387014E93657DD4C33E07E57559BD328EB98D7EA7512D62DD5 DUP5 DUP4 PUSH1 0x40 MLOAD PUSH2 0x3BB SWAP3 SWAP2 SWAP1 PUSH2 0x12DC JUMP JUMPDEST PUSH1 0x40 MLOAD DUP1 SWAP2 SUB SWAP1 LOG2 POP POP POP JUMP JUMPDEST PUSH1 0x5 PUSH0 DUP4 PUSH20 0xFFFFFFFFFFFFFFFFFFFFFFFFFFFFFFFFFFFFFFFF AND PUSH20 0xFFFFFFFFFFFFFFFFFFFFFFFFFFFFFFFFFFFFFFFF AND DUP2 MSTORE PUSH1 0x20 ADD SWAP1 DUP2 MSTORE PUSH1 0x20 ADD PUSH0 KECCAK256 DUP1 SLOAD SWAP1 POP DUP2 LT PUSH2 0x44A JUMPI PUSH1 0x40 MLOAD PUSH32 0x8C379A000000000000000000000000000000000000000000000000000000000 DUP2 MSTORE PUSH1 0x4 ADD PUSH2 0x441 SWAP1 PUSH2 0x1354 JUMP JUMPDEST PUSH1 0x40 MLOAD DUP1 SWAP2 SUB SWAP1 REVERT JUMPDEST PUSH1 0x5 PUSH0 DUP4 PUSH20 0xFFFFFFFFFFFFFFFFFFFFFFFFFFFFFFFFFFFFFFFF AND PUSH20 0xFFFFFFFFFFFFFFFFFFFFFFFFFFFFFFFFFFFFFFFF AND DUP2 MSTORE PUSH1 0x20 ADD SWAP1 DUP2 MSTORE PUSH1 0x20 ADD PUSH0 KECCAK256 DUP2 DUP2 SLOAD DUP2 LT PUSH2 0x499 JUMPI PUSH2 0x498 PUSH2 0x1372 JUMP JUMPDEST JUMPDEST SWAP1 PUSH0 MSTORE PUSH1 0x20 PUSH0 KECCAK256 SWAP1 PUSH1 0x5 MUL ADD PUSH1 0x4 ADD PUSH0 SWAP1 SLOAD SWAP1 PUSH2 0x100 EXP SWAP1 DIV PUSH1 0xFF AND ISZERO PUSH2 0x4F5 JUMPI PUSH1 0x40 MLOAD PUSH32 0x8C379A000000000000000000000000000000000000000000000000000000000 DUP2 MSTORE PUSH1 0x4 ADD PUSH2 0x4EC SWAP1 PUSH2 0x13E9 JUMP JUMPDEST PUSH1 0x40 MLOAD DUP1 SWAP2 SUB SWAP1 REVERT JUMPDEST PUSH1 0x1 PUSH1 0x5 PUSH0 DUP5 PUSH20 0xFFFFFFFFFFFFFFFFFFFFFFFFFFFFFFFFFFFFFFFF AND PUSH20 0xFFFFFFFFFFFFFFFFFFFFFFFFFFFFFFFFFFFFFFFF AND DUP2 MSTORE PUSH1 0x20 ADD SWAP1 DUP2 MSTORE PUSH1 0x20 ADD PUSH0 KECCAK256 DUP3 DUP2 SLOAD DUP2 LT PUSH2 0x546 JUMPI PUSH2 0x545 PUSH2 0x1372 JUMP JUMPDEST JUMPDEST SWAP1 PUSH0 MSTORE PUSH1 0x20 PUSH0 KECCAK256 SWAP1 PUSH1 0x5 MUL ADD PUSH1 0x4 ADD PUSH0 PUSH2 0x100 EXP DUP2 SLOAD DUP2 PUSH1 0xFF MUL NOT AND SWAP1 DUP4 ISZERO ISZERO MUL OR SWAP1 SSTORE POP PUSH0 PUSH1 0x5 PUSH0 DUP5 PUSH20 0xFFFFFFFFFFFFFFFFFFFFFFFFFFFFFFFFFFFFFFFF AND PUSH20 0xFFFFFFFFFFFFFFFFFFFFFFFFFFFFFFFFFFFFFFFF AND DUP2 MSTORE PUSH1 0x20 ADD SWAP1 DUP2 MSTORE PUSH1 0x20 ADD PUSH0 KECCAK256 DUP3 DUP2 SLOAD DUP2 LT PUSH2 0x5BB JUMPI PUSH2 0x5BA PUSH2 0x1372 JUMP JUMPDEST JUMPDEST SWAP1 PUSH0 MSTORE PUSH1 0x20 PUSH0 KECCAK256 SWAP1 PUSH1 0x5 MUL ADD PUSH1 0x3 ADD SLOAD SWAP1 POP DUP1 PUSH1 0x3 PUSH0 DUP3 DUP3 SLOAD PUSH2 0x5DE SWAP2 SWAP1 PUSH2 0x1434 JUMP JUMPDEST SWAP3 POP POP DUP2 SWAP1 SSTORE POP DUP1 PUSH1 0x4 PUSH0 DUP6 PUSH20 0xFFFFFFFFFFFFFFFFFFFFFFFFFFFFFFFFFFFFFFFF AND PUSH20 0xFFFFFFFFFFFFFFFFFFFFFFFFFFFFFFFFFFFFFFFF AND DUP2 MSTORE PUSH1 0x20 ADD SWAP1 DUP2 MSTORE PUSH1 0x20 ADD PUSH0 KECCAK256 PUSH0 DUP3 DUP3 SLOAD PUSH2 0x631 SWAP2 SWAP1 PUSH2 0x1434 JUMP JUMPDEST SWAP3 POP POP DUP2 SWAP1 SSTORE POP DUP3 PUSH20 0xFFFFFFFFFFFFFFFFFFFFFFFFFFFFFFFFFFFFFFFF AND PUSH32 0x5F7C0C60141850279FD3B9F56A8C0FD092131CDECCCFB50EA088E9A763D01EC9 DUP4 PUSH1 0x40 MLOAD PUSH2 0x67E SWAP2 SWAP1 PUSH2 0xC94 JUMP JUMPDEST PUSH1 0x40 MLOAD DUP1 SWAP2 SUB SWAP1 LOG2 DUP3 PUSH20 0xFFFFFFFFFFFFFFFFFFFFFFFFFFFFFFFFFFFFFFFF AND PUSH0 PUSH20 0xFFFFFFFFFFFFFFFFFFFFFFFFFFFFFFFFFFFFFFFF AND PUSH32 0xDDF252AD1BE2C89B69C2B068FC378DAA952BA7F163C4A11628F55A4DF523B3EF DUP4 PUSH1 0x40 MLOAD PUSH2 0x6E3 SWAP2 SWAP1 PUSH2 0xC94 JUMP JUMPDEST PUSH1 0x40 MLOAD DUP1 SWAP2 SUB SWAP1 LOG3 POP POP POP JUMP JUMPDEST PUSH1 0x4 PUSH1 0x20 MSTORE DUP1 PUSH0 MSTORE PUSH1 0x40 PUSH0 KECCAK256 PUSH0 SWAP2 POP SWAP1 POP SLOAD DUP2 JUMP JUMPDEST PUSH1 0x5 PUSH1 0x20 MSTORE DUP2 PUSH0 MSTORE PUSH1 0x40 PUSH0 KECCAK256 DUP2 DUP2 SLOAD DUP2 LT PUSH2 0x71E JUMPI PUSH0 DUP1 REVERT JUMPDEST SWAP1 PUSH0 MSTORE PUSH1 0x20 PUSH0 KECCAK256 SWAP1 PUSH1 0x5 MUL ADD PUSH0 SWAP2 POP SWAP2 POP POP DUP1 PUSH0 ADD DUP1 SLOAD PUSH2 0x73E SWAP1 PUSH2 0x1040 JUMP JUMPDEST DUP1 PUSH1 0x1F ADD PUSH1 0x20 DUP1 SWAP2 DIV MUL PUSH1 0x20 ADD PUSH1 0x40 MLOAD SWAP1 DUP2 ADD PUSH1 0x40 MSTORE DUP1 SWAP3 SWAP2 SWAP1 DUP2 DUP2 MSTORE PUSH1 0x20 ADD DUP3 DUP1 SLOAD PUSH2 0x76A SWAP1 PUSH2 0x1040 JUMP JUMPDEST DUP1 ISZERO PUSH2 0x7B5 JUMPI DUP1 PUSH1 0x1F LT PUSH2 0x78C JUMPI PUSH2 0x100 DUP1 DUP4 SLOAD DIV MUL DUP4 MSTORE SWAP2 PUSH1 0x20 ADD SWAP2 PUSH2 0x7B5 JUMP JUMPDEST DUP3 ADD SWAP2 SWAP1 PUSH0 MSTORE PUSH1 0x20 PUSH0 KECCAK256 SWAP1 JUMPDEST DUP2 SLOAD DUP2 MSTORE SWAP1 PUSH1 0x1 ADD SWAP1 PUSH1 0x20 ADD DUP1 DUP4 GT PUSH2 0x798 JUMPI DUP3 SWAP1 SUB PUSH1 0x1F AND DUP3 ADD SWAP2 JUMPDEST POP POP POP POP POP SWAP1 DUP1 PUSH1 0x1 ADD DUP1 SLOAD PUSH2 0x7CA SWAP1 PUSH2 0x1040 JUMP JUMPDEST DUP1 PUSH1 0x1F ADD PUSH1 0x20 DUP1 SWAP2 DIV MUL PUSH1 0x20 ADD PUSH1 0x40 MLOAD SWAP1 DUP2 ADD PUSH1 0x40 MSTORE DUP1 SWAP3 SWAP2 SWAP1 DUP2 DUP2 MSTORE PUSH1 0x20 ADD DUP3 DUP1 SLOAD PUSH2 0x7F6 SWAP1 PUSH2 0x1040 JUMP JUMPDEST DUP1 ISZERO PUSH2 0x841 JUMPI DUP1 PUSH1 0x1F LT PUSH2 0x818 JUMPI PUSH2 0x100 DUP1 DUP4 SLOAD DIV MUL DUP4 MSTORE SWAP2 PUSH1 0x20 ADD SWAP2 PUSH2 0x841 JUMP JUMPDEST DUP3 ADD SWAP2 SWAP1 PUSH0 MSTORE PUSH1 0x20 PUSH0 KECCAK256 SWAP1 JUMPDEST DUP2 SLOAD DUP2 MSTORE SWAP1 PUSH1 0x1 ADD SWAP1 PUSH1 0x20 ADD DUP1 DUP4 GT PUSH2 0x824 JUMPI DUP3 SWAP1 SUB PUSH1 0x1F AND DUP3 ADD SWAP2 JUMPDEST POP POP POP POP POP SWAP1 DUP1 PUSH1 0x2 ADD SLOAD SWAP1 DUP1 PUSH1 0x3 ADD SLOAD SWAP1 DUP1 PUSH1 0x4 ADD PUSH0 SWAP1 SLOAD SWAP1 PUSH2 0x100 EXP SWAP1 DIV PUSH1 0xFF AND SWAP1 POP DUP6 JUMP JUMPDEST PUSH1 0x1 DUP1 SLOAD PUSH2 0x876 SWAP1 PUSH2 0x1040 JUMP JUMPDEST DUP1 PUSH1 0x1F ADD PUSH1 0x20 DUP1 SWAP2 DIV MUL PUSH1 0x20 ADD PUSH1 0x40 MLOAD SWAP1 DUP2 ADD PUSH1 0x40 MSTORE DUP1 SWAP3 SWAP2 SWAP1 DUP2 DUP2 MSTORE PUSH1 0x20 ADD DUP3 DUP1 SLOAD PUSH2 0x8A2 SWAP1 PUSH2 0x1040 JUMP JUMPDEST DUP1 ISZERO PUSH2 0x8ED JUMPI DUP1 PUSH1 0x1F LT PUSH2 0x8C4 JUMPI PUSH2 0x100 DUP1 DUP4 SLOAD DIV MUL DUP4 MSTORE SWAP2 PUSH1 0x20 ADD SWAP2 PUSH2 0x8ED JUMP JUMPDEST DUP3 ADD SWAP2 SWAP1 PUSH0 MSTORE PUSH1 0x20 PUSH0 KECCAK256 SWAP1 JUMPDEST DUP2 SLOAD DUP2 MSTORE SWAP1 PUSH1 0x1 ADD SWAP1 PUSH1 0x20 ADD DUP1 DUP4 GT PUSH2 0x8D0 JUMPI DUP3 SWAP1 SUB PUSH1 0x1F AND DUP3 ADD SWAP2 JUMPDEST POP POP POP POP POP DUP2 JUMP JUMPDEST PUSH0 DUP1 PUSH20 0xFFFFFFFFFFFFFFFFFFFFFFFFFFFFFFFFFFFFFFFF AND DUP4 PUSH20 0xFFFFFFFFFFFFFFFFFFFFFFFFFFFFFFFFFFFFFFFF AND SUB PUSH2 0x964 JUMPI PUSH1 0x40 MLOAD PUSH32 0x8C379A000000000000000000000000000000000000000000000000000000000 DUP2 MSTORE PUSH1 0x4 ADD PUSH2 0x95B SWAP1 PUSH2 0x14B1 JUMP JUMPDEST PUSH1 0x40 MLOAD DUP1 SWAP2 SUB SWAP1 REVERT JUMPDEST DUP2 PUSH1 0x4 PUSH0 CALLER PUSH20 0xFFFFFFFFFFFFFFFFFFFFFFFFFFFFFFFFFFFFFFFF AND PUSH20 0xFFFFFFFFFFFFFFFFFFFFFFFFFFFFFFFFFFFFFFFF AND DUP2 MSTORE PUSH1 0x20 ADD SWAP1 DUP2 MSTORE PUSH1 0x20 ADD PUSH0 KECCAK256 SLOAD LT ISZERO PUSH2 0x9E4 JUMPI PUSH1 0x40 MLOAD PUSH32 0x8C379A000000000000000000000000000000000000000000000000000000000 DUP2 MSTORE PUSH1 0x4 ADD PUSH2 0x9DB SWAP1 PUSH2 0x1519 JUMP JUMPDEST PUSH1 0x40 MLOAD DUP1 SWAP2 SUB SWAP1 REVERT JUMPDEST DUP2 PUSH1 0x4 PUSH0 CALLER PUSH20 0xFFFFFFFFFFFFFFFFFFFFFFFFFFFFFFFFFFFFFFFF AND PUSH20 0xFFFFFFFFFFFFFFFFFFFFFFFFFFFFFFFFFFFFFFFF AND DUP2 MSTORE PUSH1 0x20 ADD SWAP1 DUP2 MSTORE PUSH1 0x20 ADD PUSH0 KECCAK256 PUSH0 DUP3 DUP3 SLOAD PUSH2 0xA30 SWAP2 SWAP1 PUSH2 0x1537 JUMP JUMPDEST SWAP3 POP POP DUP2 SWAP1 SSTORE POP DUP2 PUSH1 0x4 PUSH0 DUP6 PUSH20 0xFFFFFFFFFFFFFFFFFFFFFFFFFFFFFFFFFFFFFFFF AND PUSH20 0xFFFFFFFFFFFFFFFFFFFFFFFFFFFFFFFFFFFFFFFF AND DUP2 MSTORE PUSH1 0x20 ADD SWAP1 DUP2 MSTORE PUSH1 0x20 ADD PUSH0 KECCAK256 PUSH0 DUP3 DUP3 SLOAD PUSH2 0xA83 SWAP2 SWAP1 PUSH2 0x1434 JUMP JUMPDEST SWAP3 POP POP DUP2 SWAP1 SSTORE POP DUP3 PUSH20 0xFFFFFFFFFFFFFFFFFFFFFFFFFFFFFFFFFFFFFFFF AND CALLER PUSH20 0xFFFFFFFFFFFFFFFFFFFFFFFFFFFFFFFFFFFFFFFF AND PUSH32 0xDDF252AD1BE2C89B69C2B068FC378DAA952BA7F163C4A11628F55A4DF523B3EF DUP5 PUSH1 0x40 MLOAD PUSH2 0xAE7 SWAP2 SWAP1 PUSH2 0xC94 JUMP JUMPDEST PUSH1 0x40 MLOAD DUP1 SWAP2 SUB SWAP1 LOG3 PUSH1 0x1 SWAP1 POP SWAP3 SWAP2 POP POP JUMP JUMPDEST PUSH0 DUP1 DUP3 PUSH1 0x40 MLOAD PUSH1 0x20 ADD PUSH2 0xB0C SWAP2 SWAP1 PUSH2 0x15A4 JUMP JUMPDEST PUSH1 0x40 MLOAD PUSH1 0x20 DUP2 DUP4 SUB SUB DUP2 MSTORE SWAP1 PUSH1 0x40 MSTORE DUP1 MLOAD SWAP1 PUSH1 0x20 ADD KECCAK256 SWAP1 POP PUSH1 0x40 MLOAD PUSH1 0x20 ADD PUSH2 0xB33 SWAP1 PUSH2 0x1604 JUMP JUMPDEST PUSH1 0x40 MLOAD PUSH1 0x20 DUP2 DUP4 SUB SUB DUP2 MSTORE SWAP1 PUSH1 0x40 MSTORE DUP1 MLOAD SWAP1 PUSH1 0x20 ADD KECCAK256 DUP2 SUB PUSH2 0xB60 JUMPI PUSH8 0x8AC7230489E80000 SWAP2 POP POP PUSH2 0xBE7 JUMP JUMPDEST PUSH1 0x40 MLOAD PUSH1 0x20 ADD PUSH2 0xB6F SWAP1 PUSH2 0x1662 JUMP JUMPDEST PUSH1 0x40 MLOAD PUSH1 0x20 DUP2 DUP4 SUB SUB DUP2 MSTORE SWAP1 PUSH1 0x40 MSTORE DUP1 MLOAD SWAP1 PUSH1 0x20 ADD KECCAK256 DUP2 SUB PUSH2 0xB9D JUMPI PUSH9 0x1158E460913D00000 SWAP2 POP POP PUSH2 0xBE7 JUMP JUMPDEST PUSH1 0x40 MLOAD PUSH1 0x20 ADD PUSH2 0xBAC SWAP1 PUSH2 0x16C0 JUMP JUMPDEST PUSH1 0x40 MLOAD PUSH1 0x20 DUP2 DUP4 SUB SUB DUP2 MSTORE SWAP1 PUSH1 0x40 MSTORE DUP1 MLOAD SWAP1 PUSH1 0x20 ADD KECCAK256 DUP2 SUB PUSH2 0xBDA JUMPI PUSH9 0x1A055690D9DB80000 SWAP2 POP POP PUSH2 0xBE7 JUMP JUMPDEST PUSH8 0x4563918244F40000 SWAP2 POP POP JUMPDEST SWAP2 SWAP1 POP JUMP JUMPDEST PUSH0 DUP2 MLOAD SWAP1 POP SWAP2 SWAP1 POP JUMP JUMPDEST PUSH0 DUP3 DUP3 MSTORE PUSH1 0x20 DUP3 ADD SWAP1 POP SWAP3 SWAP2 POP POP JUMP JUMPDEST DUP3 DUP2 DUP4 MCOPY PUSH0 DUP4 DUP4 ADD MSTORE POP POP POP JUMP JUMPDEST PUSH0 PUSH1 0x1F NOT PUSH1 0x1F DUP4 ADD AND SWAP1 POP SWAP2 SWAP1 POP JUMP JUMPDEST PUSH0 PUSH2 0xC2E DUP3 PUSH2 0xBEC JUMP JUMPDEST PUSH2 0xC38 DUP2 DUP6 PUSH2 0xBF6 JUMP JUMPDEST SWAP4 POP PUSH2 0xC48 DUP2 DUP6 PUSH1 0x20 DUP7 ADD PUSH2 0xC06 JUMP JUMPDEST PUSH2 0xC51 DUP2 PUSH2 0xC14 JUMP JUMPDEST DUP5 ADD SWAP2 POP POP SWAP3 SWAP2 POP POP JUMP JUMPDEST PUSH0 PUSH1 0x20 DUP3 ADD SWAP1 POP DUP2 DUP2 SUB PUSH0 DUP4 ADD MSTORE PUSH2 0xC74 DUP2 DUP5 PUSH2 0xC24 JUMP JUMPDEST SWAP1 POP SWAP3 SWAP2 POP POP JUMP JUMPDEST PUSH0 DUP2 SWAP1 POP SWAP2 SWAP1 POP JUMP JUMPDEST PUSH2 0xC8E DUP2 PUSH2 0xC7C JUMP JUMPDEST DUP3 MSTORE POP POP JUMP JUMPDEST PUSH0 PUSH1 0x20 DUP3 ADD SWAP1 POP PUSH2 0xCA7 PUSH0 DUP4 ADD DUP5 PUSH2 0xC85 JUMP JUMPDEST SWAP3 SWAP2 POP POP JUMP JUMPDEST PUSH0 PUSH1 0xFF DUP3 AND SWAP1 POP SWAP2 SWAP1 POP JUMP JUMPDEST PUSH2 0xCC2 DUP2 PUSH2 0xCAD JUMP JUMPDEST DUP3 MSTORE POP POP JUMP JUMPDEST PUSH0 PUSH1 0x20 DUP3 ADD SWAP1 POP PUSH2 0xCDB PUSH0 DUP4 ADD DUP5 PUSH2 0xCB9 JUMP JUMPDEST SWAP3 SWAP2 POP POP JUMP JUMPDEST PUSH0 PUSH1 0x40 MLOAD SWAP1 POP SWAP1 JUMP JUMPDEST PUSH0 DUP1 REVERT JUMPDEST PUSH0 DUP1 REVERT JUMPDEST PUSH0 DUP1 REVERT JUMPDEST PUSH0 DUP1 REVERT JUMPDEST PUSH32 0x4E487B7100000000000000000000000000000000000000000000000000000000 PUSH0 MSTORE PUSH1 0x41 PUSH1 0x4 MSTORE PUSH1 0x24 PUSH0 REVERT JUMPDEST PUSH2 0xD30 DUP3 PUSH2 0xC14 JUMP JUMPDEST DUP2 ADD DUP2 DUP2 LT PUSH8 0xFFFFFFFFFFFFFFFF DUP3 GT OR ISZERO PUSH2 0xD4F JUMPI PUSH2 0xD4E PUSH2 0xCFA JUMP JUMPDEST JUMPDEST DUP1 PUSH1 0x40 MSTORE POP POP POP JUMP JUMPDEST PUSH0 PUSH2 0xD61 PUSH2 0xCE1 JUMP JUMPDEST SWAP1 POP PUSH2 0xD6D DUP3 DUP3 PUSH2 0xD27 JUMP JUMPDEST SWAP2 SWAP1 POP JUMP JUMPDEST PUSH0 PUSH8 0xFFFFFFFFFFFFFFFF DUP3 GT ISZERO PUSH2 0xD8C JUMPI PUSH2 0xD8B PUSH2 0xCFA JUMP JUMPDEST JUMPDEST PUSH2 0xD95 DUP3 PUSH2 0xC14 JUMP JUMPDEST SWAP1 POP PUSH1 0x20 DUP2 ADD SWAP1 POP SWAP2 SWAP1 POP JUMP JUMPDEST DUP3 DUP2 DUP4 CALLDATACOPY PUSH0 DUP4 DUP4 ADD MSTORE POP POP POP JUMP JUMPDEST PUSH0 PUSH2 0xDC2 PUSH2 0xDBD DUP5 PUSH2 0xD72 JUMP JUMPDEST PUSH2 0xD58 JUMP JUMPDEST SWAP1 POP DUP3 DUP2 MSTORE PUSH1 0x20 DUP2 ADD DUP5 DUP5 DUP5 ADD GT ISZERO PUSH2 0xDDE JUMPI PUSH2 0xDDD PUSH2 0xCF6 JUMP JUMPDEST JUMPDEST PUSH2 0xDE9 DUP5 DUP3 DUP6 PUSH2 0xDA2 JUMP JUMPDEST POP SWAP4 SWAP3 POP POP POP JUMP JUMPDEST PUSH0 DUP3 PUSH1 0x1F DUP4 ADD SLT PUSH2 0xE05 JUMPI PUSH2 0xE04 PUSH2 0xCF2 JUMP JUMPDEST JUMPDEST DUP2 CALLDATALOAD PUSH2 0xE15 DUP5 DUP3 PUSH1 0x20 DUP7 ADD PUSH2 0xDB0 JUMP JUMPDEST SWAP2 POP POP SWAP3 SWAP2 POP POP JUMP JUMPDEST PUSH0 DUP1 PUSH1 0x40 DUP4 DUP6 SUB SLT ISZERO PUSH2 0xE34 JUMPI PUSH2 0xE33 PUSH2 0xCEA JUMP JUMPDEST JUMPDEST PUSH0 DUP4 ADD CALLDATALOAD PUSH8 0xFFFFFFFFFFFFFFFF DUP2 GT ISZERO PUSH2 0xE51 JUMPI PUSH2 0xE50 PUSH2 0xCEE JUMP JUMPDEST JUMPDEST PUSH2 0xE5D DUP6 DUP3 DUP7 ADD PUSH2 0xDF1 JUMP JUMPDEST SWAP3 POP POP PUSH1 0x20 DUP4 ADD CALLDATALOAD PUSH8 0xFFFFFFFFFFFFFFFF DUP2 GT ISZERO PUSH2 0xE7E JUMPI PUSH2 0xE7D PUSH2 0xCEE JUMP JUMPDEST JUMPDEST PUSH2 0xE8A DUP6 DUP3 DUP7 ADD PUSH2 0xDF1 JUMP JUMPDEST SWAP2 POP POP SWAP3 POP SWAP3 SWAP1 POP JUMP JUMPDEST PUSH0 PUSH20 0xFFFFFFFFFFFFFFFFFFFFFFFFFFFFFFFFFFFFFFFF DUP3 AND SWAP1 POP SWAP2 SWAP1 POP JUMP JUMPDEST PUSH0 PUSH2 0xEBD DUP3 PUSH2 0xE94 JUMP JUMPDEST SWAP1 POP SWAP2 SWAP1 POP JUMP JUMPDEST PUSH2 0xECD DUP2 PUSH2 0xEB3 JUMP JUMPDEST DUP2 EQ PUSH2 0xED7 JUMPI PUSH0 DUP1 REVERT JUMPDEST POP JUMP JUMPDEST PUSH0 DUP2 CALLDATALOAD SWAP1 POP PUSH2 0xEE8 DUP2 PUSH2 0xEC4 JUMP JUMPDEST SWAP3 SWAP2 POP POP JUMP JUMPDEST PUSH2 0xEF7 DUP2 PUSH2 0xC7C JUMP JUMPDEST DUP2 EQ PUSH2 0xF01 JUMPI PUSH0 DUP1 REVERT JUMPDEST POP JUMP JUMPDEST PUSH0 DUP2 CALLDATALOAD SWAP1 POP PUSH2 0xF12 DUP2 PUSH2 0xEEE JUMP JUMPDEST SWAP3 SWAP2 POP POP JUMP JUMPDEST PUSH0 DUP1 PUSH1 0x40 DUP4 DUP6 SUB SLT ISZERO PUSH2 0xF2E JUMPI PUSH2 0xF2D PUSH2 0xCEA JUMP JUMPDEST JUMPDEST PUSH0 PUSH2 0xF3B DUP6 DUP3 DUP7 ADD PUSH2 0xEDA JUMP JUMPDEST SWAP3 POP POP PUSH1 0x20 PUSH2 0xF4C DUP6 DUP3 DUP7 ADD PUSH2 0xF04 JUMP JUMPDEST SWAP2 POP POP SWAP3 POP SWAP3 SWAP1 POP JUMP JUMPDEST PUSH0 PUSH1 0x20 DUP3 DUP5 SUB SLT ISZERO PUSH2 0xF6B JUMPI PUSH2 0xF6A PUSH2 0xCEA JUMP JUMPDEST JUMPDEST PUSH0 PUSH2 0xF78 DUP5 DUP3 DUP6 ADD PUSH2 0xEDA JUMP JUMPDEST SWAP2 POP POP SWAP3 SWAP2 POP POP JUMP JUMPDEST PUSH0 DUP2 ISZERO ISZERO SWAP1 POP SWAP2 SWAP1 POP JUMP JUMPDEST PUSH2 0xF95 DUP2 PUSH2 0xF81 JUMP JUMPDEST DUP3 MSTORE POP POP JUMP JUMPDEST PUSH0 PUSH1 0xA0 DUP3 ADD SWAP1 POP DUP2 DUP2 SUB PUSH0 DUP4 ADD MSTORE PUSH2 0xFB3 DUP2 DUP9 PUSH2 0xC24 JUMP JUMPDEST SWAP1 POP DUP2 DUP2 SUB PUSH1 0x20 DUP4 ADD MSTORE PUSH2 0xFC7 DUP2 DUP8 PUSH2 0xC24 JUMP JUMPDEST SWAP1 POP PUSH2 0xFD6 PUSH1 0x40 DUP4 ADD DUP7 PUSH2 0xC85 JUMP JUMPDEST PUSH2 0xFE3 PUSH1 0x60 DUP4 ADD DUP6 PUSH2 0xC85 JUMP JUMPDEST PUSH2 0xFF0 PUSH1 0x80 DUP4 ADD DUP5 PUSH2 0xF8C JUMP JUMPDEST SWAP7 SWAP6 POP POP POP POP POP POP JUMP JUMPDEST PUSH0 PUSH1 0x20 DUP3 ADD SWAP1 POP PUSH2 0x100D PUSH0 DUP4 ADD DUP5 PUSH2 0xF8C JUMP JUMPDEST SWAP3 SWAP2 POP POP JUMP JUMPDEST PUSH32 0x4E487B7100000000000000000000000000000000000000000000000000000000 PUSH0 MSTORE PUSH1 0x22 PUSH1 0x4 MSTORE PUSH1 0x24 PUSH0 REVERT JUMPDEST PUSH0 PUSH1 0x2 DUP3 DIV SWAP1 POP PUSH1 0x1 DUP3 AND DUP1 PUSH2 0x1057 JUMPI PUSH1 0x7F DUP3 AND SWAP2 POP JUMPDEST PUSH1 0x20 DUP3 LT DUP2 SUB PUSH2 0x106A JUMPI PUSH2 0x1069 PUSH2 0x1013 JUMP JUMPDEST JUMPDEST POP SWAP2 SWAP1 POP JUMP JUMPDEST PUSH0 DUP2 SWAP1 POP DUP2 PUSH0 MSTORE PUSH1 0x20 PUSH0 KECCAK256 SWAP1 POP SWAP2 SWAP1 POP JUMP JUMPDEST PUSH0 PUSH1 0x20 PUSH1 0x1F DUP4 ADD DIV SWAP1 POP SWAP2 SWAP1 POP JUMP JUMPDEST PUSH0 DUP3 DUP3 SHL SWAP1 POP SWAP3 SWAP2 POP POP JUMP JUMPDEST PUSH0 PUSH1 0x8 DUP4 MUL PUSH2 0x10CC PUSH32 0xFFFFFFFFFFFFFFFFFFFFFFFFFFFFFFFFFFFFFFFFFFFFFFFFFFFFFFFFFFFFFFFF DUP3 PUSH2 0x1091 JUMP JUMPDEST PUSH2 0x10D6 DUP7 DUP4 PUSH2 0x1091 JUMP JUMPDEST SWAP6 POP DUP1 NOT DUP5 AND SWAP4 POP DUP1 DUP7 AND DUP5 OR SWAP3 POP POP POP SWAP4 SWAP3 POP POP POP JUMP JUMPDEST PUSH0 DUP2 SWAP1 POP SWAP2 SWAP1 POP JUMP JUMPDEST PUSH0 PUSH2 0x1111 PUSH2 0x110C PUSH2 0x1107 DUP5 PUSH2 0xC7C JUMP JUMPDEST PUSH2 0x10EE JUMP JUMPDEST PUSH2 0xC7C JUMP JUMPDEST SWAP1 POP SWAP2 SWAP1 POP JUMP JUMPDEST PUSH0 DUP2 SWAP1 POP SWAP2 SWAP1 POP JUMP JUMPDEST PUSH2 0x112A DUP4 PUSH2 0x10F7 JUMP JUMPDEST PUSH2 0x113E PUSH2 0x1136 DUP3 PUSH2 0x1118 JUMP JUMPDEST DUP5 DUP5 SLOAD PUSH2 0x109D JUMP JUMPDEST DUP3 SSTORE POP POP POP POP JUMP JUMPDEST PUSH0 SWAP1 JUMP JUMPDEST PUSH2 0x1152 PUSH2 0x1146 JUMP JUMPDEST PUSH2 0x115D DUP2 DUP5 DUP5 PUSH2 0x1121 JUMP JUMPDEST POP POP POP JUMP JUMPDEST JUMPDEST DUP2 DUP2 LT ISZERO PUSH2 0x1180 JUMPI PUSH2 0x1175 PUSH0 DUP3 PUSH2 0x114A JUMP JUMPDEST PUSH1 0x1 DUP2 ADD SWAP1 POP PUSH2 0x1163 JUMP JUMPDEST POP POP JUMP JUMPDEST PUSH1 0x1F DUP3 GT ISZERO PUSH2 0x11C5 JUMPI PUSH2 0x1196 DUP2 PUSH2 0x1070 JUMP JUMPDEST PUSH2 0x119F DUP5 PUSH2 0x1082 JUMP JUMPDEST DUP2 ADD PUSH1 0x20 DUP6 LT ISZERO PUSH2 0x11AE JUMPI DUP2 SWAP1 POP JUMPDEST PUSH2 0x11C2 PUSH2 0x11BA DUP6 PUSH2 0x1082 JUMP JUMPDEST DUP4 ADD DUP3 PUSH2 0x1162 JUMP JUMPDEST POP POP JUMPDEST POP POP POP JUMP JUMPDEST PUSH0 DUP3 DUP3 SHR SWAP1 POP SWAP3 SWAP2 POP POP JUMP JUMPDEST PUSH0 PUSH2 0x11E5 PUSH0 NOT DUP5 PUSH1 0x8 MUL PUSH2 0x11CA JUMP JUMPDEST NOT DUP1 DUP4 AND SWAP2 POP POP SWAP3 SWAP2 POP POP JUMP JUMPDEST PUSH0 PUSH2 0x11FD DUP4 DUP4 PUSH2 0x11D6 JUMP JUMPDEST SWAP2 POP DUP3 PUSH1 0x2 MUL DUP3 OR SWAP1 POP SWAP3 SWAP2 POP POP JUMP JUMPDEST PUSH2 0x1216 DUP3 PUSH2 0xBEC JUMP JUMPDEST PUSH8 0xFFFFFFFFFFFFFFFF DUP2 GT ISZERO PUSH2 0x122F JUMPI PUSH2 0x122E PUSH2 0xCFA JUMP JUMPDEST JUMPDEST PUSH2 0x1239 DUP3 SLOAD PUSH2 0x1040 JUMP JUMPDEST PUSH2 0x1244 DUP3 DUP3 DUP6 PUSH2 0x1184 JUMP JUMPDEST PUSH0 PUSH1 0x20 SWAP1 POP PUSH1 0x1F DUP4 GT PUSH1 0x1 DUP2 EQ PUSH2 0x1275 JUMPI PUSH0 DUP5 ISZERO PUSH2 0x1263 JUMPI DUP3 DUP8 ADD MLOAD SWAP1 POP JUMPDEST PUSH2 0x126D DUP6 DUP3 PUSH2 0x11F2 JUMP JUMPDEST DUP7 SSTORE POP PUSH2 0x12D4 JUMP JUMPDEST PUSH1 0x1F NOT DUP5 AND PUSH2 0x1283 DUP7 PUSH2 0x1070 JUMP JUMPDEST PUSH0 JUMPDEST DUP3 DUP2 LT ISZERO PUSH2 0x12AA JUMPI DUP5 DUP10 ADD MLOAD DUP3 SSTORE PUSH1 0x1 DUP3 ADD SWAP2 POP PUSH1 0x20 DUP6 ADD SWAP5 POP PUSH1 0x20 DUP2 ADD SWAP1 POP PUSH2 0x1285 JUMP JUMPDEST DUP7 DUP4 LT ISZERO PUSH2 0x12C7 JUMPI DUP5 DUP10 ADD MLOAD PUSH2 0x12C3 PUSH1 0x1F DUP10 AND DUP3 PUSH2 0x11D6 JUMP JUMPDEST DUP4 SSTORE POP JUMPDEST PUSH1 0x1 PUSH1 0x2 DUP9 MUL ADD DUP9 SSTORE POP POP POP JUMPDEST POP POP POP POP POP POP JUMP JUMPDEST PUSH0 PUSH1 0x40 DUP3 ADD SWAP1 POP DUP2 DUP2 SUB PUSH0 DUP4 ADD MSTORE PUSH2 0x12F4 DUP2 DUP6 PUSH2 0xC24 JUMP JUMPDEST SWAP1 POP PUSH2 0x1303 PUSH1 0x20 DUP4 ADD DUP5 PUSH2 0xC85 JUMP JUMPDEST SWAP4 SWAP3 POP POP POP JUMP JUMPDEST PUSH32 0x496E76616C696420616374696F6E20696E646578000000000000000000000000 PUSH0 DUP3 ADD MSTORE POP JUMP JUMPDEST PUSH0 PUSH2 0x133E PUSH1 0x14 DUP4 PUSH2 0xBF6 JUMP JUMPDEST SWAP2 POP PUSH2 0x1349 DUP3 PUSH2 0x130A JUMP JUMPDEST PUSH1 0x20 DUP3 ADD SWAP1 POP SWAP2 SWAP1 POP JUMP JUMPDEST PUSH0 PUSH1 0x20 DUP3 ADD SWAP1 POP DUP2 DUP2 SUB PUSH0 DUP4 ADD MSTORE PUSH2 0x136B DUP2 PUSH2 0x1332 JUMP JUMPDEST SWAP1 POP SWAP2 SWAP1 POP JUMP JUMPDEST PUSH32 0x4E487B7100000000000000000000000000000000000000000000000000000000 PUSH0 MSTORE PUSH1 0x32 PUSH1 0x4 MSTORE PUSH1 0x24 PUSH0 REVERT JUMPDEST PUSH32 0x416C726561647920766572696669656400000000000000000000000000000000 PUSH0 DUP3 ADD MSTORE POP JUMP JUMPDEST PUSH0 PUSH2 0x13D3 PUSH1 0x10 DUP4 PUSH2 0xBF6 JUMP JUMPDEST SWAP2 POP PUSH2 0x13DE DUP3 PUSH2 0x139F JUMP JUMPDEST PUSH1 0x20 DUP3 ADD SWAP1 POP SWAP2 SWAP1 POP JUMP JUMPDEST PUSH0 PUSH1 0x20 DUP3 ADD SWAP1 POP DUP2 DUP2 SUB PUSH0 DUP4 ADD MSTORE PUSH2 0x1400 DUP2 PUSH2 0x13C7 JUMP JUMPDEST SWAP1 POP SWAP2 SWAP1 POP JUMP JUMPDEST PUSH32 0x4E487B7100000000000000000000000000000000000000000000000000000000 PUSH0 MSTORE PUSH1 0x11 PUSH1 0x4 MSTORE PUSH1 0x24 PUSH0 REVERT JUMPDEST PUSH0 PUSH2 0x143E DUP3 PUSH2 0xC7C JUMP JUMPDEST SWAP2 POP PUSH2 0x1449 DUP4 PUSH2 0xC7C JUMP JUMPDEST SWAP3 POP DUP3 DUP3 ADD SWAP1 POP DUP1 DUP3 GT ISZERO PUSH2 0x1461 JUMPI PUSH2 0x1460 PUSH2 0x1407 JUMP JUMPDEST JUMPDEST SWAP3 SWAP2 POP POP JUMP JUMPDEST PUSH32 0x496E76616C696420616464726573730000000000000000000000000000000000 PUSH0 DUP3 ADD MSTORE POP JUMP JUMPDEST PUSH0 PUSH2 0x149B PUSH1 0xF DUP4 PUSH2 0xBF6 JUMP JUMPDEST SWAP2 POP PUSH2 0x14A6 DUP3 PUSH2 0x1467 JUMP JUMPDEST PUSH1 0x20 DUP3 ADD SWAP1 POP SWAP2 SWAP1 POP JUMP JUMPDEST PUSH0 PUSH1 0x20 DUP3 ADD SWAP1 POP DUP2 DUP2 SUB PUSH0 DUP4 ADD MSTORE PUSH2 0x14C8 DUP2 PUSH2 0x148F JUMP JUMPDEST SWAP1 POP SWAP2 SWAP1 POP JUMP JUMPDEST PUSH32 0x496E73756666696369656E742062616C616E6365000000000000000000000000 PUSH0 DUP3 ADD MSTORE POP JUMP JUMPDEST PUSH0 PUSH2 0x1503 PUSH1 0x14 DUP4 PUSH2 0xBF6 JUMP JUMPDEST SWAP2 POP PUSH2 0x150E DUP3 PUSH2 0x14CF JUMP JUMPDEST PUSH1 0x20 DUP3 ADD SWAP1 POP SWAP2 SWAP1 POP JUMP JUMPDEST PUSH0 PUSH1 0x20 DUP3 ADD SWAP1 POP DUP2 DUP2 SUB PUSH0 DUP4 ADD MSTORE PUSH2 0x1530 DUP2 PUSH2 0x14F7 JUMP JUMPDEST SWAP1 POP SWAP2 SWAP1 POP JUMP JUMPDEST PUSH0 PUSH2 0x1541 DUP3 PUSH2 0xC7C JUMP JUMPDEST SWAP2 POP PUSH2 0x154C DUP4 PUSH2 0xC7C JUMP JUMPDEST SWAP3 POP DUP3 DUP3 SUB SWAP1 POP DUP2 DUP2 GT ISZERO PUSH2 0x1564 JUMPI PUSH2 0x1563 PUSH2 0x1407 JUMP JUMPDEST JUMPDEST SWAP3 SWAP2 POP POP JUMP JUMPDEST PUSH0 DUP2 SWAP1 POP SWAP3 SWAP2 POP POP JUMP JUMPDEST PUSH0 PUSH2 0x157E DUP3 PUSH2 0xBEC JUMP JUMPDEST PUSH2 0x1588 DUP2 DUP6 PUSH2 0x156A JUMP JUMPDEST SWAP4 POP PUSH2 0x1598 DUP2 DUP6 PUSH1 0x20 DUP7 ADD PUSH2 0xC06 JUMP JUMPDEST DUP1 DUP5 ADD SWAP2 POP POP SWAP3 SWAP2 POP POP JUMP JUMPDEST PUSH0 PUSH2 0x15AF DUP3 DUP5 PUSH2 0x1574 JUMP JUMPDEST SWAP2 POP DUP2 SWAP1 POP SWAP3 SWAP2 POP POP JUMP JUMPDEST PUSH32 0x72656379636C696E670000000000000000000000000000000000000000000000 PUSH0 DUP3 ADD MSTORE POP JUMP JUMPDEST PUSH0 PUSH2 0x15EE PUSH1 0x9 DUP4 PUSH2 0x156A JUMP JUMPDEST SWAP2 POP PUSH2 0x15F9 DUP3 PUSH2 0x15BA JUMP JUMPDEST PUSH1 0x9 DUP3 ADD SWAP1 POP SWAP2 SWAP1 POP JUMP JUMPDEST PUSH0 PUSH2 0x160E DUP3 PUSH2 0x15E2 JUMP JUMPDEST SWAP2 POP DUP2 SWAP1 POP SWAP2 SWAP1 POP JUMP JUMPDEST PUSH32 0x656E657267795F736176696E6700000000000000000000000000000000000000 PUSH0 DUP3 ADD MSTORE POP JUMP JUMPDEST PUSH0 PUSH2 0x164C PUSH1 0xD DUP4 PUSH2 0x156A JUMP JUMPDEST SWAP2 POP PUSH2 0x1657 DUP3 PUSH2 0x1618 JUMP JUMPDEST PUSH1 0xD DUP3 ADD SWAP1 POP SWAP2 SWAP1 POP JUMP JUMPDEST PUSH0 PUSH2 0x166C DUP3 PUSH2 0x1640 JUMP JUMPDEST SWAP2 POP DUP2 SWAP1 POP SWAP2 SWAP1 POP JUMP JUMPDEST PUSH32 0x616E696D616C5F63617265000000000000000000000000000000000000000000 PUSH0 DUP3 ADD MSTORE POP JUMP JUMPDEST PUSH0 PUSH2 0x16AA PUSH1 0xB DUP4 PUSH2 0x156A JUMP JUMPDEST SWAP2 POP PUSH2 0x16B5 DUP3 PUSH2 0x1676 JUMP JUMPDEST PUSH1 0xB DUP3 ADD SWAP1 POP SWAP2 SWAP1 POP JUMP JUMPDEST PUSH0 PUSH2 0x16CA DUP3 PUSH2 0x169E JUMP JUMPDEST SWAP2 POP DUP2 SWAP1 POP SWAP2 SWAP1 POP JUMP INVALID LOG2 PUSH5 0x6970667358 0x22 SLT KECCAK256 LOG3 0x1F CALLDATALOAD PUSH22 0xF797454909AD79C637D5CBD78AC308EE4FD0721FA3CB 0xEB PC 0xD OR BALANCE COINBASE PUSH5 0x736F6C6343 STOP ADDMOD BYTE STOP CALLER "
				},
				"gasEstimates": {
					"creation": {
						"codeDepositCost": "1179600",
						"executionCost": "infinite",
						"totalCost": "infinite"
					},
					"external": {
						"actionHistory(address,uint256)": "infinite",
						"balanceOf(address)": "2824",
						"decimals()": "2511",
						"name()": "infinite",
						"recordKindAction(string,string)": "infinite",
						"symbol()": "infinite",
						"totalSupply()": "2448",
						"transfer(address,uint256)": "infinite",
						"verifyAction(address,uint256)": "infinite"
					},
					"internal": {
						"calculateReward(string memory)": "infinite"
					}
				},
				"methodIdentifiers": {
					"actionHistory(address,uint256)": "7b407291",
					"balanceOf(address)": "70a08231",
					"decimals()": "313ce567",
					"name()": "06fdde03",
					"recordKindAction(string,string)": "630a9b9b",
					"symbol()": "95d89b41",
					"totalSupply()": "18160ddd",
					"transfer(address,uint256)": "a9059cbb",
					"verifyAction(address,uint256)": "6bbee24d"
				}
			},
			"storageLayout": {
				"storage": [
					{
						"astId": 3,
						"contract": "KindActionTokens.sol:ColdHouseToken",
						"label": "name",
						"offset": 0,
						"slot": "0",
						"type": "t_string_storage"
					},
					{
						"astId": 5,
						"contract": "KindActionTokens.sol:ColdHouseToken",
						"label": "symbol",
						"offset": 0,
						"slot": "1",
						"type": "t_string_storage"
					},
					{
						"astId": 7,
						"contract": "KindActionTokens.sol:ColdHouseToken",
						"label": "decimals",
						"offset": 0,
						"slot": "2",
						"type": "t_uint8"
					},
					{
						"astId": 9,
						"contract": "KindActionTokens.sol:ColdHouseToken",
						"label": "totalSupply",
						"offset": 0,
						"slot": "3",
						"type": "t_uint256"
					},
					{
						"astId": 13,
						"contract": "KindActionTokens.sol:ColdHouseToken",
						"label": "balanceOf",
						"offset": 0,
						"slot": "4",
						"type": "t_mapping(t_address,t_uint256)"
					},
					{
						"astId": 30,
						"contract": "KindActionTokens.sol:ColdHouseToken",
						"label": "actionHistory",
						"offset": 0,
						"slot": "5",
						"type": "t_mapping(t_address,t_array(t_struct(KindAction)24_storage)dyn_storage)"
					}
				],
				"types": {
					"t_address": {
						"encoding": "inplace",
						"label": "address",
						"numberOfBytes": "20"
					},
					"t_array(t_struct(KindAction)24_storage)dyn_storage": {
						"base": "t_struct(KindAction)24_storage",
						"encoding": "dynamic_array",
						"label": "struct KindActionToken.KindAction[]",
						"numberOfBytes": "32"
					},
					"t_bool": {
						"encoding": "inplace",
						"label": "bool",
						"numberOfBytes": "1"
					},
					"t_mapping(t_address,t_array(t_struct(KindAction)24_storage)dyn_storage)": {
						"encoding": "mapping",
						"key": "t_address",
						"label": "mapping(address => struct KindActionToken.KindAction[])",
						"numberOfBytes": "32",
						"value": "t_array(t_struct(KindAction)24_storage)dyn_storage"
					},
					"t_mapping(t_address,t_uint256)": {
						"encoding": "mapping",
						"key": "t_address",
						"label": "mapping(address => uint256)",
						"numberOfBytes": "32",
						"value": "t_uint256"
					},
					"t_string_storage": {
						"encoding": "bytes",
						"label": "string",
						"numberOfBytes": "32"
					},
					"t_struct(KindAction)24_storage": {
						"encoding": "inplace",
						"label": "struct KindActionToken.KindAction",
						"members": [
							{
								"astId": 15,
								"contract": "KindActionTokens.sol:ColdHouseToken",
								"label": "actionType",
								"offset": 0,
								"slot": "0",
								"type": "t_string_storage"
							},
							{
								"astId": 17,
								"contract": "KindActionTokens.sol:ColdHouseToken",
								"label": "description",
								"offset": 0,
								"slot": "1",
								"type": "t_string_storage"
							},
							{
								"astId": 19,
								"contract": "KindActionTokens.sol:ColdHouseToken",
								"label": "timestamp",
								"offset": 0,
								"slot": "2",
								"type": "t_uint256"
							},
							{
								"astId": 21,
								"contract": "KindActionTokens.sol:ColdHouseToken",
								"label": "rewardAmount",
								"offset": 0,
								"slot": "3",
								"type": "t_uint256"
							},
							{
								"astId": 23,
								"contract": "KindActionTokens.sol:ColdHouseToken",
								"label": "verified",
								"offset": 0,
								"slot": "4",
								"type": "t_bool"
							}
						],
						"numberOfBytes": "160"
					},
					"t_uint256": {
						"encoding": "inplace",
						"label": "uint256",
						"numberOfBytes": "32"
					},
					"t_uint8": {
						"encoding": "inplace",
						"label": "uint8",
						"numberOfBytes": "1"
					}
				}
			},
			"userdoc": {
				"kind": "user",
				"methods": {},
				"version": 1
			}
		}
	}
}